S00E0000506943616C632E73726563EA
S11300000C94E6010C9410020C9410020C9410024F
S11300100C9410020C9410020C9410020C94100214
S11300200C9410020C9410020C9410020C94100204
S11300300C9410020C9410020C94710C0C94100289
S11300400C9410020C9410020C9410020C941002E4
S11300500C941F250C9410020C9410020C941002A2
S11300600C9410020C9410020C9410020C941002C4
S11300700C9410020C9410020C9410020C941002B4
S11300800C9410020C9410020C9410020C941002A4
S11300900C9410020C9410020C9410020C94100294
S11300A00C9410020C9410020C9410020C94100284
S11300B00C9410020C9410020C9410020C94100274
S11300C00C9410020C9410020C9410020C94100264
S11300D00C9410020C9410020C9410020C94100254
S11300E00C9410020C9410020C9410020C94100244
S11300F00C9410020C9410020C9410020C94100234
S11301000C9410020C9410020C9410020C94100223
S11301100C9410020C9410020C9410020C94100213
S11301200C9410020C9410020C9410020C94100203
S11301300C9410020C9410020C9410020C941002F3
S11301400C9410020C9410020C9410020C941002E3
S11301500C9410020C9410020C9410020C941002D3
S11301600C9410020C9410020C9410020C941002C3
S11301700C9410020C9410020C9410020C941002B3
S11301800C9410020C9410020C9410020C941002A3
S11301900C9410020C9410020C9410020C94100293
S11301A00C9410020C9410020C9410020C94100283
S11301B00C94D3290C9410020C9410020C94100289
S11301C00C9410020C9410020C9410020C94100263
S11301D00C9410020C9410020C9410020C94100253
S11301E00C9410020C9410020C9410020C94100243
S11301F00C9410020C9410020C941002E120E120E3
S1130200E120682134216221E120E12068213421A8
S113021007634236B79BD8A71A39685618AEBAABEB
S1130220558C1D3CB7CC5763BD6DEDFD753EF6177F
S11302307231BF000000803F08000000BE922449D4
S1130240123EABAAAA2ABECDCCCC4C3E0000008004
S1130250BEABAAAAAA3E00000000BF000000803F77
S11302600000000000084178D3BB4387D1133D1937
S11302700E3CC3BD4282AD2B3E68EC8276BED98F64
S1130280E1A93E4C80EFFFBE01C4FF7F3F000000A8
S113029000000C94662C0C9462210C9471250C942F
S11302A06C1A0C94F2240C948B280C9496230C94C2
S11302B094270C9468210C94C31E0C944F070C943F
S11302C0E3230C9434210C94E1206E616E00696E7A
S11302D0660000407A10F35A00A0724E180900100C
S11302E0A5D4E80000E87648170000E40B540200A7
S11302F000CA9A3B000000E1F505000080969800D2
S1130300000040420F000000A086010000001027FA
S113031000000000E803000000006400000000008A
S11303200A00000000000100000000002C76D888BC
S1130330DC674F0823DFC1DFAE59E1B1B796E5E3CF
S1130340E453C63AE651997696E8E6C28426EB89E8
S11303508C9B62ED407C6FFCEFBC9C9F40F2BAA585
S11303606FA5F490055A2AF75C936B6CF9676DC11D
S11303701BFCE0E40D47FEF520E6B500D0ED902E21
S11303800300943577050080841E080000204E0A7F
S1130390000000C80C333333330F986E12831141BD
S11303A0EF8D2114893BE65516CFFEE6DB18D18488
S11303B04B381BF77C1D901DA4BBE42420328472AF
S11303C05E228100C9F124ECA1E53D2711241FBE62
S11303D0CFEFCDBFDFE3DEBF00E00CBFE5E3FDE21E
S11303E08AEA90E48193E030F907E0F3000010E238
S11303F0A0E0B0E2ECEEF9E700E00BBF02C007902A
S11304000D92A439B107D9F72DE2A4E9B0E201C0F5
S11304101D92A533B207E1F70E9413230C94F43C18
S11304200C940000CF93DF93CDB7DEB780EA96E05B
S113043020E1FC01228380EA96E020E2FC01228391
S113044080EA96E020E4FC01228380EA96E020E83A
S1130450FC0122830000DF91CF910895CF93DF93B5
S1130460CDB7DEB780EA96E0FC018085882F90E066
S113047080719927959587959595879595958795F5
S113048095958795892B89F4809194209091952056
S113049080369A4E20F58091942090919520019673
S11304A080939420909395201AC0809194209091E9
S11304B095200B9768F08091942090919520C39794
S11304C018F01092172D07C081E08093172D03C0F8
S11304D082E08093172D109294201092952080EA48
S11304E096E0FC018085882F90E08072992795958D
S11304F087959595879595958795959587959595E0
S11305008795892B89F48091962090919720803645
S11305109A4E20F580919620909197200196809391
S11305209620909397201AC08091962090919720BE
S11305300B9768F08091962090919720C39718F0BC
S11305401092182D07C081E08093182D03C082E01B
S11305508093182D109296201092972080EA96E0AE
S1130560FC018085882F90E080749927082E892FBC
S1130570000C881F990B000C881F991F892B89F484
S1130580809198209091992080369A4E20F5809100
S11305909820909199200196809398209093992087
S11305A01AC080919820909199200B9768F08091BF
S11305B0982090919920C39718F01092192D07C094
S11305C081E08093192D03C082E08093192D10924D
S11305D098201092992080EA96E0FC018085882377
S11305E08CF080919A2090919B2080369A4E20F531
S11305F080919A2090919B20019680939A209093C9
S11306009B201AC080919A2090919B200B9768F0B0
S113061080919A2090919B20C39718F010921A2DE4
S113062007C081E080931A2D03C082E080931A2DC5
S113063010929A2010929B200000DF91CF91089590
S1130640CF93DF931F92CDB7DEB789838981882F3B
S113065090E08130910579F0823091051CF4892B6A
S113066039F012C08230910549F0039751F00CC063
S11306708091172D0AC08091182D07C08091192DE3
S113068004C080911A2D01C082E00F90DF91CF91B8
S113069008950F93CF93DF9300D000D0CDB7DEB78A
S11306A08C839D836E838FE390E0FC0180818B8338
S11306B0F8948C819D8189839A838BE390E0FC017B
S11306C0108289819A812E81FC0108ED04BF208368
S11306D08FE390E02B81FC01208300002696CDBFA0
S11306E0DEBFDF91CF910F910895CF93DF9300D0B8
S11306F0CDB7DEB789836A834B8380E590E02A8196
S1130700222311F020E201C020E03981322B2B8119
S1130710232BFC01228300002396CDBFDEBFDF9193
S1130720CF910895CF93DF931F921F92CDB7DEB779
S113073089836A838A818F718A8380E590E0398115
S11307402A81232BFC01258300000F900F90DF9159
S1130750CF910895CF93DF931F921F92CDB7DEB749
S11307608A8380E590E020E530E0F9012081322F92
S11307702A8120952323FC01208380E590E0FC015D
S113078090818A818923898389810F900F90DF91D9
S1130790CF910895CF93DF9300D0CDB7DEB78A838E
S11307A06B839A818B81892B8983698181E490E0B1
S11307B00E94490300002396CDBFDEBFDF91CF9195
S11307C00895CF93DF931F921F92CDB7DEB78A832C
S11307D080E490E0FC018081982F987F8A81892BA6
S11307E08983698180E490E00E94490380E490E079
S11307F0FC0190818A818923898389810F900F90DC
S1130800DF91CF910895CF93DF9300D0CDB7DEB7BA
S113081089839A836B8389819A81FC018081982FD3
S1130820907F8B81892B282F89819A81FC012083D9
S113083000002396CDBFDEBFDF91CF910895CF9303
S1130840DF9300D0CDB7DEB789839A836B83898128
S11308509A81FC018181982F987F8B81892B282F85
S113086089819A81FC01218300002396CDBFDEBFDC
S1130870DF91CF910895CF93DF9300D0CDB7DEB74A
S113088089839A836B8389819A81FC018681982F5D
S11308909C7F8B81892B282F89819A81FC01268357
S11308A000002396CDBFDEBFDF91CF910895CF9393
S11308B0DF9300D01F92CDB7DEB789839A836B8311
S11308C07C838BE20E946B0400002496CDBFDEBFC4
S11308D0DF91CF910895CF93DF931F921F92CDB7ED
S11308E0DEB78A838A818B3219F481E089830EC052
S11308F08A818C3219F482E0898308C08A818F321C
S113090019F483E0898302C084E089830E948E0401
S113091000000F900F90DF91CF910895CF93DF9354
S1130920CDB7DEB7000084E390E028EDFC0120831E
S113093088E790E021E0FC0121830000DF91CF9162
S11309400895CF93DF931F921F92CDB7DEB780E156
S113095090E00E94DE0789839A8389819A81892B9A
S113096061F089819A81FC011082118212821382C2
S113097089819A8104960E94300889819A810F9016
S11309800F90DF91CF910895CF92DF92EF92FF9273
S11309900F931F93CF93DF93CDB7DEB76D97CDBF82
S11309A0DEBF8A8B9B8B4C8B5D8B6E8B7F8B288FF2
S11309B0098FCA8EDB8EEC8EFD8E8A899B8989878E
S11309C09A871D821E821F8218861B860E948515A7
S11309D089859A85FC0180819181A281B3818C876C
S11309E09D87AE87BF872C893D894E895F898C8519
S11309F09D85AE85BF85098DBC01CD010E946D0723
S1130A00888B8889882359F18C859D85AE85BF851F
S1130A1089839A83AB83BC831A8E1B8E1C8E1D8E96
S1130A20888D882309F465C089859A85FC01208115
S1130A303181428153818C899D89AE89BF8980959A
S1130A409095A095B09582239323A423B52329855B
S1130A503A85F90180839183A283B3834AC08A8D46
S1130A609B8DAC8DBD8D892B8A2B8B2B59F48C855A
S1130A709D85AE85BF8589839A83AB83BC8381E0E2
S1130A808B8737C0888D882349F08D819E81AF8103
S1130A90B885B1608D839E83AF83B887898D8823A1
S1130AA049F08D819E81AF81B885B4608D839E832A
S1130AB0AF83B8872C893D894E895F898D819E815A
S1130AC0AF81B885822B932BA42BB52B29853A852E
S1130AD0F90134962A8D3B8D4C8D5D8D89019A01E7
S1130AE0AC01BD01CF010E94581819821A821B82E1
S1130AF01C820E949215898B8A8D9B8DAC8DBD8D35
S1130B00892B8A2B8B2B09F465C08989882311F4DE
S1130B100E94C70B0E94161BDC01CB0189839A83B8
S1130B20AB83BC8389819A81AB81BC818827992757
S1130B30AA27B270892B8A2B8B2B09F042C0F09123
S1130B40A200FF93F87FF093A20089859A85FC01A7
S1130B5080819181A281B38189839A83AB83BC8391
S1130B602C893D894E895F8989819A81AB81BC81B9
S1130B70098DBC01CD010E946D078823E9F0888DA1
S1130B808823D1F089859A85FC01208131814281B5
S1130B9053818C899D89AE89BF8980959095A09554
S1130BA0B09582239323A423B52329853A85F9019B
S1130BB080839183A283B38381E08B87FF91F09339
S1130BC0A20089819A81AB81BC81BB2789839A83E6
S1130BD0AB83BC8389819A81AB81BC81BC01CD018B
S1130BE06D96CDBFDEBFDF91CF911F910F91FF9026
S1130BF0EF90DF90CF900895CF93DF93CDB7DEB71A
S1130C002C97CDBFDEBF8F83988749875A876B8720
S1130C107C878F81988589839A83F091A200FF93C2
S1130C20F87FF093A20089819A81FC0180819181EF
S1130C30A281B3818B839C83AD83BE8389819A8196
S1130C40FC01208131814281538189859A85AB855C
S1130C50BC8580959095A095B09582239323A42379
S1130C60B52329813A81F90180839183A283B383D7
S1130C70FF91F093A2008B819C81AD81BE81BC0168
S1130C80CD012C96CDBFDEBFDF91CF910895CF93D8
S1130C90DF93CDB7DEB76D97CDBFDEBF888F998F59
S1130CA04A8F5B8F6C8F7D8F1B821C821D821E82FC
S1130CB0888D998D888799871F8288859985049660
S1130CC08A879B878A859B8503968C879D870E944C
S1130CD085158A859B85FC018781908589839A8304
S1130CE088859985FC0120813181428153818A8DD7
S1130CF09B8DAC8DBD8D822B932BA42BB52B28857E
S1130D003985F90180839183A283B38395C0898156
S1130D109A81FC01848195818E879F8789819A813C
S1130D20FC0180819181A281B381888B998BAA8BEC
S1130D30BB8B1F8288899989AA89BB8988279927AF
S1130D40AA278C8B9D8BAE8BBF8B88899989AA89A6
S1130D50BB89BB27888B998BAA8BBB8B8C899D897C
S1130D60AE89BF8988279927AA27B470892B8A2B33
S1130D708B2BB1F488859985FC01208131814281D6
S1130D80538188899989AA89BB8982239323A423BF
S1130D90B523892B8A2B8B2BE9F081E08F831AC032
S1130DA088859985FC01208131814281538188891C
S1130DB09989AA89BB89282339234A235B238889F3
S1130DC09989AA89BB89281739074A075B0711F44F
S1130DD081E08F838F81882359F18C899D89AE8925
S1130DE0BF8988279927AA27B170892B8A2B8B2B37
S1130DF081F02B813C814D815E8188899989AA8902
S1130E00BB89822B932BA42BB52B8B839C83AD8323
S1130E10BE8388859985FC0180819181A281B381FB
S1130E20B26029813A81AC01BD01C9010E94331924
S1130E308E859F8589839A8329813A818C859D85B6
S1130E402817390709F063CF88859985FC0120812B
S1130E503181428153818B819C81AD81BE8180959A
S1130E609095A095B09582239323A423B523288538
S1130E703985F90180839183A283B3830E949215FB
S1130E8088859985FC0180819181A281B381BC010F
S1130E90CD016D96CDBFDEBFDF91CF910895CF9385
S1130EA0DF9300D000D0CDB7DEB789839A834B831C
S1130EB05C836D837E838B819C81AD81BE8129811E
S1130EC03A81AC01BD01C9010E9447060000269683
S1130ED0CDBFDEBFDF91CF9108950F93CF93DF9302
S1130EE0CDB7DEB72A97CDBFDEBF6A837B838C8301
S1130EF09D832E833F83488759870A8719828A8571
S1130F00882399F42A813B814C815D818E819F8164
S1130F10A885B98582239323A423B523892B8A2BFF
S1130F208B2BD1F081E0898317C02A813B814C81CE
S1130F305D818E819F81A885B985282339234A2321
S1130F405B238E819F81A885B985281739074A07B5
S1130F505B0711F481E0898389812A96CDBFDEBFC6
S1130F60DF91CF910F9108950F931F93CF93DF9348
S1130F70CDB7DEB72997CDBFDEBF8A839B834C8371
S1130F805D836E837F8328873987288539858C81A3
S1130F909D81AE81BF816A817B8189019C01AD0104
S1130FA08FE497E00E947222898389812996CDBFBC
S1130FB0DEBFDF91CF911F910F910895CF93DF93FF
S1130FC000D01F92CDB7DEB78B839C8319821A821F
S1130FD00E9485152091542C3091552C8B819C8135
S1130FE0820F931F883B9B4018F52091542C30911D
S1130FF0552C8B819C81280F391F8091542C909102
S1131000552C82179307A0F48091542C9091552C61
S113101084569F4D89839A832091542C3091552C6A
S11310208B819C81820F931F8093542C9093552C19
S11310300E94921589819A812496CDBFDEBFDF91EB
S1131040CF910895CF93DF931F921F92CDB7DEB750
S113105089839A8300000F900F90DF91CF910895B8
S1131060CF93DF931F921F92CDB7DEB789839A8304
S113107089819A819C012D5F3F4F89819A81FC016E
S11310802183328329813A818FEF9FEFDC01F901BB
S113109083839483A583B68389819A819C012D5F80
S11310A03F4F89819A81FC012783308789819A8106
S11310B09C012D5F3F4F89819A81FC0121873287F2
S11310C089819A81FC01108200000F900F90DF91BA
S11310D0CF910895CF93DF931F921F92CDB7DEB7C0
S11310E089839A8389819A81FC0112861386000080
S11310F00F900F90DF91CF910895CF93DF9300D09D
S113110000D0CDB7DEB78B839C836D837E838B81C8
S11311109C81FC018181928189839A838D819E8146
S113112029813A81FC012483358389819A81FC01D8
S1131130268137818D819E81FC01268337838981B5
S11311409A81FC01868197812D813E81FC01248353
S1131150358389819A812D813E81FC0126833783E1
S11311608D819E812B813C81FC01228733878B8179
S11311709C81FC01808121E0280F8B819C81FC01F2
S1131180208300002696CDBFDEBFDF91CF91089566
S1131190CF93DF93CDB7DEB72A97CDBFDEBF8F8362
S11311A0988769877A8789859A85FC0180819181EE
S11311B0A281B3818B839C83AD83BE838B819C810D
S11311C0AD81BE818F3F9F4FAF4FBF4F41F48F81A1
S11311D09885FC018185928589839A8320C08F81BB
S11311E09885039689839A8307C089819A81FC0133
S11311F08481958189839A8389819A81FC01848180
S11312009581FC0120813181428153818B819C81B4
S1131210AD81BE8182179307A407B50730F7898192
S11312209A81FC012481358189859A85FC01248376
S1131230358389859A85FC018481958129853A8540
S1131240FC012683378389859A8529813A81FC01AB
S11312502683378389819A8129853A85FC012483F1
S1131260358389859A852F813885FC0122873387C8
S11312708F819885FC01808121E0280F8F819885DA
S1131280FC01208300002A96CDBFDEBFDF91CF9101
S11312900895CF93DF9300D01F92CDB7DEB78B8331
S11312A09C838B819C81FC018285938589839A83AD
S11312B08B819C81FC01848195812B813C81F90186
S11312C026813781FC01268337838B819C81FC0135
S11312D0868197812B813C81F90124813581FC0130
S11312E02483358389819A81FC01218132818B8118
S11312F09C812817390751F48B819C81FC0126813C
S1131300378189819A81FC01218332838B819C817D
S1131310FC011286138689819A81FC0180812FEF5A
S1131320280F89819A81FC01208389819A81FC019B
S113133080812496CDBFDEBFDF91CF9108951F93A6
S1131340CF93DF93CDB7DEB780EA90E0FC01128142
S113135080EA90E020EA30E0F9012281287FFC0154
S11313602283812FDF91CF911F910895CF93DF9333
S1131370CDB7DEB72A97CDBFDEBF8D839E836F8343
S1131380788749875A878D819E8121E1FC012083DA
S11313908D819E8101978D839E838D819E8122E222
S11313A0FC0120838D819E8101978D839E838D8195
S11313B09E8123E3FC0120838D819E8101978D838F
S11313C09E838F819885CC01A0E0B0E089839A83C5
S11313D0AB83BC8329818D819E81FC0120838D8117
S11313E09E8101978D839E8389819A81AB81BC8183
S11313F0892F9A2FAB2FBB2789839A83AB83BC8316
S113140029818D819E81FC0120838D819E8101979C
S11314108D839E8389819A81AB81BC81892F9A2F88
S1131420AB2FBB2789839A83AB83BC8329818D81AE
S11314309E81FC0120838D819E8101978D839E83F3
S11314408D819E8121E3FC0120838D819E81019702
S11314508D839E838D819E8120E8FC0120838D8174
S11314609E8101978D839E838D819E8127E8FC0157
S113147020838D819E8101978D839E838D819E81A2
S1131480FC0110828D819E8101978D839E838D81C5
S11314909E81FC0110828D819E8101978D839E83A4
S11314A08D819E8122E0FC0120838D819E810197A4
S11314B08D839E838D819E8123E0FC0120838D8119
S11314C09E8101978D839E838D819E8124E0FC0102
S11314D020838D819E8101978D839E838D819E8142
S11314E025E0FC0120838D819E8101978D839E835D
S11314F08D819E8126E0FC0120838D819E81019750
S11315008D839E838D819E8127E0FC0120838D81C4
S11315109E8101978D839E838D819E8128E0FC01AD
S113152020838D819E8101978D839E838D819E81F1
S113153029E0FC0120838D819E8101978D839E8308
S11315408D819E8120E1FC0120838D819E81019704
S11315508D839E838D819E8121E1FC0120838D8179
S11315609E8101978D839E838D819E8122E1FC0162
S113157020838D819E8101978D839E838D819E81A1
S113158023E1FC0120838D819E8101978D839E83BD
S11315908D819E8124E1FC0120838D819E810197B0
S11315A08D839E838D819E8125E1FC0120838D8125
S11315B09E8101978D839E838D819E8126E1FC010E
S11315C020838D819E8101978D839E838D819E8151
S11315D027E1FC0120838D819E8101978D839E8369
S11315E08D819E8128E1FC0120838D819E8101975C
S11315F08D839E838D819E8129E1FC0120838D81D1
S11316009E8101978D839E838D819E8120E2FC01C2
S113161020838D819E8101978D839E838D819E8100
S113162021E2FC0120838D819E8101978D839E831D
S11316308D819E8122E2FC0120838D819E81019710
S11316408D839E838D819E8123E2FC0120838D8185
S11316509E8101978D839E8389859A85CC01A0E024
S1131660B0E089839A83AB83BC8329818D819E8179
S1131670FC0120838D819E8101978D839E838981C6
S11316809A81AB81BC81892F9A2FAB2FBB27898389
S11316909A83AB83BC8329818D819E81FC01208345
S11316A08D819E8101978D839E838D819E8126E20B
S11316B0FC0120838D819E8101978D839E838D8182
S11316C09E8127E2FC0120838D819E8101978D8379
S11316D09E838D819E8128E2FC0120838D819E81E1
S11316E001978D839E838D819E8129E2FC01208355
S11316F08D819E8101978D839E838D819E8120E3C0
S1131700FC0120838D819E8101978D839E838D8131
S11317109E812A96CDBFDEBFDF91CF910895CF93EE
S1131720DF93CDB7DEB70E94D60CA091562CB091B2
S1131730572C0D900DBE0D900EBEEF91DF91CF9101
S1131740BF91AF919F918F917F916F915F914F91D5
S11317503F912F911F910F91FF90EF90DF90CF90C9
S1131760BF90AF909F908F907F906F905F904F90BD
S11317703F902F901F900F90FF91F093A200FF9144
S1131780FFBFFF91089581E0DF91CF910895FF930A
S1131790FFB7FF93F091A200FF93F87FF093A200AC
S11317A00F921F9211242F923F924F925F926F9249
S11317B07F928F929F92AF92BF92CF92DF92EF92DD
S11317C0FF920F931F932F933F934F935F936F93C6
S11317D07F938F939F93AF93BF93CF93DF93EF93B5
S11317E0A091562CB091572C0DB60D920EB60D92B9
S11317F00E946017A091562CB091572C0D900DBEED
S11318000D900EBEEF91DF91CF91BF91AF919F915B
S11318108F917F916F915F914F913F912F911F9184
S11318200F91FF90EF90DF90CF90BF90AF909F907B
S11318308F907F906F905F904F903F902F901F906C
S11318400F90FF91F093A200FF91FFBFFF910895C5
S113185000001F93CF93DF931F92CDB7DEB7898328
S113186080911B2D982F8981892B80931B2D80EAD1
S113187090E0FC018081813061F080EA90E0FC011D
S11318808081823031F080EA90E0FC0180818430F4
S113189079F480911B2D882359F00E949F09182FF9
S11318A010921B2D0E94601780EA90E0FC011283C5
S11318B000000F90DF91CF911F9108951F93CF9354
S11318C0DF93CDB7DEB70E949F09182F0E945016F0
S11318D080EA90E0FC0112830000DF91CF911F9118
S11318E00895FF93FFB7FF93F091A200FF93F87F51
S11318F0F093A2000F921F9211242F923F924F92C5
S11319005F926F927F928F929F92AF92BF92CF928B
S1131910DF92EF92FF920F931F932F933F934F9376
S11319205F936F937F938F939F93AF93BF93CF9363
S1131930DF93EF93A091562CB091572C0DB60D92D6
S11319400EB60D920E945E0C81E00E94290CA091BB
S1131950562CB091572C0D900DBE0D900EBEEF91EC
S1131960DF91CF91BF91AF919F918F917F916F91B3
S11319705F914F913F912F911F910F91FF90EF90A5
S1131980DF90CF90BF90AF909F908F907F906F909B
S11319905F904F903F902F901F900F90FF91F09386
S11319A0A200FF91FFBFFF9118950000CF93DF9332
S11319B000D01F92CDB7DEB780E09DE7A0E0B0E095
S11319C089839A83AB83BC8389819A81AB81BC81EF
S11319D0689415F8B695A795979587951694D1F7B9
S11319E089839A83AB83BC8389819A81AB81BC81CF
S11319F00197A109B10989839A83AB83BC8380E0F1
S1131A0098E029813A81FC0126A337A365E080E0B0
S1131A1098E00E94030461E080E098E00E943B04A7
S1131A2000002496CDBFDEBFDF91CF910895CF9300
S1131A30DF93CDB7DEB72597CDBFDEBF8B839C8305
S1131A406D838B819C8189839A83F091A200FF939B
S1131A50F87FF093A20089819A81FC0180819181B1
S1131A6029813A81F901278D422F50E029813A8159
S1131A70F90120A1222F30E0429FB001439F700D55
S1131A80529F700D11249B01280F391F89819A815F
S1131A90FC012283338389819A81FC01168E89811A
S1131AA09A81FC012081318189819A81FC012483FE
S1131AB0358389819A81FC018081918129813A81D0
S1131AC0F901278D222F30E0A901415051092981C4
S1131AD03A81F90120A1222F30E0429FB001439FB7
S1131AE0700D529F700D11249B01280F391F89819D
S1131AF09A81FC012683378389819A812FEFFC0127
S1131B0021A389819A812FEFFC0122A38D8188234F
S1131B1081F489819A81FC0180858823A1F08981DF
S1131B209A8108960E94CB18882369F00E94C70BFB
S1131B300AC089819A8108960E94300889819A8115
S1131B4043960E943008FF91F093A20081E025960D
S1131B50CDBFDEBFDF91CF9108950F931F93CF9335
S1131B60DF93CDB7DEB72997CDBFDEBF8F836887FC
S1131B7049878885882319F419821A820FC08F81B6
S1131B80482F50E08885282F30E0429FC001439FB2
S1131B90900D529F900D112489839A8389819A8193
S1131BA085960E94DE078B839C838B819C81892B85
S1131BB081F08B819C8185968D839E832B813C81D2
S1131BC08D819E8189012985AC0168858F810E9460
S1131BD0F30D8B819C812996CDBFDEBFDF91CF9120
S1131BE01F910F9108950F931F93CF93DF93CDB758
S1131BF0DEB72797CDBFDEBF89836A834B835C83BF
S1131C002D830E831F838A81882341F48E819F81D3
S1131C102E813F81FC012083318307C08E819F8107
S1131C202B813C81FC01208331838E819F8129811A
S1131C30FC01278F8E819F812A81FC0120A38E8144
S1131C409F8161E00E94170D8E819F812D81FC018F
S1131C5024A300002796CDBFDEBFDF91CF911F9153
S1131C600F9108950F93CF93DF93CDB7DEB76297AB
S1131C70CDBFDEBF8A879B876C877D872E873F8792
S1131C80488B598B0A8B19828A859B858A839B830F
S1131C90F091A200FF93F87FF093A2008A819B81C8
S1131CA0FC01268D8A819B81FC01878D281718F001
S1131CB08A89823019F52C853D858A819B814A89E0
S1131CC0B9010E9430108C838A819B81FC01838935
S1131CD0882351F08A819B8143960E94CB188823E4
S1131CE041F00E94C70B05C08C81882311F00E942B
S1131CF0C70BFF91F093A20081E06FC08E859F8592
S1131D00A889B989892B8A2B8B2B29F4FF91F0930D
S1131D10A20080E062C08981882331F4CE01059657
S1131D200E94961981E08983FF91F093A2000E949A
S1131D308515F091A200FF93F87FF093A2008A81A9
S1131D409B81FC0181A18F3F21F48A819B81FC014D
S1131D5011A28A819B81FC0182A18F3F21F48A8197
S1131D609B81FC0112A2FF91F093A2009E01225FCD
S1131D703F4FCE010596B9010E94B919882331F568
S1131D808A819B810E94BB118823C9F08E859F851F
S1131D90A889B9892A813B81285F3F4FAC01BD01E5
S1131DA0C9010E9430188A819B810E9435110E94CA
S1131DB09215882309F06CCF0E94C70B69CF8A81E2
S1131DC09B810E9435110E94921562CF8A819B816A
S1131DD00E9435110E94921580E06296CDBFDEBF4D
S1131DE0DF91CF910F910895CF93DF93CDB7DEB7F5
S1131DF02C97CDBFDEBF8E839F83688779874A8700
S1131E005B872C878E819F818A839B830E949F0995
S1131E108C838A819B81FC01268D8A819B81FC01B4
S1131E20878D281718F08C85823089F58A819B81EB
S1131E30FC0182A18D83288539858A819B814C850B
S1131E40B9010E9430108D818F3FB9F48A819B8142
S1131E50FC0183898823C1F08A819B8143960E9477
S1131E60CB18882389F08A859B85892B69F08A851C
S1131E709B8521E0FC01208307C08D818F5F282F83
S1131E808A819B81FC0122A381E0898301C019829C
S1131E9080EA90E02C81FC01228389812C96CDBFBD
S1131EA0DEBFDF91CF910895CF93DF93CDB7DEB737
S1131EB06197CDBFDEBF8A879B876C877D872E871E
S1131EC03F87488B598B19828A859B858A839B839C
S1131ED0F091A200FF93F87FF093A2008A819B8186
S1131EE0FC01868D8C838C81882311F12C853D85A2
S1131EF08A819B81B9010E94E5108C812FEF280F04
S1131F008A819B81FC01268F8A819B81FC018085CB
S1131F10882349F08A819B8108960E94CB188823E4
S1131F2011F00E94C70BFF91F093A20081E076C0EC
S1131F308E859F85A889B989892B8A2B8B2B29F4B7
S1131F40FF91F093A20080E069C08981882331F475
S1131F50CE0105960E94961981E08983FF91F09342
S1131F60A2000E948515F091A200FF93F87FF093E0
S1131F70A2008A819B81FC0181A18F3F21F48A8187
S1131F809B81FC0111A28A819B81FC0182A18F3F6C
S1131F9021F48A819B81FC0112A2FF91F093A2009B
S1131FA09E01225F3F4FCE010596B9010E94B919E7
S1131FB0882331F58A819B810E949A118823C9F074
S1131FC08E859F85A889B9892A813B812D5E3F4FE3
S1131FD0AC01BD01C9010E9430188A819B810E9415
S1131FE035110E949215882309F072CF0E94C70B05
S1131FF06FCF8A819B810E9435110E94921568CF10
S11320008A819B810E9435110E9492158A819B814D
S11320100E949A11882309F45BCF80E06196CDBFBA
S1132020DEBFDF91CF910895CF93DF9300D0CDB77A
S1132030DEB78A839B83F091A200FF93F87FF0932D
S1132040A2008A819B81FC01868D8983FF91F09394
S1132050A20089812396CDBFDEBFDF91CF91089581
S1132060CF93DF93CDB7DEB72797CDBFDEBF8B838A
S11320709C836D837E834F831A828B819C81FC01B8
S1132080868D89838B819C81FC0180A1882309F43E
S11320908EC08F818823D9F58B819C81FC0180A11E
S11320A0482F50E08B819C81FC01848195812D8196
S11320B03E81B9010E94B93B8B819C81FC01248142
S11320C035818B819C81FC0180A1882F90E0280FB1
S11320D0391F8B819C81FC01248335838B819C81F6
S11320E0FC01248135818B819C81FC018281938157
S11320F02817390708F45BC08B819C81FC0120817F
S113210031818B819C81FC012483358350C08B8178
S11321109C81FC0180A1482F50E08B819C81FC01B3
S1132120868197812D813E81B9010E94B93B8B81C3
S11321309C81FC01268137818B819C81FC0180A1DB
S1132140882F90E0919581959109280F391F8B81F3
S11321509C81FC01268337838B819C81FC01268131
S113216037818B819C81FC018081918128173907FB
S1132170A8F48B819C81FC01228133818B819C8119
S1132180FC0180A1882F90E0919581959109280FF9
S1132190391F8B819C81FC01268337838F81823098
S11321A031F48981882319F0898181508983898157
S11321B021E0280F8B819C81FC01268F8A81279640
S11321C0CDBFDEBFDF91CF910895CF93DF9300D0D1
S11321D01F92CDB7DEB789839A836B837C83898111
S11321E09A81FC0180A18823C9F189819A81FC012B
S11321F02681378189819A81FC0180A1882F90E012
S1132200280F391F89819A81FC01268337838981AC
S11322109A81FC012681378189819A81FC0182811E
S113222093812817390750F089819A81FC01208114
S1132230318189819A81FC012683378389819A813E
S1132240FC0180A1482F50E089819A81FC012681FC
S113225037818B819C81B9010E94B93B000024968F
S1132260CDBFDEBFDF91CF910895CF93DF9300D030
S11322701F92CDB7DEB78B839C83F091A200FF93AE
S1132280F87FF093A2008B819C81FC0182A1898359
S113229012C08B819C81FC018389882381F08B810E
S11322A09C8143960E94CB18882311F00E94611AE6
S11322B0898181508983898118165CF301C00000EB
S11322C08B819C812FEFFC0122A3FF91F093A2004C
S11322D0F091A200FF93F87FF093A2008B819C8180
S11322E0FC0181A18A8312C08B819C81FC018085C1
S11322F0882381F08B819C8108960E94CB188823C7
S113230011F00E94611A8A8181508A838A81181689
S11323105CF301C000008B819C812FEFFC0121A3A1
S1132320FF91F093A20000002496CDBFDEBFDF91A1
S1132330CF910895CF93DF9300D0CDB7DEB78A83D2
S11323409B83F091A200FF93F87FF093A2008A810F
S11323509B81FC01868D882319F481E0898301C067
S11323601982FF91F093A20089812396CDBFDEBF2D
S1132370DF91CF910895CF93DF9300D0CDB7DEB72F
S11323808A839B83F091A200FF93F87FF093A200CD
S11323908A819B81FC01268D8A819B81FC01878D2A
S11323A0281719F481E0898301C01982FF91F09301
S11323B0A20089812396CDBFDEBFDF91CF9108951E
S11323C0CF93DF93CDB7DEB72997CDBFDEBF8B8325
S11323D09C834D835E836F83788729878B819C815F
S11323E089839A83F091A200FF93F87FF093A2006F
S11323F089819A81FC0181A18F3F21F489819A818D
S1132400FC0111A289819A81FC0182A18F3F21F4F0
S113241089819A81FC0112A2FF91F093A200898123
S11324209A81FC01868D882371F489819A81FC014B
S113243073968D819E81AF81B8852985AC01BD01DC
S1132440CF010E94971889819A810E94351100005A
S11324502996CDBFDEBFDF91CF9108958F929F92D1
S1132460AF92BF92CF92DF92EF92FF920F931F939E
S1132470CF93DF93CDB7DEB76097CDBFDEBF8E833A
S11324809F83688779874A875B872C873D870E8778
S1132490EF86F88A8A859B850E94DE078C839D835C
S11324A08C819D81892BB9F08CE290E00E94DE073B
S11324B089839A8389819A81892B41F089819A81C0
S11324C02C813D81FC01238F348F07C08C819D8139
S11324D00E94220802C019821A8289819A81892B5A
S11324E009F18A859B85CC01A0E0B0E009811A81BD
S11324F04F8558892C853D8568857985EE81FF81D6
S1132500812C912C58016A01EE8489019C01AD0152
S1132510CF010E94A51289819A810E947B1381E0D8
S11325208B8302C08FEF8B838B816096CDBFDEBF20
S1132530DF91CF911F910F91FF90EF90DF90CF909B
S1132540BF90AF909F908F9008958F929F92AF927B
S1132550BF92CF92DF92EF92FF920F931F93CF938C
S1132560DF93CDB7DEB76497CDBFDEBF8C839D8389
S11325706E837F83288739874A875B870C871D870B
S1132580EE86CF86D88AA98ABA8A8B8A9C8A2885BD
S1132590398589899A89FC01838D948DA90165EA1D
S11325A070E00E94C23B89899A89FC01238D348D95
S11325B0888599850197820F931F8A839B8319824B
S11325C021C08981882F90E02981222F30E04E811B
S11325D05F81240F351FF901408129893A89820FCF
S11325E0931F4D96FC0140838981882F90E02E81B2
S11325F03F81820F931FFC018081882339F08981F8
S11326008F5F898389818830E0F201C00000898965
S11326109A89FC0114A28E85843010F083E08E87A1
S113262089899A892E85FC01228F89899A89029643
S11326300E946A0889899A890E960E946A08898983
S11326409A8929893A89FC01228733878E85882FC4
S113265090E0A0E0B0E024E030E040E050E0790118
S11326608A01E81AF90A0A0B1B0BD801C701298948
S11326703A89F90186879787A08BB18B89899A89D2
S113268029893A89FC01268B378B89899A89FC012F
S113269017A210A611A612A689899A89FC0113A66D
S11326A04C855D852C813D818A819B81B9010E9485
S11326B0B6099C0189899A89FC01208331838F851D
S11326C09889892B39F08F85988929893A89FC0161
S11326D02083318300006496CDBFDEBFDF91CF91AC
S11326E01F910F91FF90EF90DF90CF90BF90AF902C
S11326F09F908F900895CF93DF931F921F92CDB731
S1132700DEB789839A83F091A200FF93F87FF09358
S1132710A2008091B42C8F5F8093B42C8091562CAE
S11327209091572C892B69F489819A818093562C36
S11327309093572C8091B42C8130C9F40E947F1A55
S113274016C08091BA2C882391F48091562C9091D4
S1132750572CFC01228D89819A81FC01828D82177C
S113276030F089819A818093562C9093572C8091D4
S1132770BE2C8F5F8093BE2C2091BE2C89819A81C0
S1132780FC0125A389819A81FC01928D8091B92C49
S1132790891730F489819A81FC01828D8093B92C48
S11327A089819A81AC014E5F5F4F89819A81FC01D6
S11327B0828D282F30E06BE0629FC001639F900DF3
S11327C01124885A934DBA010E947D08FF91F09319
S11327D0A2008091BA2C882371F08091562C90919C
S11327E0572CFC01228D89819A81FC01828D281746
S11327F010F40E94C70B00000F900F90DF91CF914F
S11328000895CF93DF93CDB7DEB72597CDBFDEBF55
S11328106A837B838C839D8319828A819B81AC81AB
S1132820BD81892B8A2B8B2B71F00E9485158A819F
S11328309B81AC81BD8140E0BC01CD010E940C1D97
S11328400E94921589838981882311F40E94C70B01
S113285000002596CDBFDEBFDF91CF910895CF93C1
S1132860DF9300D01F92CDB7DEB78B839C83F091AA
S1132870A200FF93F87FF093A2008B819C81892BA7
S113288029F48091562C9091572C02C08B819C8105
S113289089839A8389819A8102960E944909898150
S11328A09A81FC01808D918D892B29F089819A81EF
S11328B00E960E94490989819A810296BC0189EA8F
S11328C09CE20E947D0889819A81FC0183A5813064
S11328D021F489819A81FC0113A6FF91F093A2004F
S11328E08091BA2C882359F0F091A200FF93F87FCD
S11328F0F093A2000E94C21AFF91F093A20080916B
S1132900562C9091572C29813A8128173907A1F424
S11329108091BA2C882319F00E94C70B0DC09091A6
S1132920A92C8091B42C981729F41092562C10924B
S1132930572C02C00E94601700002496CDBFDEBF52
S1132940DF91CF910895CF93DF93CDB7DEB725976D
S1132950CDBFDEBF8C839D8319828C819D818A8348
S11329609B838A819B81FC0184859585895A9C423D
S113297089F48A819B81FC01808D918D8E599C42C2
S113298049F08A819B81FC01808D918D892B11F402
S113299081E0898389812596CDBFDEBFDF91CF9108
S11329A00895CF93DF9300D01F92CDB7DEB78B830A
S11329B09C838B819C8189839A8389819A81892BC9
S11329C009F450C08091562C9091572C29813A815A
S11329D02817390709F446C0F091A200FF93F87F45
S11329E0F093A20089819A810E94A3148823B9F1EB
S11329F089819A8102960E94490989819A81FC0100
S1132A00928D8091B92C891730F489819A81FC01C7
S1132A10828D8093B92C89819A81AC014E5F5F4F7E
S1132A2089819A81FC01828D282F30E06BE0629FBE
S1132A30C001639F900D1124885A934DBA010E94DE
S1132A407D0889819A81FC01228D8091562C909178
S1132A50572CFC01828D281710F00E94C70BFF91A0
S1132A60F093A20000002496CDBFDEBFDF91CF918A
S1132A700895EF92FF920F93CF93DF931F92CDB7F8
S1132A80DEB70F2EF3ECEF2EFCE2FF2EF02D00E06C
S1132A9020E030E048EC50E060E070E28CE69AE13F
S1132AA00E942E1289838981813019F40E94AD1D00
S1132AB089838981813009F580EA90E020EA30E059
S1132AC0F9012281287FFC0122838FEF9FEFDC0133
S1132AD08093BF2C9093C02CA093C12CB093C22C94
S1132AE081E08093BA2C1092B52C1092B62C1092DF
S1132AF0B72C1092B82C0E948F0B00000F90DF911E
S1132B00CF910F91FF90EF900895CF93DF93CDB7BE
S1132B10DEB78091C52C8F5F8093C52C0000DF91B8
S1132B20CF910895CF93DF9300D01F92CDB7DEB736
S1132B3019821A821B82F091A200FF93F87FF0930E
S1132B40A2008091C52C81508093C52C8091C52C06
S1132B50882309F074C08091B42C882309F46FC0D1
S1132B6046C08091A52C9091A62CFC01808591856E
S1132B7089839A8389819A810E960E944909898161
S1132B809A8102960E94490989819A81FC01928D59
S1132B908091B92C891730F489819A81FC01828D46
S1132BA08093B92C89819A81AC014E5F5F4F8981F2
S1132BB09A81FC01828D282F30E06BE0629FC00176
S1132BC0639F900D1124885A934DBA010E947D0889
S1132BD089819A81FC01228D8091562C9091572CE9
S1132BE0FC01828D281718F081E08093BC2C809121
S1132BF09E2C882309F0B5CF89819A81892B11F005
S1132C000E94C21A8091BB2C8C838C81882379F01A
S1132C100E945016882319F081E08093BC2C8C818B
S1132C2081508C838C81882399F71092BB2C8091DE
S1132C30BC2C882321F081E08B830E94C70BFF9179
S1132C40F093A2008B812496CDBFDEBFDF91CF919C
S1132C500895CF93DF9300D01F92CDB7DEB7F091E4
S1132C60A200FF93F87FF093A2008091B52C90917D
S1132C70B62CA091B72CB091B82C89839A83AB83DE
S1132C80BC83FF91F093A20089819A81AB81BC81BE
S1132C90BC01CD012496CDBFDEBFDF91CF91089555
S1132CA0CF93DF93CDB7DEB72D97CDBFDEBF1982AB
S1132CB08091C52C882309F0F1C08091B52C9091A6
S1132CC0B62CA091B72CB091B82C0196A11DB11DC2
S1132CD08A839B83AC83BD838A819B81AC81BD81C4
S1132CE08093B52C9093B62CA093B72CB093B82CAA
S1132CF08A819B81AC81BD81892B8A2B8B2BD9F452
S1132D0080919A2C90919B2C8E839F8380919C2CF4
S1132D1090919D2C80939A2C90939B2C8E819F81D3
S1132D2080939C2C90939D2C8091BD2C8F5F8093DD
S1132D30BD2C0E94C21A8091BF2C9091C02CA091EE
S1132D40C12CB091C22C2A813B814C815D81281712
S1132D5039074A075B0708F48AC080919A2C90913E
S1132D609B2CFC018081882361F48FEF9FEFDC01B1
S1132D708093BF2C9093C02CA093C12CB093C22CF1
S1132D8076C080919A2C90919B2CFC018781908530
S1132D90FC01808591858887998788859985FC01C0
S1132DA082819381A481B5818A879B87AC87BD8703
S1132DB02A813B814C815D818A859B85AC85BD855B
S1132DC0281739074A075B0768F48A859B85AC8511
S1132DD0BD858093BF2C9093C02CA093C12CB0933D
S1132DE0C22C45C08885998502960E944909888528
S1132DF09985FC01808D918D892B29F08885998591
S1132E000E960E94490988859985FC01928D8091CE
S1132E10B92C891730F488859985FC01828D8093BB
S1132E20B92C88859985AC014E5F5F4F888599855B
S1132E30FC01828D282F30E06BE0629FC001639F0C
S1132E40900D1124885A934DBA010E947D088885FB
S1132E509985FC01228D8091562C9091572CFC0170
S1132E60828D281708F479CF81E0898376CF809109
S1132E70562C9091572CFC01828D282F30E04BE08A
S1132E80429FC001439F900D1124885A934DFC0129
S1132E908081823040F081E0898305C08091BB2C21
S1132EA08F5F8093BB2C8091BC2C882311F081E030
S1132EB0898389812D96CDBFDEBFDF91CF9108959F
S1132EC0CF93DF93CDB7DEB72997CDBFDEBF809117
S1132ED0C52C882321F081E08093BC2CBAC01092C9
S1132EE0BC2C8091562C9091572CFC01838D948D91
S1132EF08A839B8385EA95EADC018C839D83AE8378
S1132F00BF838A819B81FC0120813181428153816D
S1132F108C819D81AE81BF81281739074A075B07E1
S1132F2099F58A819B810496FC012081318142813B
S1132F3053818C819D81AE81BF81281739074A074F
S1132F405B0711F58A819B810896FC012081318100
S1132F50428153818C819D81AE81BF8128173907BD
S1132F604A075B0789F48A819B810C96FC012081C6
S1132F703181428153818C819D81AE81BF8128172B
S1132F8039074A075B0771F08091562C9091572CB2
S1132F909C01235E3F4F8091562C9091572CB90190
S1132FA00E9457048091B92C898303C08981815080
S1132FB089838981282F30E04BE0429FC001439FE1
S1132FC0900D1124885A934DFC018081882371F35C
S1132FD08981282F30E04BE0429FC001439F900D30
S1132FE01124885A934D8887998788859985FC018F
S1132FF081819281FC012481358188859985FC0138
S11330002183328388859985FC01218132818885D9
S1133010998503962817390769F488859985FC01F1
S113302081819281FC012481358188859985FC0107
S11330302183328388859985FC0181819281FC01F9
S1133040808591858093562C9093572C8981809309
S1133050B92C00002996CDBFDEBFDF91CF91089532
S1133060CF93DF9300D000D0CDB7DEB789839A83A6
S11330704B835C836D837E838091562C9091572C77
S11330809C01225F3F4F89819A81B9010E94C8083F
S11330908B819C81AD81BE8141E0BC01CD010E9448
S11330A00C1D00002696CDBFDEBFDF91CF910895A1
S11330B00F931F93CF93DF93CDB7DEB72A97CDBF7E
S11330C0DEBF89839A834B835C836D837E830F8306
S11330D0188729873A872091562C3091572C8B8159
S11330E09C81AD81BE81B068F90186879787A08BEA
S11330F0B18B8091562C9091572C9C01225F3F4FAD
S113310089819A81B9010E947D088F819885A9855A
S1133110BA8541E0BC01CD010E940C1D00002A9635
S1133120CDBFDEBFDF91CF911F910F910895CF9353
S1133130DF93CDB7DEB72797CDBFDEBF89839A83F0
S11331404B835C836D837E832F838091562C909177
S1133150572C9C01225F3F4F89819A81B9010E94BB
S11331607D088F81882339F08FEF9FEFDC018B83FB
S11331709C83AD83BE838B819C81AD81BE814F8155
S1133180BC01CD010E940C1D00002796CDBFDEBFFF
S1133190DF91CF910895CF93DF93CDB7DEB7259715
S11331A0CDBFDEBF8C839D838C819D81FC01878193
S11331B09085FC01808591858A839B838A819B818C
S11331C00E960E9449098091C52C882351F58A8165
S11331D09B8102960E9449098A819B81FC01928D00
S11331E08091B92C891730F48A819B81FC01828DEE
S11331F08093B92C8A819B81AC014E5F5F4F8A8199
S11332009B81FC01828D282F30E06BE0629FC0011E
S1133210639F900D1124885A934DBA010E947D0832
S113322008C08A819B810E96BC018EE99CE20E94B3
S11332307D088A819B81FC01228D8091562C90917E
S1133240572CFC01828D821730F481E0898381E060
S11332508093BC2C01C0198289812596CDBFDEBF25
S1133260DF91CF910895CF93DF93CDB7DEB7289741
S1133270CDBFDEBF8B839C834D835E836F83788752
S11332808D819E81AF81B885B0682B813C81F90125
S113329080839183A283B3838B819C81FC0180858D
S11332A0918589839A838B819C810E9449098981B4
S11332B09A8102960E94490989819A81FC01928D22
S11332C08091B92C891730F489819A81FC01828D0F
S11332D08093B92C89819A81AC014E5F5F4F8981BB
S11332E09A81FC01828D282F30E06BE0629FC0013F
S11332F0639F900D1124885A934DBA010E947D0852
S113330089819A81FC01228D8091562C9091572CB1
S1133310FC01828D821718F481E08093BC2C00009C
S11333202896CDBFDEBFDF91CF910895CF93DF9371
S11333301F921F92CDB7DEB789839A832091BD2C4B
S113334089819A81FC0120838091B52C9091B62CBF
S1133350A091B72CB091B82C29813A81F9018183CD
S11333609283A383B48300000F900F90DF91CF91D9
S11333700895EF92FF920F931F93CF93DF93CDB7EE
S1133380DEB72D97CDBFDEBF8A879B876C877D878D
S1133390F091A200FF93F87FF093A2008091B52CE6
S11333A09091B62CA091B72CB091B82C8A839B83B2
S11333B0AC83BD838A859B85FC0181819281A38135
S11333C0B4812A813B814C815D8179018A01E81AAB
S11333D0F90A0A0B1B0BD801C7018E839F83A887A8
S11333E0B9878C859D85FC0180819181A281B381FF
S11333F08F3F9F4FAF4FBF4F11F4198254C08A853E
S11334009B85FC0190818091BD2C981799F08A8549
S11334109B85FC0121813281438154818A819B8176
S1133420AC81BD8182179307A407B50718F081E02A
S1133430898339C08C859D85FC012081318142813D
S113344053818E819F81A885B98582179307A4072C
S1133450B50700F58C859D85FC0120813181428171
S113346053818E819F81A885B98579018A01E81AE3
S1133470F90A0A0B1B0BD801C7012C853D85F901FC
S113348080839183A283B3838A859B850E94961946
S1133490198209C08C859D85FC01108211821282DB
S11334A0138281E08983FF91F093A20089812D9694
S11334B0CDBFDEBFDF91CF911F910F91FF90EF90B1
S11334C00895CF93DF93CDB7DEB781E08093BC2C12
S11334D00000DF91CF910895CF93DF931F921F9245
S11334E0CDB7DEB789839A830E94BA1A8091582C8B
S11334F0823010F00E94C70B0E940B23F5CFCF93AC
S1133500DF931F92CDB7DEB7198210C08981282FAF
S113351030E04BE0429FC001439F900D1124885A34
S1133520934D0E94300889818F5F8983898184301B
S113353068F384E89CE20E9430088FE89CE20E94D1
S113354030088EE99CE20E94300889EA9CE20E94DD
S1133550300884E89CE280939A2C90939B2C8FE80B
S11335609CE280939C2C90939D2C00000F90DF9103
S1133570CF910895CF93DF93CDB7DEB70000DF91ED
S1133580CF910895CF93DF931F921F92CDB7DEB7EB
S113359080919A2C90919B2CFC018081882361F46A
S11335A08FEF9FEFDC018093BF2C9093C02CA093EE
S11335B0C12CB093C22C1BC080919A2C90919B2C4F
S11335C0FC0187819085FC018085918589839A839C
S11335D089819A81FC0182819381A481B581809340
S11335E0BF2C9093C02CA093C12CB093C22C00008C
S11335F00F900F90DF91CF910895CF93DF931F9297
S1133600CDB7DEB78091BA2C882319F481E0898381
S113361008C08091C52C882319F482E0898301C0F5
S1133620198289810F90DF91CF910895EF92FF92D3
S11336300F931F93CF93DF9300D01F92CDB7DEB7C4
S11336408091562C9091572CFC0186859785A089F2
S1133650B18989839A83AB83BC836091562C709122
S1133660572C8091562C9091572CFC01828D882FD9
S113367090E0A0E0B0E024E030E040E050E07901E8
S11336808A01E81AF90A0A0B1B0BD801C701FB01CE
S113369086879787A08BB18B89819A81AB81BC8106
S11336A0BC01CD012496CDBFDEBFDF91CF911F9128
S11336B00F91FF90EF900895CF92DF92EF92FF92D7
S11336C00F931F93CF93DF93CDB7DEB72F97CDBF63
S11336D0DEBF6A837B838C839D832E833F834887ED
S11336E059870A871B87CC86DD86EE86FF86F09194
S11336F0A200FF93F87FF093A2008091562C909142
S1133700572CFC0183A58230A1F16091562C709155
S1133710572CFB0127A130A541A552A58A819B8185
S1133720AC81BD8180959095A095B095822393231B
S1133730A423B523FB0187A390A7A1A7B2A78091D7
S1133740562C9091572C21E0FC0123A78C859D8554
S1133750AE85BF85892B8A2B8B2B59F08C859D8553
S1133760AE85BF8541E0BC01CD010E940C1D0E94C5
S1133770C70BFF91F093A200F091A200FF93F87F92
S1133780F093A2008A859B85892B81F08091562C29
S11337909091572CFC0187A190A5A1A5B2A52A85DB
S11337A03B85F90180839183A283B3838091562C56
S11337B09091572CFC0183A5823011F019821CC012
S11337C06091562C7091572CFB0127A130A541A57F
S11337D052A58E819F81A885B98580959095A095E5
S11337E0B09582239323A423B523FB0187A390A739
S11337F0A1A7B2A781E089838091562C9091572C80
S1133800FC0113A6FF91F093A20089812F96CDBFEE
S1133810DEBFDF91CF911F910F91FF90EF90DF906A
S1133820CF900895EF92FF920F931F93CF93DF935E
S1133830CDB7DEB76097CDBFDEBF8E839F83488749
S113384059876A877B872C870D871E87EF86F88ABE
S113385081E089838E819F818A839B830E949F0953
S11338608C838D859E85892B71F08A819B81FC01D7
S113387087A190A5A1A5B2A52D853E85F9018083D8
S11338809183A283B3838A819B81FC0183A58D8369
S11338908A819B8122E0FC0123A78C85882F90E0FC
S11338A08230910531F18330910534F4009709F4A5
S11338B04FC0019739F04DC08330910561F10497F1
S11338C0B1F147C08A819B81FC0127A130A541A5A4
S11338D052A588859985AA85BB85822B932BA42B19
S11338E0B52B2A813B81F90187A390A7A1A7B2A791
S11338F030C08A819B81FC0187A190A5A1A5B2A5B6
S11339000196A11DB11D2A813B81F90187A390A7CE
S1133910A1A7B2A71EC02A813B8188859985AA8563
S1133920BB85F90187A390A7A1A7B2A712C08D8177
S1133930823061F02A813B8188859985AA85BB857F
S1133940F90187A390A7A1A7B2A703C0198201C058
S113395000008D81813009F04FC08091C52C8823EF
S113396051F58A819B8102960E9449098A819B8133
S1133970FC01928D8091B92C891730F48A819B8146
S1133980FC01828D8093B92C8A819B81AC014E5FAE
S11339905F4F8A819B81FC01828D282F30E06BE090
S11339A0629FC001639F900D1124885A934DBA0100
S11339B00E947D0808C08A819B810E96BC018EE915
S11339C09CE20E947D088A819B81FC01228D80916A
S11339D0562C9091572CFC01828D821768F48F85A8
S11339E09889892B31F08F85988921E0FC01208307
S11339F003C081E08093BC2C80EA90E02C81FC0120
S1133A00228389816096CDBFDEBFDF91CF911F9164
S1133A100F91FF90EF900895CF93DF93CDB7DEB76A
S1133A202D97CDBFDEBF69877A878B879C874D87AB
S1133A308091B52C9091B62CA091B72CB091B82C54
S1133A4089839A83AB83BC838091562C9091572CA5
S1133A5002960E94490989859A85AB85BC858F3F6A
S1133A609F4FAF4FBF4F71F48D85882359F08091DC
S1133A70562C9091572C0296BC0189EA9CE20E9434
S1133A807D0864C029813A814B815C8189859A854E
S1133A90AB85BC85820F931FA41FB51F8D839E83A6
S1133AA0AF83B8872091562C3091572C8D819E81FD
S1133AB0AF81B885F90182839383A483B5832D8173
S1133AC03E814F81588589819A81AB81BC812817B9
S1133AD039074A075B0778F48091562C9091572C4C
S1133AE09C012E5F3F4F80919C2C90919D2CB9019D
S1133AF00E94C8082BC08091562C9091572C9C0191
S1133B002E5F3F4F80919A2C90919B2CB9010E947B
S1133B10C8088091BF2C9091C02CA091C12CB09169
S1133B20C22C2D813E814F815885281739074A07B9
S1133B305B0760F48D819E81AF81B8858093BF2C33
S1133B409093C02CA093C12CB093C22C00002D964E
S1133B50CDBFDEBFDF91CF910895EF92FF920F9317
S1133B60CF93DF931F92CDB7DEB719820E943E2216
S1133B708091E02C9091E12C892B91F00F2EF2EEA4
S1133B80EF2EFCE2FF2EF02D03E020E030E048ECC5
S1133B9050E065E070E283EC9EE10E942E1289837E
S1133BA089810F90DF91CF910F91FF90EF9008954D
S1133BB0CF92DF92EF92FF920F931F93CF93DF93F5
S1133BC0CDB7DEB76797CDBFDEBF8B879C876D8788
S1133BD02E873F87488B598B0A8B1B8BCC8ADD8AB7
S1133BE0EE8AFF8A19828091E02C9091E12C892B36
S1133BF009F444C08D858A838E859F85A889B989F7
S1133C008B839C83AD83BE838B859C858F839887B0
S1133C108D85863034F50E94FD1A823099F4E09146
S1133C20E02CF091E12C8C899D89AE89BF89BE017D
S1133C306E5F7F4F00E09C01AD01CF010E94320E08
S1133C4089831CC08091E02C9091E12CBE016E5FB1
S1133C507F4F00E020E030E0A9010E94320E89830A
S1133C600DC08091E02C9091E12C4A895B89BE01C2
S1133C706E5F7F4F20E00E94F40E898389816796EE
S1133C80CDBFDEBFDF91CF911F910F91FF90EF90D9
S1133C90DF90CF900895CF92DF92EF92FF920F932F
S1133CA01F93CF93DF93CDB7DEB72B97CDBFDEBF86
S1133CB06C837D838E839F83288739874A875B87BC
S1133CC08091DC2C9091DD2CFC0187819085FC0196
S1133CD08085918589839A8389819A8102960E943D
S1133CE0490989819A81FC0182898130B1F58981F0
S1133CF09A81FC0126853785408951898C819D8173
S1133D00AE81BF81820F931FA41FB51FEC80FD807D
S1133D100E811F81288539854A855B85E981FA8171
S1133D206701780189019A01AC01BD01CF010E94AC
S1133D30E11F882391F08C819D81AE81BF81E9814F
S1133D40FA81C12CD12C760100E010E09C01AD0178
S1133D5060E0CF010E94D81D8B8389819A81FC0188
S1133D602589368989819A81F901199500002B9654
S1133D70CDBFDEBFDF91CF911F910F91FF90EF90E8
S1133D80DF90CF900895CF93DF93CDB7DEB7279719
S1133D90CDBFDEBF8E839F83CE0105960E945E1F3A
S1133DA0DC01CB0189839A83AB83BC832D81898118
S1133DB09A81AB81BC81422FBC01CD010E94E31EDC
S1133DC00E947A20E9CFEF92FF920F931F93CF9333
S1133DD0DF93CDB7DEB72A97CDBFDEBF6E837F8377
S1133DE0888799874A870E948515CE0105960E9487
S1133DF09C1FDC01CB0189839A83AB83BC838D81B7
S1133E00882309F04EC08A858823E1F42E813F81FE
S1133E104885598589819A81AB81BC818217930732
S1133E20A407B50778F00E94921529813A814B8145
S1133E305C818E819F81A885B985BC01CD010E94DA
S1133E404B1E31C08A85882359F08091DE2C9091D5
S1133E50DF2CFC01908181E0992309F080E08A87BE
S1133E602E813F814885598589819A81AB81BC81A6
S1133E7079018A01E81AF90A0A0B1B0BD801C70158
S1133E80E091E02CF091E12C2A85AC01BD01CF0139
S1133E900E94E0110E949215882329F40E94C70B06
S1133EA002C00E94921500002A96CDBFDEBFDF91AA
S1133EB0CF911F910F91FF90EF900895CF93DF93CF
S1133EC000D000D0CDB7DEB78D839E838091DC2CEB
S1133ED09091DD2CFC01908181E0992309F080E030
S1133EE0282F8D819E81FC0120838D819E81FC0180
S1133EF08081882389F48091DC2C9091DD2CFC0155
S1133F0087819085FC0180819181A281B38189831D
S1133F109A83AB83BC8304C019821A821B821C82DD
S1133F2089819A81AB81BC81BC01CD012696CDBF2C
S1133F30DEBFDF91CF910895CF93DF9300D000D0FF
S1133F40CDB7DEB78D839E830E942916DC01CB0199
S1133F5089839A83AB83BC838091E42C9091E52C74
S1133F60A091E62CB091E72C29813A814B815C81A8
S1133F70281739074A075B0740F40E9484218D8182
S1133F809E8121E0FC01208304C08D819E81FC017F
S1133F90108289819A81AB81BC818093E42C9093B7
S1133FA0E52CA093E62CB093E72C89819A81AB8110
S1133FB0BC81BC01CD012696CDBFDEBFDF91CF9180
S1133FC00895CF92DF92EF92FF920F931F93CF93B6
S1133FD0DF93CDB7DEB72F97CDBFDEBF8A839B8338
S1133FE04C835D836E837F83088719872A873B8789
S1133FF0CC86DD86EE86FF8619822A813B818C8100
S11340009D81AE81BF81F90182839383A483B583AB
S11340108A819B812A813B81FC01228733872C8101
S11340203D814E815F8188859985AA85BB858217EC
S11340309307A407B50740F1288539854A855B8530
S11340408C859D85AE85BF85281B390B4A0B5B0B80
S11340508A819B81FC0186859785A089B18928176F
S113406039074A075B0718F081E0898336C08A81E3
S11340709B819C012E5F3F4F8091DE2C9091DF2C21
S1134080B9010E94C80829C0288539854A855B85FD
S11340908C859D85AE85BF85281739074A075B0740
S11340A080F42C813D814E815F818C859D85AE8518
S11340B0BF85281739074A075B0718F081E0898311
S11340C00CC08A819B819C012E5F3F4F8091DC2C28
S11340D09091DD2CB9010E94C80889812F96CDBF2B
S11340E0DEBFDF91CF911F910F91FF90EF90DF9092
S11340F0CF900895CF92DF92EF92FF920F931F9388
S1134100CF93DF93CDB7DEB76597CDBFDEBFE0C0F9
S11341108A858823FCF4CE010A96019689839A83C2
S113412089819A81FC012081318189819A81FC01F4
S113413084819581A681B78149815A81FA010280DF
S1134140F381E02DEC8BFD8BAC01BD018C899D8945
S1134150F90119958A8588230CF4BAC08F8598894A
S11341608B839C838B819C81FC0184859585892B21
S113417029F08B819C8102960E944909CE014396C5
S11341800E949C1FDC01CB018D839E83AF83B88783
S11341908A85082E000C990B092E000CAA0BBB0B68
S11341A040E050E029E030E0841B950B28173907E4
S11341B008F48DC0FC018827E250FF4F8F4F0C9408
S11341C0CE3AEB84FC840D851E852B853C854D857C
S11341D05E858B819C81FC0186859785A089B18948
S11341E0820F931FA41FB51F2D813E814F815885D7
S11341F0EB81FC816701780189019A01AC01BD0161
S1134200CF010E94E11F882309F462C08B819C8145
S1134210FC01258936898B819C81F90119958B8153
S11342209C81FC018289813009F052C02B853C8538
S11342304D855E858B819C81FC0186859785A0894F
S1134240B189820F931FA41FB51FEB81FC81C12C80
S1134250D12C760100E010E09C01AD0160E0CF01BB
S11342600E94D81D898734C08B859C85AD85BE8509
S11342702B813C81F90186879787A08BB18B8B8139
S11342809C81FC0126853785408951898D819E81D9
S1134290AF81B885820F931FA41FB51FED80FE80E8
S11342A00F8118852D813E814F815885EB81FC81DA
S11342B06701780189019A01AC01BD01CF010E9417
S11342C0E11F06C08B819C810E94220801C000006E
S11342D08091E02C9091E12CBE01665F7F4F20E03D
S11342E030E0A9010E94540F882309F011CF000087
S11342F06596CDBFDEBFDF91CF911F910F91FF90E7
S1134300EF90DF90CF900895CF92DF92EF92FF92DB
S11343100F931F93CF93DF93CDB7DEB72D97CDBF08
S1134320DEBF82C08091DC2C9091DD2CFC01878162
S11343309085FC0180819181A281B38189839A83D4
S1134340AB83BC838091DC2C9091DD2CFC018781B4
S11343509085FC01808591858D839E838D819E81CE
S113436002960E9449098D819E81FC012589368926
S11343708D819E81F90119958D819E81FC0182892F
S1134380813009F051C08D819E81FC0126853785DD
S11343904089518989819A81AB81BC81820F931FA5
S11343A0A41FB51F8F839887A987BA872F81388563
S11343B049855A8589819A81AB81BC81821793078B
S11343C0A407B507F8F42D813E818F819885A985CE
S11343D0BA85F90182839383A483B5838D819E81F9
S11343E02D813E81FC01228733878D819E819C0132
S11343F02E5F3F4F8091DC2C9091DD2CB9010E94FF
S1134400C80812C089819A81AB81BC81ED81FE818B
S1134410C12CD12C760100E010E09C01AD0160E0DC
S1134420CF010E94D81D8B878091DC2C9091DD2CCC
S1134430FC018081882309F075CF8091DC2C909158
S1134440DD2C8C879D878091DE2C9091DF2C8093CE
S1134450DC2C9093DD2C8C859D858093DE2C9093B1
S1134460DF2C00002D96CDBFDEBFDF91CF911F91D1
S11344700F91FF90EF90DF90CF900895CF93DF934B
S1134480CDB7DEB7F091A200FF93F87FF093A200BE
S11344908091E02C9091E12C892BE9F486EC9CE24C
S11344A00E94300881ED9CE20E94300886EC9CE278
S11344B08093DC2C9093DD2C81ED9CE28093DE2CA8
S11344C09093DF2C40E069E085E00E94AD0D80937D
S11344D0E02C9093E12CFF91F093A2000000DF9177
S11344E0CF9108950F931F93CF93DF93CDB7DEB78A
S11344F06497CDBFDEBF8B879C876D877E872F87B0
S1134500388B498B5A8B0B8B1C8B8EEF8A838B8554
S11345109C858B839C838D859E858D839E838F85CF
S11345209889A989BA898F839887A987BA8780913E
S1134530E02C9091E12C4B895C89BE016E5F7F4F2A
S113454020E00E94F40E898389816496CDBFDEBF8A
S1134550DF91CF911F910F910895CF93DF93CDB742
S1134560DEB780E590E020E530E0F90120812160AC
S1134570FC01208380E590E0FC018181882F90E09C
S113458081709927892BB1F380E00E94E1038EE1C9
S11345900E94AA0360E080E00E94CA0343E060E056
S11345A080E40E94750380E590E020E530E0F901A5
S11345B020812860FC01208380E590E0FC0181815A
S11345C0882F90E088709927892BB1F364E080EC00
S11345D00E94920380E590E020E530E0F90120811B
S11345E02061FC01208360E080E00E94CA0380E532
S11345F090E0FC018181882F90E080719927892BBC
S1134600B1F384E00E94E10387E00E94AA03000062
S1134610DF91CF910895CF93DF93CDB7DEB700003C
S1134620DF91CF910895EF92FF920F93CF93DF9391
S1134630CDB7DEB70E94AD220E94682B0E94C82429
S11346400E94A10480931E2D90931F2D0F2EF6E23D
S1134650EF2EFDE2FF2EF02D01E020E030E04CE2F1
S113466051E06DE070E28BE898E20E942E120F2E6A
S1134670F8E2EF2EFDE2FF2EF02D02E020E030E024
S113468042ED50E06CE170E286E993E20E942E1262
S11346900F2EF0E2EF2EFDE2FF2EF02D01E020E0E0
S11346A030E04CE251E065E270E284E997E20E9476
S11346B02E120F2EF4E2EF2EFDE2FF2EF02D02E07B
S11346C020E030E048EC50E061E370E283EE93E2F6
S11346D00E942E120F2EF2E2EF2EFDE2FF2EF02D9D
S11346E003E020E030E048EC50E06CE370E282EF5D
S11346F094E20E942E120F2EFCE1EF2EFDE2FF2E1B
S1134700F02D02E020E030E04CE251E066E470E29B
S113471081E795E20E942E120E94391580E090E014
S1134720DF91CF910F91FF90EF900895CF92DF9298
S1134730EF92FF920F931F93CF93DF9300D000D09B
S1134740CDB7DEB78D839E8380EA96E021E0FC013D
S1134750218380EA96E021E0FC01248319821A82F5
S11347601B821C820F2EF5E0CF2ED12CE12CF12CD4
S1134770F02DCE0101968C012FEF3FEFA90160E0EF
S113478070E0CB010E945C1B89819A81AB81BC8162
S1134790892B8A2B8B2B31F380EA96E021E0FC01F4
S11347A0268364E670E080E090E00E94011480EAD1
S11347B096E021E0FC01258364E670E080E090E06F
S11347C00E940114CFCFCF93DF9300D000D0CDB798
S11347D0DEB78D839E830E94120219821A821B8285
S11347E01C8268EB7BE080E090E00E9401140E9450
S11347F02E0280911E2D90911F2D40E050E0BA01B1
S11348000E94FC05DC01CB0189839A83AB83BC83C2
S113481080E00E9420038130A1F480911E2D9091AC
S11348201F2D42E050E060E070E00E944706809156
S11348301E2D90911F2D40E150E060E070E00E9439
S1134840470681E00E942003813051F480911E2D9F
S113485090911F2D40E250E060E070E00E94470616
S113486082E00E9420038130A1F480911E2D90915A
S11348701F2D40E450E060E070E00E944706809104
S11348801E2D90911F2D40E150E060E070E00E94E9
S1134890470683E00E942003813051F480911E2D4D
S11348A090911F2D40E850E060E070E00E944706C0
S11348B080E00E9420038823A1F480911E2D909112
S11348C01F2D40E150E060E070E00E9447068091B7
S11348D01E2D90911F2D42E050E060E070E00E9498
S11348E0470681E00E9420038823A1F480911E2DB5
S11348F090911F2D41E050E060E070E00E94470677
S113490080911E2D90911F2D40E250E060E070E0F8
S11349100E94470682E00E9420038823A1F480912C
S11349201E2D90911F2D40E450E060E070E00E9445
S1134930470680911E2D90911F2D40E150E060E0CC
S113494070E00E94470683E00E942003882351F40C
S113495080911E2D90911F2D40E850E060E070E0A2
S11349600E94470680911E2D90911F2D40E050E03B
S1134970BA010E94FC05DC01CB0189839A83AB83D5
S1134980BC836AE070E080E090E00E9401142FCFC5
S1134990CF93DF93CDB7DEB780E498E020E438E02E
S11349A0F90120812560FC01208380E498E020E463
S11349B038E0F90126812160FC01268380E498E037
S11349C027E833E1FC0126A337A380EA90E020EA3C
S11349D030E0F90122812160FC0122830000DF9193
S11349E0CF910895CF92DF92EF92FF920F931F938E
S11349F0CF93DF931F921F92CDB7DEB71A8219822D
S1134A008981813041F419829091EE2C8A81890F39
S1134A108093EE2C1A82CE0102960F2EF2E3CF2E53
S1134A20D12CE12CF12CF02D8C012FEF3FEFA901BB
S1134A3060E070E0CB010E945C1B8983E1CF1F9290
S1134A400F9200903F000F92112400903B000F92B0
S1134A50EF92FF920F931F932F933F934F935F9384
S1134A606F937F938F939F93AF93BF93EF93FF9332
S1134A70CF93DF931F92CDB7DEB7198280912A2D91
S1134A80882F90E0A0E0B0E0E091222DF091232D5A
S1134A909E012F5F3F4F790100E010E022E0AC015E
S1134AA0BD01CF010E94121C00000F90DF91CF9135
S1134AB0FF91EF91BF91AF919F918F917F916F91F2
S1134AC05F914F913F912F911F910F91FF90EF9024
S1134AD00F9000923B000F9000923F000F901F90A8
S1134AE01895CF92DF92EF92FF920F93CF93DF93BB
S1134AF0CDB7DEB76697CDBFDEBF1B821C821D8299
S1134B001E821F82188619861A861B8681E0898375
S1134B101A828091262D9091272D0E942F14809126
S1134B201E2D90911F2D40E050E0BA010E94FC051B
S1134B30DC01CB0188879987AA87BB8788859985FB
S1134B40AA85BB8580789927AA27BB27892B8A2B1E
S1134B508B2B39F18981882321F18091202D90912B
S1134B60212D0E942F148091262D9091272D0E9493
S1134B70D11481E08A83198280911E2D90911F2D7A
S1134B8040E850E060E070E00E94FC0580911E2D3A
S1134B9090911F2D40E450E060E070E00E944706D1
S1134BA032C088859985AA85BB8580789927AA27EC
S1134BB0BB27892B8A2B8B2B31F18A81882319F10E
S1134BC08091262D9091272D0E942F148091202DC5
S1134BD09091212D0E94D1141A8281E089838091C1
S1134BE01E2D90911F2D40E850E060E070E00E947F
S1134BF0FC0580911E2D90911F2D40E450E060E053
S1134C0070E00E94470680911E2D90911F2D41E077
S1134C1050E060E070E00E94470680911E2D909164
S1134C201F2D0F2EF0E4CF2EF2E4DF2EFFE0EF2E47
S1134C30F12CF02D00E020E042E050E060E070E074
S1134C400E94C40480911E2D90911F2D40E050E0DD
S1134C50BA010E94FC05DC01CB0188879987AA87E9
S1134C60BB870E94B32D84E590E2892F8F9384E55E
S1134C7090E28F931F921F921F921F920E94C52D44
S1134C800F900F900F900F900F900F908091E82C41
S1134C909091E92CA091EA2CB091EB2C2B2F2F931F
S1134CA02A2F2F93292F2F938F9382E690E2892F17
S1134CB08F9382E690E28F93CE010C96292F2F9347
S1134CC08F930E945D3C8DB79EB70896CDBFDEBF23
S1134CD0CE010C96292F2F938F9387E690E2892F8C
S1134CE08F9387E690E28F931F921F921F9281E029
S1134CF08F930E94C52D8DB79EB70896CDBFDEBF9A
S1134D008091EC2C9091ED2C292F2F938F938FE68B
S1134D1090E2892F8F938FE690E28F93CE010C96C9
S1134D20292F2F938F930E945D3C0F900F900F902B
S1134D300F900F900F90CE010C96292F2F938F93E5
S1134D4082E790E2892F8F9382E790E28F931F92FC
S1134D501F921F9282E08F930E94C52D8DB79EB73C
S1134D600896CDBFDEBF8091EE2C882F90E0292FCE
S1134D702F938F938FE690E2892F8F938FE690E2A3
S1134D808F93CE010C96292F2F938F930E94493C29
S1134D900F900F900F900F900F900F90CE010C96E4
S1134DA0292F2F938F938CE790E2892F8F938CE791
S1134DB090E28F931F921F921F9283E08F930E9421
S1134DC0C52D8DB79EB70896CDBFDEBF8091E82C68
S1134DD09091E92CA091EA2CB091EB2C2BEC3FE0C4
S1134DE049E450E4BC01CD010E94EA341816E4F40D
S1134DF08091E82C9091E92CA091EA2CB091EB2CB5
S1134E0025EF3FE049E450E4BC01CD010E948B331F
S1134E10181654F080911E2D90911F2D48E050E0FB
S1134E2060E070E00E94470680911E2D90911F2D36
S1134E3040E050E0BA010E94FC05DC01CB01888708
S1134E409987AA87BB8788859985AA85BB8580723F
S1134E509927AA27BB27892B8A2B8B2BA1F5888519
S1134E609985AA85BB8588709927AA27BB27892B92
S1134E708A2B8B2B41F580911E2D90911F2D41E0A3
S1134E8050E060E070E00E94FC0580911E2D90913E
S1134E901F2D40E150E060E070E00E94FC0580912D
S1134EA01E2D90911F2D42E050E060E070E00E94C2
S1134EB0FC0580911E2D90911F2D44E050E060E090
S1134EC070E00E94470688859985AA85BB85807114
S1134ED09927AA27BB27892B8A2B8B2BF1F080914A
S1134EE01E2D90911F2D40E250E060E070E00E9482
S1134EF0FC0580911E2D90911F2D40E150E060E053
S1134F0070E00E94FC0580911E2D90911F2D44E0BD
S1134F1050E060E070E00E94470668EC70E080E0DA
S1134F2090E00E940114FBCDCF92DF92EF92FF92AA
S1134F300F93CF93DF93CDB7DEB72C97CDBFDEBFF2
S1134F408B879C8780E090E0A0E8BFE389839A8305
S1134F50AB83BC8383E090E0A0E0B0E08D839E83CC
S1134F60AF83B8871092EC2C1092ED2C80911E2DFB
S1134F7090911F2D40E050E0BA010E94FC05DC0135
S1134F80CB0189879A8789859A8580749927892B8B
S1134F9041F180E090E0A0E8BFE389839A83AB838A
S1134FA0BC8383E090E0A0E0B0E08D839E83AF8378
S1134FB0B8871092EC2C1092ED2C80911E2D9091BC
S1134FC01F2D48E050E060E070E00E94FC058091F5
S1134FD01E2D90911F2D40E450E060E070E00E948F
S1134FE0FC0589859A8581709927892B01F1809127
S1134FF01E2D90911F2D42E050E060E070E00E9471
S1135000470680911E2D90911F2D0F2EF0EACF2E72
S1135010F6E8DF2EEE24E394F12CF02D00E021E0FD
S113502044E050E060E070E00E94C4049FCF6D81D2
S11350307E818F8198850E943834DC01CB019C01EC
S1135040AD0160E070E080E89FE30E949033DC01F2
S1135050CB019C01AD0169817A818B819C810E9485
S11350601E33DC01CB0189839A83AB83BC838D819E
S11350709E81AF81B8850296A11DB11D8D839E834B
S1135080AF83B8876D817E818F8198850E94383483
S1135090DC01CB019C01AD0160E070E080E89FE39E
S11350A00E949033DC01CB019C01AD0169817A81BE
S11350B08B819C810E941F33DC01CB0189839A83FD
S11350C0AB83BC838D819E81AF81B8850296A11D7F
S11350D0B11D8D839E83AF83B88720E030E040E824
S11350E050E469817A818B819C810E94EF34DC01D8
S11350F0CB018093E82C9093E92CA093EA2CB093F5
S1135100EB2C8091EC2C9091ED2C01968093EC2C5F
S11351109093ED2C2BCFCF92DF92EF92FF920F93CF
S1135120CF93DF93CDB7DEB76497CDBFDEBF8B8B54
S11351309C8B80E090E0A0E8BFE389839A83AB83F3
S1135140BC8380E090E0A0E8BFE38F839887A987C1
S1135150BA8782E090E08D839E831092EC2C1092AB
S1135160ED2C80911E2D90911F2D40E050E0BA014E
S11351700E94FC05DC01CB018B879C878B859C8579
S113518080749927892B21F180E090E0A0E8BFE3A7
S11351908D879E87AF87B88B82E090E0898B9A8B4E
S11351A01092EC2C1092ED2C80911E2D90911F2DBD
S11351B048E050E060E070E00E94FC0580911E2D04
S11351C090911F2D40E450E060E070E00E94FC05E7
S11351D08B859C8581709927892B01F180911E2DE7
S11351E090911F2D42E050E060E070E00E9447067D
S11351F080911E2D90911F2D0F2EF0EACF2EF6E8F0
S1135200DF2EEE24E394F12CF02D00E021E044E0C5
S113521050E060E070E00E94C404A3CF8D819E81C1
S1135220092E000CAA0BBB0BBC01CD010E943A3421
S1135230DC01CB0120E030E040E050E4BC01CD01D2
S11352400E945C35DC01CB019C01AD0160E070E0A3
S113525080E89FE30E949033DC01CB019C01AD0107
S113526069817A818B819C810E941F33DC01CB018F
S113527089839A83AB83BC838D819E8101968D83C0
S11352809E838D819E81092E000CAA0BBB0BBC0151
S1135290CD010E943A34DC01CB0120E030E040E053
S11352A050E4BC01CD010E945C35DC01CB019C01C2
S11352B0AD0160E070E080E89FE30E949033DC0180
S11352C0CB019C01AD0169817A818B819C810E9413
S11352D01F33DC01CB0189839A83AB83BC838D812B
S11352E09E8101968D839E838D819E81092E000C63
S11352F0AA0BBB0BBC01CD010E943A34DC01CB01EB
S113530020E030E040E050E4BC01CD010E945C3577
S1135310DC01CB019C01AD0160E070E080E89FE31B
S11353200E949033DC01CB019C01AD0169817A813B
S11353308B819C810E941F33DC01CB0189839A837A
S1135340AB83BC838D819E8101968D839E8320E0F7
S113535030E040EC50E469817A818B819C810E9429
S1135360EF34DC01CB01BC01CD010E94B235DC017C
S1135370CB018F839887A987BA878F819885A98560
S1135380BA858093E82C9093E92CA093EA2CB093EF
S1135390EB2C8091EC2C9091ED2C01968093EC2CCD
S11353A09093ED2CDECE1F920F9200903F000F924F
S11353B0112400903B000F922F933F934F935F93E0
S11353C06F937F938F939F93AF93BF93EF93FF93C9
S11353D0CF93DF931F92CDB7DEB7198280912D2D25
S11353E090912E2D9E012F5F3F4F41E050E060E0F1
S11353F070E00E94B40760E080E09BE00E94030438
S113540080E09BE0FC01168200000F90DF91CF91B9
S1135410FF91EF91BF91AF919F918F917F916F9188
S11354205F914F913F912F910F9000923B000F900D
S113543000923F000F901F901895CF92DF92EF9249
S1135440FF920F93CF93DF9300D01F92CDB7DEB7B7
S113545069837A838B839C8389819A81AB81BC81A4
S11354600297A105B10540F482E090E0A0E0B0E02D
S113547089839A83AB83BC8380E09BE021E0FC01B9
S1135480268380E09BE0FC0110A211A260E080E092
S11354909BE00E941F0489819A81AB81BC818E3F6D
S11354A09F4FA105B10598F420E03BE089819A81E2
S11354B0AB81BC81B695A79597958795F90186A38D
S11354C097A365E080E09BE00E9403041FC08981EC
S11354D09A81AB81BC8180349244AF40B105B0F471
S11354E020E03BE089819A81AB81BC81689414F807
S11354F0B695A795979587951694D1F7F90186A344
S113550097A367E080E09BE00E94030480912D2D27
S113551090912E2D0F2EF4EFCF2EDD24D394E12C79
S1135520F12CF02D00E021E041E050E060E070E07B
S11355300E94C40400002496CDBFDEBFDF91CF914A
S11355400F91FF90EF90DF90CF900895CF93DF936A
S11355501F92CDB7DEB7898389818F708983898152
S11355608295807F898380E096E020E036E0F9012F
S1135570348129812F602323FC01248380E096E079
S113558020E036E0F90134812981232BFC012483B6
S113559000000F90DF91CF910895CF93DF931F9276
S11355A0CDB7DEB789838981882331F080E696E020
S11355B021E0FC01258305C080E696E021E0FC01A2
S11355C0268300000F90DF91CF910895CF93DF934E
S11355D01F92CDB7DEB789838981882331F080E6B5
S11355E096E022E0FC01258305C080E696E022E0F7
S11355F0FC01268300000F90DF91CF910895CF9393
S1135600DF931F92CDB7DEB789838981882331F078
S113561080E696E024E0FC01258305C080E696E060
S113562024E0FC01268300000F90DF91CF910895C0
S1135630CF93DF93CDB7DEB781E00E94FF2A61E00C
S113564070E080E090E00E941D2A80E00E94FF2A22
S11356500000DF91CF910895CF93DF931F92CDB7D0
S1135660DEB78983898182958F700E94A62A80E0A3
S11356700E94CD2A80E00E94E62A0E94182B89818C
S11356808F700E94A62A0E94182B00000F90DF91B1
S1135690CF910895CF93DF931F92CDB7DEB789835F
S11356A0898182958F700E94A62A81E00E94CD2A6A
S11356B080E00E94E62A0E94182B89818F700E9444
S11356C0A62A0E94182B00000F90DF91CF91089515
S11356D0EF92FF920F93CF93DF93CDB7DEB780E0C5
S11356E096E020E1FC01218380E096E020E2FC01C9
S11356F0218380E096E020E4FC01218380E096E0B1
S113570020E8FC01218380E696E021E0FC0121836E
S113571080E696E022E0FC01218380E696E024E026
S1135720FC01218380E096E020E036E0F901248149
S11357302F70FC01248380E696E020E636E0F90130
S11357402481287FFC01248340E066E188E00E94F4
S1135750AD0D80932B2D90932C2D0E94A10480934A
S11357602D2D90932E2DE12CF12C01E020E030E042
S11357704EE551E065E870E286E69CE20E942E1256
S11357800000DF91CF910F91FF90EF900895CF9398
S1135790DF9300D01F92CDB7DEB789839A836B83E2
S11357A07C8389819A818130910589F082309105C9
S11357B01CF4892B39F01AC08230910569F00397E3
S11357C081F014C08B8180580E942C2B0FC08B81D8
S11357D080540E942C2B0AC08B818C560E942C2B47
S11357E005C08B818C520E942C2B000067E270E074
S11357F080E090E00E941D2A00002496CDBFDEBF09
S1135800DF91CF910895CF93DF931F92CDB7DEB789
S1135810898389810E944A2B6BE270E080E090E0EA
S11358200E941D2A00000F90DF91CF910895CF931D
S1135830DF9300D01F92CDB7DEB78B839C83198290
S11358401A8219C089819A812B813C81820F931F0E
S1135850FC0180818823A1F089819A812B813C817C
S1135860820F931FFC0180810E94032C89819A81FD
S1135870019689839A8389819A8144971CF301C094
S1135880000000002496CDBFDEBFDF91CF910895C4
S1135890CF93DF9300D000D0CDB7DEB789839A834E
S11358A06B837C834D835E832B813C8189819A81C8
S11358B0B9010E94C72B8D819E810E94172C000084
S11358C02696CDBFDEBFDF91CF910895CF93DF93AE
S11358D0CDB7DEB7C057D109CDBFDEBF9E01215978
S11358E03F4FF9018083918319821A821B821C82A3
S11358F01D821E8226C01F8218861AC02D813E81F9
S113590044E1429FC001439F900D11249E012F5FEB
S11359103F4F280F391F8F819885820F931F089658
S113592020E2FC0120838F81988501968F839887DC
S11359308F819885449714F38D819E8101968D8380
S11359409E838D819E810497B4F260E47CE980E0BB
S113595090E00E941D2A83E00E94A62A68E873E171
S113596080E090E00E941D2A0E94182B60EA70E0FB
S113597080E090E00E941D2A0E94182B60EA70E0EB
S113598080E090E00E941D2A0E94182B60EA70E0DB
S113599080E090E00E941D2A82E00E94A62A0E94D4
S11359A0182B88E20E942C2B80E10E942C2B8CE087
S11359B00E942C2B86E00E942C2B68EC70E080E087
S11359C090E00E94011480912D2D90912E2D40E0A5
S11359D050E0BA010E94FC05DC01CB01892B8A2B23
S11359E08B2B09F496C080912D2D90912E2D42E0A1
S11359F050E060E070E00E94FC0519821A8226C023
S1135A001B821C821AC029813A8144E1429FC00151
S1135A10439F900D11249E012F5F3F4F280F391F84
S1135A208B819C81820F931F089620E2FC012083C6
S1135A308B819C8101968B839C838B819C81449771
S1135A4014F389819A81019689839A8389819A8141
S1135A500497B4F25EC080912B2D90912C2DBE0141
S1135A60675A7F4F2FEF3FEFA9010E94540F8823FD
S1135A7009F44FC019821A8232C0CE01875A9F4F4F
S1135A80FC018081482F50E0CE01875A9F4FFC01D2
S1135A908181282F30E089819A81820F931FBE0172
S1135AA0675A7F4F29813A81260F371F2E5F3F4F58
S1135AB0F901608174E1749F9001759F300D112488
S1135AC0AE014F5F5F4F240F351F820F931F08965F
S1135AD0FC01608389819A81019689839A83CE012E
S1135AE0875A9F4FFC018181282F30E089819A8158
S1135AF0820F931F44976CF49E01275A3F4F89816C
S1135B009A81820F931F0296FC018081882309F0F9
S1135B10B4CF80912B2D90912C2D0E9414108823AA
S1135B2009F099CF19821A8219C09E01275F3F4F4D
S1135B3049815A8164E1649FC001659F900D1124DD
S1135B40280F391F89819A81A90160E070E00E94C1
S1135B50482C89819A81019689839A8389819A81C3
S1135B6004971CF32ACFCF93DF93CDB7DEB7809190
S1135B702D2D90912E2D42E050E060E070E00E94C7
S1135B8047060000DF91CF910895CF93DF931F92D2
S1135B901F92CDB7DEB7CE010E9689839A832981F1
S1135BA03A814C855D856A857B85888599850E94C7
S1135BB0DF2D00000F900F90DF91CF9108950F9388
S1135BC0CF93DF93CDB7DEB7EC97CDBFDEBF8DAB00
S1135BD09EAB6FAB78AF49AF5AAF2BAF3CAF1982D6
S1135BE01A821B821C820BC08B819C818151934D34
S1135BF0FC0110828B819C8101968B839C838B8119
S1135C009C8144978CF31D821E820BC08D819E81E2
S1135C108D5F924DFC0110828D819E8101968D8352
S1135C209E838D819E8144978CF3BEC18D8985327C
S1135C3009F0A0C189AD9AAD9C012F5F3F4F29AFF8
S1135C403AAFFC0180818D8B8D89882F90E0853659
S1135C50910509F446C18636910554F483369105BD
S1135C6001F1843691050CF070C0859769F09CC1F0
S1135C708337910571F18837910509F4A8C08636F8
S1135C80910509F4E6C090C189819A818D5F924D96
S1135C9025E2FC01208389819A81019689839A8374
S1135CA083C18BAD9CAD9C012E5F3F4F2BAF3CAFAE
S1135CB0FC01808191818E8B89819A818D5F924DC7
S1135CC02E89FC01208389819A81019689839A8394
S1135CD06BC18BAD9CAD9C012E5F3F4F2BAF3CAF96
S1135CE0FC01808191818F8B988F1F82188617C049
