:100000000C94E4010C940E020C940E020C940E025B
:100010000C940E020C940E020C940E020C940E0220
:100020000C940E020C940E020C940E020C940E0210
:100030000C940E020C940E020C946F0C0C940E0295
:100040000C940E020C940E020C940E020C940E02F0
:100050000C94D2240C940E020C940E020C940E02FA
:100060000C940E020C940E020C940E020C940E02D0
:100070000C940E020C940E020C940E020C940E02C0
:100080000C940E020C940E020C940E020C940E02B0
:100090000C940E020C940E020C940E020C940E02A0
:1000A0000C940E020C940E020C940E020C940E0290
:1000B0000C940E020C940E020C940E020C940E0280
:1000C0000C940E020C940E020C940E020C940E0270
:1000D0000C940E020C940E020C940E020C940E0260
:1000E0000C940E020C940E020C940E020C940E0250
:1000F0000C940E020C940E020C940E020C940E0240
:100100000C940E020C940E020C940E020C940E022F
:100110000C940E020C940E020C940E020C940E021F
:100120000C940E020C940E020C940E020C940E020F
:100130000C940E020C940E020C940E020C940E02FF
:100140000C940E020C940E020C940E020C940E02EF
:100150000C940E020C940E020C940E020C940E02DF
:100160000C940E020C940E020C940E020C940E02CF
:100170000C940E020C940E020C940E020C940E02BF
:100180000C940E020C940E020C940E020C940E02AF
:100190000C940E020C940E020C940E020C940E029F
:1001A0000C940E020C940E020C940E020C940E028F
:1001B0000C943F2A0C940E020C940E020C940E0226
:1001C0000C940E020C940E020C940E020C940E026F
:1001D0000C940E020C940E020C940E020C940E025F
:1001E0000C940E020C940E020C940E020C940E024F
:1001F0000C940E020C940E020C940E02DF20DF20F1
:10020000DF20662132216021DF20DF2066213221BC
:1002100007634236B79BD8A71A39685618AEBAABEF
:10022000558C1D3CB7CC5763BD6DEDFD753EF61783
:100230007231BF000000803F08000000BE922449D8
:10024000123EABAAAA2ABECDCCCC4C3E0000008008
:10025000BEABAAAAAA3E00000000BF000000803F7B
:100260000000000000084178D3BB4387D1133D193B
:100270000E3CC3BD4282AD2B3E68EC8276BED98F68
:10028000E1A93E4C80EFFFBE01C4FF7F3F000000AC
:1002900000000C9467270C9492240C9460210C9419
:1002A000C6280C94D22C0C946A1A0C9424250C9415
:1002B00083230C9466210C94C11E0C944D070C945E
:1002C00032210C94DF206E616E00696E6600004082
:1002D0007A10F35A00A0724E18090010A5D4E80055
:1002E00000E87648170000E40B54020000CA9A3B6D
:1002F000000000E1F50500008096980000004042F3
:100300000F000000A0860100000010270000000080
:10031000E803000000006400000000000A00000084
:1003200000000100000000002C76D888DC674F0830
:1003300023DFC1DFAE59E1B1B796E5E3E453C63A36
:10034000E651997696E8E6C28426EB898C9B62EDAD
:10035000407C6FFCEFBC9C9F40F2BAA56FA5F49067
:10036000055A2AF75C936B6CF9676DC11BFCE0E4DE
:100370000D47FEF520E6B500D0ED902E0300943534
:1003800077050080841E080000204E0A000000C887
:100390000C333333330F986E12831141EF8D2114D8
:1003A000893BE65516CFFEE6DB18D1844B381BF7A8
:1003B0007C1D901DA4BBE424203284725E22810047
:1003C000C9F124ECA1E53D2711241FBECFEFCDBF1D
:1003D000DFE3DEBF00E00CBFE6E3FDE28AEA90E483
:1003E0008193E030F907E0F3000010E2A0E0B0E212
:1003F000E2E0FAE700E00BBF02C007900D92A839D7
:10040000B107D9F72DE2A8E9B0E201C01D92A633E9
:10041000B207E1F70E9411230C94FF3C0C940000FA
:10042000CF93DF93CDB7DEB780EA96E020E1FC0101
:10043000228380EA96E020E2FC01228380EA96E0B3
:1004400020E4FC01228380EA96E020E8FC0122837C
:100450000000DF91CF910895CF93DF93CDB7DEB742
:1004600080EA96E0FC018085882F90E080719927D2
:100470009595879595958795959587959595879564
:10048000892B89F4809198209091992080369A4EFA
:1004900020F5809198209091992001968093982042
:1004A000909399201AC080919820909199200B9751
:1004B00068F08091982090919920C39718F010923D
:1004C000202D07C081E08093202D03C082E080931F
:1004D000202D109298201092992080EA96E0FC013D
:1004E0008085882F90E080729927959587959595BE
:1004F0008795959587959595879595958795892B5A
:1005000089F480919A2090919B2080369A4E20F514
:1005100080919A2090919B20019680939A209093AD
:100520009B201AC080919A2090919B200B9768F095
:1005300080919A2090919B20C39718F01092212DC2
:1005400007C081E08093212D03C082E08093212D9C
:1005500010929A2010929B2080EA96E0FC01808500
:10056000882F90E080749927082E892F000C881F0F
:10057000990B000C881F991F892B89F480919C206E
:1005800090919D2080369A4E20F580919C209091EC
:100590009D20019680939C2090939D201AC080916D
:1005A0009C2090919D200B9768F080919C209091C9
:1005B0009D20C39718F01092222D07C081E08093F0
:1005C000222D03C082E08093222D10929C20109255
:1005D0009D2080EA96E0FC01808588238CF0809144
:1005E0009E2090919F2080369A4E20F580919E20EB
:1005F00090919F20019680939E2090939F201AC0F7
:1006000080919E2090919F200B9768F080919E2072
:1006100090919F20C39718F01092232D07C081E07E
:100620008093232D03C082E08093232D10929E207F
:1006300010929F200000DF91CF910895CF93DF9318
:100640001F92CDB7DEB789838981882F90E08130F2
:10065000910579F0823091051CF4892B39F012C094
:100660008230910549F0039751F00CC08091202D04
:100670000AC08091212D07C08091222D04C0809155
:10068000232D01C082E00F90DF91CF9108950F9349
:10069000CF93DF9300D000D0CDB7DEB78C839D839E
:1006A0006E838FE390E0FC0180818B83F8948C81D2
:1006B0009D8189839A838BE390E0FC01108289817C
:1006C0009A812E81FC0108ED04BF20838FE390E026
:1006D0002B81FC01208300002696CDBFDEBFDF9179
:1006E000CF910F910895CF93DF9300D0CDB7DEB7B0
:1006F00089836A834B8380E590E02A81222311F06D
:1007000020E201C020E03981322B2B81232BFC0118
:10071000228300002396CDBFDEBFDF91CF910895E5
:10072000CF93DF931F921F92CDB7DEB789836A8381
:100730008A818F718A8380E590E039812A81232B19
:10074000FC01258300000F900F90DF91CF91089559
:10075000CF93DF931F921F92CDB7DEB78A8380E5D8
:1007600090E020E530E0F9012081322F2A812095A8
:100770002323FC01208380E590E0FC0190818A81A5
:100780008923898389810F900F90DF91CF910895FC
:10079000CF93DF9300D0CDB7DEB78A836B839A8186
:1007A0008B81892B8983698181E490E00E944703D2
:1007B00000002396CDBFDEBFDF91CF910895CF9388
:1007C000DF931F921F92CDB7DEB78A8380E490E05B
:1007D000FC018081982F987F8A81892B8983698188
:1007E00080E490E00E94470380E490E0FC01908167
:1007F0008A818923898389810F900F90DF91CF911E
:100800000895CF93DF9300D0CDB7DEB789839A8365
:100810006B8389819A81FC018081982F907F8B81E5
:10082000892B282F89819A81FC012083000023963F
:10083000CDBFDEBFDF91CF910895CF93DF9300D07E
:10084000CDB7DEB789839A836B8389819A81FC0156
:100850008181982F987F8B81892B282F89819A817C
:10086000FC01218300002396CDBFDEBFDF91CF9135
:100870000895CF93DF9300D0CDB7DEB789839A83F5
:100880006B8389819A81FC018681982F9C7F8B8163
:10089000892B282F89819A81FC01268300002396C9
:1008A000CDBFDEBFDF91CF910895CF93DF9300D00E
:1008B0001F92CDB7DEB789839A836B837C838BE2EB
:1008C0000E94690400002496CDBFDEBFDF91CF9166
:1008D0000895CF93DF931F921F92CDB7DEB78A831F
:1008E0008A818B3219F481E089830EC08A818C322F
:1008F00019F482E0898308C08A818F3219F483E079
:10090000898302C084E089830E948C0400000F90D8
:100910000F90DF91CF910895CF93DF93CDB7DEB7DE
:10092000000084E390E028EDFC01208388E790E05C
:1009300021E0FC0121830000DF91CF910895CF9346
:10094000DF931F921F92CDB7DEB780E190E00E9447
:10095000DC0789839A8389819A81892B61F0898157
:100960009A81FC01108211821282138289819A81FC
:1009700004960E942E0889819A810F900F90DF9132
:10098000CF910895CF92DF92EF92FF920F931F9332
:10099000CF93DF93CDB7DEB76D97CDBFDEBF8A8B28
:1009A0009B8B4C8B5D8B6E8B7F8B288F098FCA8EB8
:1009B000DB8EEC8EFD8E8A899B8989879A871D82C2
:1009C0001E821F8218861B860E94831589859A8540
:1009D000FC0180819181A281B3818C879D87AE8744
:1009E000BF872C893D894E895F898C859D85AE8521
:1009F000BF85098DBC01CD010E946B07888B88895A
:100A0000882359F18C859D85AE85BF8589839A831E
:100A1000AB83BC831A8E1B8E1C8E1D8E888D882303
:100A200009F465C089859A85FC0120813181428164
:100A300053818C899D89AE89BF8980959095A095B9
:100A4000B09582239323A423B52329853A85F90100
:100A500080839183A283B3834AC08A8D9B8DAC8DA2
:100A6000BD8D892B8A2B8B2B59F48C859D85AE856A
:100A7000BF8589839A83AB83BC8381E08B8737C032
:100A8000888D882349F08D819E81AF81B885B160C2
:100A90008D839E83AF83B887898D882349F08D81AC
:100AA0009E81AF81B885B4608D839E83AF83B88704
:100AB0002C893D894E895F898D819E81AF81B88562
:100AC000822B932BA42BB52B29853A85F9013496DB
:100AD0002A8D3B8D4C8D5D8D89019A01AC01BD0144
:100AE000CF010E94561819821A821B821C820E9412
:100AF0009015898B8A8D9B8DAC8DBD8D892B8A2B12
:100B00008B2B09F465C08989882311F40E94C50BD9
:100B10000E94141BDC01CB0189839A83AB83BC83C5
:100B200089819A81AB81BC8188279927AA27B270D5
:100B3000892B8A2B8B2B09F042C0F091A200FF93E6
:100B4000F87FF093A20089859A85FC0180819181CC
:100B5000A281B38189839A83AB83BC832C893D892D
:100B60004E895F8989819A81AB81BC81098DBC01E5
:100B7000CD010E946B078823E9F0888D8823D1F08E
:100B800089859A85FC0120813181428153818C893C
:100B90009D89AE89BF8980959095A095B095822357
:100BA0009323A423B52329853A85F9018083918372
:100BB000A283B38381E08B87FF91F093A2008981A8
:100BC0009A81AB81BC81BB2789839A83AB83BC8329
:100BD00089819A81AB81BC81BC01CD016D96CDBF6D
:100BE000DEBFDF91CF911F910F91FF90EF90DF90CB
:100BF000CF900895CF93DF93CDB7DEB72C97CDBFBD
:100C0000DEBF8F83988749875A876B877C878F8160
:100C1000988589839A83F091A200FF93F87FF093DF
:100C2000A20089819A81FC0180819181A281B38196
:100C30008B839C83AD83BE8389819A81FC01208153
:100C400031814281538189859A85AB85BC858095A8
:100C50009095A095B09582239323A423B523298151
:100C60003A81F90180839183A283B383FF91F0934A
:100C7000A2008B819C81AD81BE81BC01CD012C96EF
:100C8000CDBFDEBFDF91CF910895CF93DF93CDB776
:100C9000DEB76D97CDBFDEBF888F998F4A8F5B8F90
:100CA0006C8F7D8F1B821C821D821E82888D998D88
:100CB000888799871F828885998504968A879B876C
:100CC0008A859B8503968C879D870E9483158A85DC
:100CD0009B85FC018781908589839A838885998586
:100CE000FC0120813181428153818A8D9B8DAC8DA5
:100CF000BD8D822B932BA42BB52B28853985F9012B
:100D000080839183A283B38395C089819A81FC01FA
:100D1000848195818E879F8789819A81FC0180815A
:100D20009181A281B381888B998BAA8BBB8B1F8207
:100D300088899989AA89BB8988279927AA278C8BB2
:100D40009D8BAE8BBF8B88899989AA89BB89BB276C
:100D5000888B998BAA8BBB8B8C899D89AE89BF8927
:100D600088279927AA27B470892B8A2B8B2BB1F45B
:100D700088859985FC012081318142815381888950
:100D80009989AA89BB8982239323A423B523892B1C
:100D90008A2B8B2BE9F081E08F831AC08885998597
:100DA000FC01208131814281538188899989AA89F6
:100DB000BB89282339234A235B2388899989AA89F7
:100DC000BB89281739074A075B0711F481E08F8335
:100DD0008F81882359F18C899D89AE89BF898827A5
:100DE0009927AA27B170892B8A2B8B2B81F02B8115
:100DF0003C814D815E8188899989AA89BB89822B32
:100E0000932BA42BB52B8B839C83AD83BE838885CA
:100E10009985FC0180819181A281B381B260298191
:100E20003A81AC01BD01C9010E9431198E859F85AF
:100E300089839A8329813A818C859D852817390772
:100E400009F063CF88859985FC0120813181428139
:100E500053818B819C81AD81BE8180959095A095B9
:100E6000B09582239323A423B52328853985F901DE
:100E700080839183A283B3830E949015888599858E
:100E8000FC0180819181A281B381BC01CD016D966D
:100E9000CDBFDEBFDF91CF910895CF93DF9300D018
:100EA00000D0CDB7DEB789839A834B835C836D8393
:100EB0007E838B819C81AD81BE8129813A81AC0189
:100EC000BD01C9010E94450600002696CDBFDEBFC8
:100ED000DF91CF9108950F93CF93DF93CDB7DEB716
:100EE0002A97CDBFDEBF6A837B838C839D832E834D
:100EF0003F83488759870A8719828A85882399F40E
:100F00002A813B814C815D818E819F81A885B98535
:100F100082239323A423B523892B8A2B8B2BD1F0F7
:100F200081E0898317C02A813B814C815D818E815C
:100F30009F81A885B985282339234A235B238E8185
:100F40009F81A885B985281739074A075B0711F4DF
:100F500081E0898389812A96CDBFDEBFDF91CF9161
:100F60000F9108950F931F93CF93DF93CDB7DEB703
:100F70002997CDBFDEBF8A839B834C835D836E83BD
:100F80007F8328873987288539858C819D81AE812B
:100F9000BF816A817B8189019C01AD018DE497E06D
:100FA0000E947022898389812996CDBFDEBFDF919F
:100FB000CF911F910F910895CF93DF9300D01F928F
:100FC000CDB7DEB78B839C8319821A820E9483156A
:100FD0002091582C3091592C8B819C81820F931F2A
:100FE000883B9B4018F52091582C3091592C8B81CF
:100FF0009C81280F391F8091582C9091592C821771
:101000009307A0F48091582C9091592C80569F4DB5
:1010100089839A832091582C3091592C8B819C8103
:10102000820F931F8093582C9093592C0E949015F7
:1010300089819A812496CDBFDEBFDF91CF9108953B
:10104000CF93DF931F921F92CDB7DEB789839A8328
:1010500000000F900F90DF91CF910895CF93DF9311
:101060001F921F92CDB7DEB789839A8389819A81B7
:101070009C012D5F3F4F89819A81FC01218332833E
:1010800029813A818FEF9FEFDC01F90183839483FB
:10109000A583B68389819A819C012D5F3F4F898109
:1010A0009A81FC012783308789819A819C012D5F79
:1010B0003F4F89819A81FC012187328789819A81FA
:1010C000FC01108200000F900F90DF91CF910895E6
:1010D000CF93DF931F921F92CDB7DEB789839A8398
:1010E00089819A81FC011286138600000F900F906F
:1010F000DF91CF910895CF93DF9300D000D0CDB78B
:10110000DEB78B839C836D837E838B819C81FC0106
:101110008181928189839A838D819E8129813A81FF
:10112000FC012483358389819A81FC0126813781E2
:101130008D819E81FC012683378389819A81FC0100
:10114000868197812D813E81FC01248335838981AD
:101150009A812D813E81FC01268337838D819E817A
:101160002B813C81FC01228733878B819C81FC0190
:10117000808121E0280F8B819C81FC01208300006D
:101180002696CDBFDEBFDF91CF910895CF93DF9339
:10119000CDB7DEB72A97CDBFDEBF8F83988769872B
:1011A0007A8789859A85FC0180819181A281B381AA
:1011B0008B839C83AD83BE838B819C81AD81BE81FB
:1011C0008F3F9F4FAF4FBF4F41F48F819885FC01F8
:1011D0008185928589839A8320C08F819885039623
:1011E00089839A8307C089819A81FC0184819581D2
:1011F00089839A8389819A81FC0184819581FC018C
:1012000020813181428153818B819C81AD81BE815E
:1012100082179307A407B50730F789819A81FC01EB
:101220002481358189859A85FC01248335838985CC
:101230009A85FC018481958129853A85FC01268364
:10124000378389859A8529813A81FC0126833783F2
:1012500089819A8129853A85FC0124833583898592
:101260009A852F813885FC01228733878F81988565
:10127000FC01808121E0280F8F819885FC0120836B
:1012800000002A96CDBFDEBFDF91CF910895CF93A6
:10129000DF9300D01F92CDB7DEB78B839C838B8109
:1012A0009C81FC018285938589839A838B819C81B3
:1012B000FC01848195812B813C81F9012681378154
:1012C000FC01268337838B819C81FC018681978179
:1012D0002B813C81F90124813581FC0124833583F4
:1012E00089819A81FC01218132818B819C8128171F
:1012F000390751F48B819C81FC01268137818981DA
:101300009A81FC01218332838B819C81FC011286AE
:10131000138689819A81FC0180812FEF280F8981B2
:101320009A81FC01208389819A81FC018081249625
:10133000CDBFDEBFDF91CF9108951F93CF93DF9391
:10134000CDB7DEB780EA90E0FC01128180EA90E040
:1013500020EA30E0F9012281287FFC012283812FDD
:10136000DF91CF911F910895CF93DF93CDB7DEB773
:101370002A97CDBFDEBF8D839E836F837887498791
:101380005A878D819E8121E1FC0120838D819E8180
:1013900001978D839E838D819E8122E2FC012083B3
:1013A0008D819E8101978D839E838D819E8123E314
:1013B000FC0120838D819E8101978D839E838F8187
:1013C0009885CC01A0E0B0E089839A83AB83BC838D
:1013D00029818D819E81FC0120838D819E810197D1
:1013E0008D839E8389819A81AB81BC81892F9A2FBD
:1013F000AB2FBB2789839A83AB83BC8329818D81E3
:101400009E81FC0120838D819E8101978D839E8327
:1014100089819A81AB81BC81892F9A2FAB2FBB2701
:1014200089839A83AB83BC8329818D819E81FC0152
:1014300020838D819E8101978D839E838D819E81E6
:1014400021E3FC0120838D819E8101978D839E8302
:101450008D819E8120E8FC0120838D819E810197F2
:101460008D839E838D819E8127E8FC0120838D8161
:101470009E8101978D839E838D819E81FC011082C8
:101480008D819E8101978D839E838D819E81FC013C
:1014900010828D819E8101978D839E838D819E8197
:1014A00022E0FC0120838D819E8101978D839E83A4
:1014B0008D819E8123E0FC0120838D819E81019797
:1014C0008D839E838D819E8124E0FC0120838D810C
:1014D0009E8101978D839E838D819E8125E0FC01F5
:1014E00020838D819E8101978D839E838D819E8136
:1014F00026E0FC0120838D819E8101978D839E8350
:101500008D819E8127E0FC0120838D819E81019742
:101510008D839E838D819E8128E0FC0120838D81B7
:101520009E8101978D839E838D819E8129E0FC01A0
:1015300020838D819E8101978D839E838D819E81E5
:1015400020E1FC0120838D819E8101978D839E8304
:101550008D819E8121E1FC0120838D819E810197F7
:101560008D839E838D819E8122E1FC0120838D816C
:101570009E8101978D839E838D819E8123E1FC0155
:1015800020838D819E8101978D839E838D819E8195
:1015900024E1FC0120838D819E8101978D839E83B0
:1015A0008D819E8125E1FC0120838D819E810197A3
:1015B0008D839E838D819E8126E1FC0120838D8118
:1015C0009E8101978D839E838D819E8127E1FC0101
:1015D00020838D819E8101978D839E838D819E8145
:1015E00028E1FC0120838D819E8101978D839E835C
:1015F0008D819E8129E1FC0120838D819E8101974F
:101600008D839E838D819E8120E2FC0120838D81CC
:101610009E8101978D839E838D819E8121E2FC01B5
:1016200020838D819E8101978D839E838D819E81F4
:1016300022E2FC0120838D819E8101978D839E8310
:101640008D819E8123E2FC0120838D819E81019703
:101650008D839E8389859A85CC01A0E0B0E0898343
:101660009A83AB83BC8329818D819E81FC01208379
:101670008D819E8101978D839E8389819A81AB8123
:10168000BC81892F9A2FAB2FBB2789839A83AB8389
:10169000BC8329818D819E81FC0120838D819E8167
:1016A00001978D839E838D819E8126E2FC0120839C
:1016B0008D819E8101978D839E838D819E8127E2FE
:1016C000FC0120838D819E8101978D839E838D8176
:1016D0009E8128E2FC0120838D819E8101978D836C
:1016E0009E838D819E8129E2FC0120838D819E81D4
:1016F00001978D839E838D819E8120E3FC01208351
:101700008D819E8101978D839E838D819E812A96F6
:10171000CDBFDEBFDF91CF910895CF93DF93CDB7DB
:10172000DEB70E94D40CA0915A2CB0915B2C0D9086
:101730000DBE0D900EBEEF91DF91CF91BF91AF9195
:101740009F918F917F916F915F914F913F912F91D9
:101750001F910F91FF90EF90DF90CF90BF90AF90CF
:101760009F908F907F906F905F904F903F902F90C1
:101770001F900F90FF91F093A200FF91FFBFFF9188
:10178000089581E0DF91CF910895FF93FFB7FF9314
:10179000F091A200FF93F87FF093A2000F921F92A6
:1017A00011242F923F924F925F926F927F928F926D
:1017B0009F92AF92BF92CF92DF92EF92FF920F93E0
:1017C0001F932F933F934F935F936F937F938F93C9
:1017D0009F93AF93BF93CF93DF93EF93A0915A2C36
:1017E000B0915B2C0DB60D920EB60D920E945E1755
:1017F000A0915A2CB0915B2C0D900DBE0D900EBE99
:10180000EF91DF91CF91BF91AF919F918F917F9198
:101810006F915F914F913F912F911F910F91FF9089
:10182000EF90DF90CF90BF90AF909F908F907F9080
:101830006F905F904F903F902F901F900F90FF916F
:10184000F093A200FF91FFBFFF91089500001F9346
:10185000CF93DF931F92CDB7DEB789838091242D7C
:10186000982F8981892B8093242D80EA90E0FC01B8
:101870008081813061F080EA90E0FC0180818230DB
:1018800031F080EA90E0FC018081843079F480912D
:10189000242D882359F00E949D09182F1092242D81
:1018A0000E945E1780EA90E0FC01128300000F9016
:1018B000DF91CF911F9108951F93CF93DF93CDB701
:1018C000DEB70E949D09182F0E944E1680EA90E014
:1018D000FC0112830000DF91CF911F910895FF93C7
:1018E000FFB7FF93F091A200FF93F87FF093A2005F
:1018F0000F921F9211242F923F924F925F926F92FC
:101900007F928F929F92AF92BF92CF92DF92EF928F
:10191000FF920F931F932F933F934F935F936F9378
:101920007F938F939F93AF93BF93CF93DF93EF9367
:10193000A0915A2CB0915B2C0DB60D920EB60D9263
:101940000E945C0C81E00E94270CA0915A2CB0915F
:101950005B2C0D900DBE0D900EBEEF91DF91CF91DF
:10196000BF91AF919F918F917F916F915F914F91B7
:101970003F912F911F910F91FF90EF90DF90CF90AB
:10198000BF90AF909F908F907F906F905F904F909F
:101990003F902F901F900F90FF91F093A200FF9126
:1019A000FFBFFF9118950000CF93DF9300D01F92E7
:1019B000CDB7DEB780E09DE7A0E0B0E089839A83F1
:1019C000AB83BC8389819A81AB81BC81689415F813
:1019D000B695A795979587951694D1F789839A839D
:1019E000AB83BC8389819A81AB81BC810197A109BA
:1019F000B10989839A83AB83BC8380E098E0298115
:101A00003A81FC0126A337A365E080E098E00E94BC
:101A1000010461E080E098E00E943904000024960F
:101A2000CDBFDEBFDF91CF910895CF93DF93CDB7C8
:101A3000DEB72597CDBFDEBF8B839C836D838B8103
:101A40009C8189839A83F091A200FF93F87FF093A1
:101A5000A20089819A81FC018081918129813A814A
:101A6000F901278D422F50E029813A81F90120A107
:101A7000222F30E0429FB001439F700D529F700DA6
:101A800011249B01280F391F89819A81FC0122832F
:101A9000338389819A81FC01168E89819A81FC01A8
:101AA0002081318189819A81FC0124833583898158
:101AB0009A81FC018081918129813A81F901278DE8
:101AC000222F30E0A9014150510929813A81F901C1
:101AD00020A1222F30E0429FB001439F700D529F02
:101AE000700D11249B01280F391F89819A81FC01F7
:101AF0002683378389819A812FEFFC0121A3898175
:101B00009A812FEFFC0122A38D81882381F48981A2
:101B10009A81FC0180858823A1F089819A810896A9
:101B20000E94C918882369F00E94C50B0AC08981E8
:101B30009A8108960E942E0889819A8143960E9474
:101B40002E08FF91F093A20081E02596CDBFDEBF65
:101B5000DF91CF9108950F931F93CF93DF93CDB76C
:101B6000DEB72997CDBFDEBF8F8368874987888519
:101B7000882319F419821A820FC08F81482F50E0F0
:101B80008885282F30E0429FC001439F900D529FCF
:101B9000900D112489839A8389819A8185960E9468
:101BA000DC078B839C838B819C81892B81F08B81CB
:101BB0009C8185968D839E832B813C818D819E8126
:101BC00089012985AC0168858F810E94F10D8B8187
:101BD0009C812996CDBFDEBFDF91CF911F910F91E0
:101BE00008950F931F93CF93DF93CDB7DEB7279759
:101BF000CDBFDEBF89836A834B835C832D830E83D5
:101C00001F838A81882341F48E819F812E813F81A9
:101C1000FC012083318307C08E819F812B813C8111
:101C2000FC01208331838E819F812981FC01278FD4
:101C30008E819F812A81FC0120A38E819F8161E09A
:101C40000E94150D8E819F812D81FC0124A300002F
:101C50002796CDBFDEBFDF91CF911F910F910895E1
:101C60000F93CF93DF93CDB7DEB76297CDBFDEBFC3
:101C70008A879B876C877D872E873F87488B598B08
:101C80000A8B19828A859B858A839B83F091A200A7
:101C9000FF93F87FF093A2008A819B81FC01268D3F
:101CA0008A819B81FC01878D281718F08A898230F0
:101CB00019F52C853D858A819B814A89B9010E944D
:101CC0002E108C838A819B81FC018389882351F0AB
:101CD0008A819B8143960E94C918882341F00E9403
:101CE000C50B05C08C81882311F00E94C50BFF91A4
:101CF000F093A20081E06FC08E859F85A889B98985
:101D0000892B8A2B8B2B29F4FF91F093A20080E082
:101D100062C08981882331F4CE0105960E9494190E
:101D200081E08983FF91F093A2000E948315F091D6
:101D3000A200FF93F87FF093A2008A819B81FC01AF
:101D400081A18F3F21F48A819B81FC0111A28A81AC
:101D50009B81FC0182A18F3F21F48A819B81FC0140
:101D600012A2FF91F093A2009E01225F3F4FCE018D
:101D70000596B9010E94B719882331F58A819B81A4
:101D80000E94B9118823C9F08E859F85A889B989D9
:101D90002A813B81285F3F4FAC01BD01C9010E94F0
:101DA0002E188A819B810E9433110E9490158823EE
:101DB00009F06CCF0E94C50B69CF8A819B810E947C
:101DC00033110E94901562CF8A819B810E9433114A
:101DD0000E94901580E06296CDBFDEBFDF91CF916B
:101DE0000F910895CF93DF93CDB7DEB72C97CDBF7A
:101DF000DEBF8E839F83688779874A875B872C87BE
:101E00008E819F818A839B830E949D098C838A8116
:101E10009B81FC01268D8A819B81FC01878D28177F
:101E200018F08C85823089F58A819B81FC0182A122
:101E30008D83288539858A819B814C85B9010E94D3
:101E40002E108D818F3FB9F48A819B81FC0183899B
:101E50008823C1F08A819B8143960E94C9188823F8
:101E600089F08A859B85892B69F08A859B8521E08D
:101E7000FC01208307C08D818F5F282F8A819B8181
:101E8000FC0122A381E0898301C0198280EA90E0ED
:101E90002C81FC01228389812C96CDBFDEBFDF918E
:101EA000CF910895CF93DF93CDB7DEB76197CDBFC4
:101EB000DEBF8A879B876C877D872E873F87488B0D
:101EC000598B19828A859B858A839B83F091A20016
:101ED000FF93F87FF093A2008A819B81FC01868D9D
:101EE0008C838C81882311F12C853D858A819B818F
:101EF000B9010E94E3108C812FEF280F8A819B810A
:101F0000FC01268F8A819B81FC018085882349F012
:101F10008A819B8108960E94C918882311F00E942B
:101F2000C50BFF91F093A20081E076C08E859F855E
:101F3000A889B989892B8A2B8B2B29F4FF91F093DF
:101F4000A20080E069C08981882331F4CE01059622
:101F50000E94941981E08983FF91F093A2000E946E
:101F60008315F091A200FF93F87FF093A2008A817D
:101F70009B81FC0181A18F3F21F48A819B81FC011F
:101F800011A28A819B81FC0182A18F3F21F48A8169
:101F90009B81FC0112A2FF91F093A2009E01225F9F
:101FA0003F4FCE010596B9010E94B719882331F53C
:101FB0008A819B810E9498118823C9F08E859F8514
:101FC000A889B9892A813B812D5E3F4FAC01BD01B3
:101FD000C9010E942E188A819B810E9433110E94A0
:101FE0009015882309F072CF0E94C50B6FCF8A81AC
:101FF0009B810E9433110E94901568CF8A819B813A
:102000000E9433110E9490158A819B810E94981131
:10201000882309F45BCF80E06196CDBFDEBFDF91FE
:10202000CF910895CF93DF9300D0CDB7DEB78A83E9
:102030009B83F091A200FF93F87FF093A2008A8126
:102040009B81FC01868D8983FF91F093A200898199
:102050002396CDBFDEBFDF91CF910895CF93DF935D
:10206000CDB7DEB72797CDBFDEBF8B839C836D8353
:102070007E834F831A828B819C81FC01868D8983AC
:102080008B819C81FC0180A1882309F48EC08F8103
:102090008823D9F58B819C81FC0180A1482F50E0D9
:1020A0008B819C81FC01848195812D813E81B901C8
:1020B0000E94D83B8B819C81FC01248135818B81DE
:1020C0009C81FC0180A1882F90E0280F391F8B8113
:1020D0009C81FC01248335838B819C81FC012481BC
:1020E00035818B819C81FC0182819381281739077E
:1020F00008F45BC08B819C81FC01208131818B8144
:102100009C81FC012483358350C08B819C81FC0120
:1021100080A1482F50E08B819C81FC0186819781B2
:102120002D813E81B9010E94D83B8B819C81FC01AD
:10213000268137818B819C81FC0180A1882F90E0D2
:10214000919581959109280F391F8B819C81FC0104
:10215000268337838B819C81FC01268137818B818B
:102160009C81FC018081918128173907A8F48B811B
:102170009C81FC01228133818B819C81FC0180A1A7
:10218000882F90E0919581959109280F391F8B81B7
:102190009C81FC01268337838F81823031F48981D1
:1021A000882319F0898181508983898121E0280F52
:1021B0008B819C81FC01268F8A812796CDBFDEBF53
:1021C000DF91CF910895CF93DF9300D01F92CDB7C9
:1021D000DEB789839A836B837C8389819A81FC0132
:1021E00080A18823C9F189819A81FC0126813781E8
:1021F00089819A81FC0180A1882F90E0280F391FE6
:1022000089819A81FC012683378389819A81FC0127
:102210002681378189819A81FC01828193812817E7
:10222000390750F089819A81FC01208131818981AF
:102230009A81FC012683378389819A81FC0180A1E0
:10224000482F50E089819A81FC01268137818B815A
:102250009C81B9010E94D83B00002496CDBFDEBF0F
:10226000DF91CF910895CF93DF9300D01F92CDB728
:10227000DEB78B839C83F091A200FF93F87FF093ED
:10228000A2008B819C81FC0182A1898312C08B8179
:102290009C81FC018389882381F08B819C814396FA
:1022A0000E94C918882311F00E945F1A8981815009
:1022B0008983898118165CF301C000008B819C81A1
:1022C0002FEFFC0122A3FF91F093A200F091A20056
:1022D000FF93F87FF093A2008B819C81FC0181A188
:1022E0008A8312C08B819C81FC018085882381F0C8
:1022F0008B819C8108960E94C918882311F00E9446
:102300005F1A8A8181508A838A8118165CF301C022
:1023100000008B819C812FEFFC0121A3FF91F093A2
:10232000A20000002496CDBFDEBFDF91CF910895BB
:10233000CF93DF9300D0CDB7DEB78A839B83F09134
:10234000A200FF93F87FF093A2008A819B81FC0199
:10235000868D882319F481E0898301C01982FF9159
:10236000F093A20089812396CDBFDEBFDF91CF918C
:102370000895CF93DF9300D0CDB7DEB78A839B83D8
:10238000F091A200FF93F87FF093A2008A819B81D5
:10239000FC01268D8A819B81FC01878D281719F409
:1023A00081E0898301C01982FF91F093A2008981A5
:1023B0002396CDBFDEBFDF91CF910895CF93DF93FA
:1023C000CDB7DEB72997CDBFDEBF8B839C834D830E
:1023D0005E836F83788729878B819C8189839A8329
:1023E000F091A200FF93F87FF093A20089819A8177
:1023F000FC0181A18F3F21F489819A81FC0111A206
:1024000089819A81FC0182A18F3F21F489819A817F
:10241000FC0112A2FF91F093A20089819A81FC0134
:10242000868D882371F489819A81FC0173968D8150
:102430009E81AF81B8852985AC01BD01CF010E9485
:10244000951889819A810E94331100002996CDBF89
:10245000DEBFDF91CF9108958F929F92AF92BF928E
:10246000CF92DF92EF92FF920F931F93CF93DF9360
:10247000CDB7DEB76097CDBFDEBF8E839F83688701
:1024800079874A875B872C873D870E87EF86F88A96
:102490008A859B850E94DC078C839D838C819D812E
:1024A000892BB9F08CE290E00E94DC0789839A8343
:1024B00089819A81892B41F089819A812C813D8182
:1024C000FC01238F348F07C08C819D810E942008DE
:1024D00002C019821A8289819A81892B09F18A8521
:1024E0009B85CC01A0E0B0E009811A814F85588915
:1024F0002C853D8568857985EE81FF81812C912C25
:1025000058016A01EE8489019C01AD01CF010E944E
:10251000A31289819A810E94791381E08B8302C082
:102520008FEF8B838B816096CDBFDEBFDF91CF9124
:102530001F910F91FF90EF90DF90CF90BF90AF90E1
:102540009F908F9008958F929F92AF92BF92CF925B
:10255000DF92EF92FF920F931F93CF93DF93CDB74C
:10256000DEB76497CDBFDEBF8C839D836E837F8390
:10257000288739874A875B870C871D87EE86CF8639
:10258000D88AA98ABA8A8B8A9C8A288539858989BA
:102590009A89FC01838D948DA90165EA70E00E94FF
:1025A000E13B89899A89FC01238D348D8885998541
:1025B0000197820F931F8A839B83198221C089818F
:1025C000882F90E02981222F30E04E815F81240FF7
:1025D000351FF901408129893A89820F931F4D9651
:1025E000FC0140838981882F90E02E813F81820FFA
:1025F000931FFC018081882339F089818F5F898353
:1026000089818830E0F201C0000089899A89FC0143
:1026100014A28E85843010F083E08E8789899A8990
:102620002E85FC01228F89899A8902960E9468086A
:1026300089899A890E960E94680889899A892989C8
:102640003A89FC01228733878E85882F90E0A0E0AD
:10265000B0E024E030E040E050E079018A01E81A7F
:10266000F90A0A0B1B0BD801C70129893A89F9011C
:1026700086879787A08BB18B89899A8929893A891E
:10268000FC01268B378B89899A89FC0117A210A639
:1026900011A612A689899A89FC0113A64C855D852D
:1026A0002C813D818A819B81B9010E94B4099C01E2
:1026B00089899A89FC01208331838F859889892BA8
:1026C00039F08F85988929893A89FC0120833183E3
:1026D00000006496CDBFDEBFDF91CF911F910F91B7
:1026E000FF90EF90DF90CF90BF90AF909F908F9032
:1026F0000895CF93DF931F921F92CDB7DEB78983E2
:102700009A83F091A200FF93F87FF093A20080914A
:10271000B82C8F5F8093B82C80915A2C90915B2CB1
:10272000892B69F489819A8180935A2C90935B2C30
:102730008091B82C8130C9F40E947D1A16C0809116
:10274000BE2C882391F480915A2C90915B2CFC0133
:10275000228D89819A81FC01828D821730F08981D6
:102760009A8180935A2C90935B2C8091C22C8F5F1E
:102770008093C22C2091C22C89819A81FC0125A3CF
:1027800089819A81FC01928D8091BD2C891730F44A
:1027900089819A81FC01828D8093BD2C89819A81E7
:1027A000AC014E5F5F4F89819A81FC01828D282F99
:1027B00030E06BE0629FC001639F900D1124845A4A
:1027C000934DBA010E947B08FF91F093A200809183
:1027D000BE2C882371F080915A2C90915B2CFC01C7
:1027E000228D89819A81FC01828D281710F40E9424
:1027F000C50B00000F900F90DF91CF910895CF93FC
:10280000DF93CDB7DEB72597CDBFDEBF6A837B836D
:102810008C839D8319828A819B81AC81BD81892BA8
:102820008A2B8B2B71F00E9483158A819B81AC814E
:10283000BD8140E0BC01CD010E940A1D0E9490159F
:1028400089838981882311F40E94C50B0000259695
:10285000CDBFDEBFDF91CF910895CF93DF9300D03E
:102860001F92CDB7DEB78B839C83F091A200FF93BC
:10287000F87FF093A2008B819C81892B29F48091B1
:102880005A2C90915B2C02C08B819C8189839A8306
:1028900089819A8102960E94470989819A81FC0167
:1028A000808D918D892B29F089819A810E960E94C5
:1028B000470989819A810296BC018DEA9CE20E94B7
:1028C0007B0889819A81FC0183A5813021F489816B
:1028D0009A81FC0113A6FF91F093A2008091BE2C77
:1028E000882359F0F091A200FF93F87FF093A200A3
:1028F0000E94C01AFF91F093A20080915A2C9091EF
:102900005B2C29813A8128173907A1F48091BE2CCC
:10291000882319F00E94C50B0DC09091AD2C8091B9
:10292000B82C981729F410925A2C10925B2C02C0E4
:102930000E945E1700002496CDBFDEBFDF91CF91CD
:102940000895CF93DF93CDB7DEB72597CDBFDEBF18
:102950008C839D8319828C819D818A839B838A814C
:102960009B81FC01848595858D5A9C4289F48A81DE
:102970009B81FC01808D918D825A9C4249F08A8115
:102980009B81FC01808D918D892B11F481E08983DD
:1029900089812596CDBFDEBFDF91CF910895CF937A
:1029A000DF9300D01F92CDB7DEB78B839C838B81E2
:1029B0009C8189839A8389819A81892B09F450C0EB
:1029C00080915A2C90915B2C29813A8128173907E4
:1029D00009F446C0F091A200FF93F87FF093A200A3
:1029E00089819A810E94A1148823B9F189819A81F1
:1029F00002960E94470989819A81FC01928D8091FB
:102A0000BD2C891730F489819A81FC01828D8093D5
:102A1000BD2C89819A81AC014E5F5F4F89819A817B
:102A2000FC01828D282F30E06BE0629FC001639F24
:102A3000900D1124845A934DBA010E947B0889811C
:102A40009A81FC01228D80915A2C90915B2CFC0183
:102A5000828D281710F00E94C50BFF91F093A20001
:102A600000002496CDBFDEBFDF91CF910895EF9295
:102A7000FF920F93CF93DF931F92CDB7DEB70F2E48
:102A8000F7ECEF2EFCE2FF2EF02D00E020E030E02E
:102A900048EC50E060E070E28AE69AE10E942C1275
:102AA00089838981813019F40E94AB1D89838981D2
:102AB000813009F580EA90E020EA30E0F9012281D6
:102AC000287FFC0122838FEF9FEFDC018093C32CD2
:102AD0009093C42CA093C52CB093C62C81E0809316
:102AE000BE2C1092B92C1092BA2C1092BB2C1092C2
:102AF000BC2C0E948D0B00000F90DF91CF910F91A5
:102B0000FF90EF900895CF93DF93CDB7DEB780911C
:102B1000C92C8F5F8093C92C0000DF91CF9108955D
:102B2000CF93DF9300D01F92CDB7DEB719821A8200
:102B30001B82F091A200FF93F87FF093A200809196
:102B4000C92C81508093C92C8091C92C882309F00D
:102B500074C08091B82C882309F46FC046C080915E
:102B6000A92C9091AA2CFC018085918589839A8358
:102B700089819A810E960E94470989819A810296DD
:102B80000E94470989819A81FC01928D8091BD2C18
:102B9000891730F489819A81FC01828D8093BD2C44
:102BA00089819A81AC014E5F5F4F89819A81FC01D6
:102BB000828D282F30E06BE0629FC001639F900DF3
:102BC0001124845A934DBA010E947B0889819A810D
:102BD000FC01228D80915A2C90915B2CFC01828DFE
:102BE000281718F081E08093C02C8091A22C8823B4
:102BF00009F0B5CF89819A81892B11F00E94C01A02
:102C00008091BF2C8C838C81882379F00E944E1692
:102C1000882319F081E08093C02C8C8181508C83B3
:102C20008C81882399F71092BF2C8091C02C882327
:102C300021F081E08B830E94C50BFF91F093A200ED
:102C40008B812496CDBFDEBFDF91CF910895CF93C6
:102C5000DF9300D01F92CDB7DEB7F091A200FF93B3
:102C6000F87FF093A2008091B92C9091BA2CA0919A
:102C7000BB2CB091BC2C89839A83AB83BC83FF911E
:102C8000F093A20089819A81AB81BC81BC01CD0106
:102C90002496CDBFDEBFDF91CF910895CF93DF9310
:102CA000CDB7DEB72D97CDBFDEBF19828091C92C7D
:102CB000882309F0F1C08091B92C9091BA2CA09191
:102CC000BB2CB091BC2C0196A11DB11D8A839B83A6
:102CD000AC83BD838A819B81AC81BD818093B92CFB
:102CE0009093BA2CA093BB2CB093BC2C8A819B816F
:102CF000AC81BD81892B8A2B8B2BD9F480919E2CA2
:102D000090919F2C8E839F838091A02C9091A12CD9
:102D100080939E2C90939F2C8E819F818093A02CDA
:102D20009093A12C8091C12C8F5F8093C12C0E9425
:102D3000C01A8091C32C9091C42CA091C52CB09145
:102D4000C62C2A813B814C815D81281739074A07AF
:102D50005B0708F48AC080919E2C90919F2CFC0107
:102D60008081882361F48FEF9FEFDC018093C32C77
:102D70009093C42CA093C52CB093C62C76C08091A0
:102D80009E2C90919F2CFC0187819085FC01808571
:102D900091858887998788859985FC0182819381AF
:102DA000A481B5818A879B87AC87BD872A813B81B7
:102DB0004C815D818A859B85AC85BD852817390747
:102DC0004A075B0768F48A859B85AC85BD8580933F
:102DD000C32C9093C42CA093C52CB093C62C45C093
:102DE0008885998502960E94470988859985FC0106
:102DF000808D918D892B29F0888599850E960E946A
:102E0000470988859985FC01928D8091BD2C891791
:102E100030F488859985FC01828D8093BD2C88854E
:102E20009985AC014E5F5F4F88859985FC01828D45
:102E3000282F30E06BE0629FC001639F900D11244A
:102E4000845A934DBA010E947B0888859985FC01BC
:102E5000228D80915A2C90915B2CFC01828D281739
:102E600008F479CF81E0898376CF80915A2C9091B4
:102E70005B2CFC01828D282F30E04BE0429FC0018B
:102E8000439F900D1124845A934DFC018081823020
:102E900040F081E0898305C08091BF2C8F5F8093D3
:102EA000BF2C8091C02C882311F081E08983898117
:102EB0002D96CDBFDEBFDF91CF910895CF93DF93E5
:102EC000CDB7DEB72997CDBFDEBF8091C92C88234F
:102ED00021F081E08093C02CBAC01092C02C809168
:102EE0005A2C90915B2CFC01838D948D8A839B835B
:102EF00085EA95EADC018C839D83AE83BF838A815A
:102F00009B81FC0120813181428153818C819D8193
:102F1000AE81BF81281739074A075B0799F58A8177
:102F20009B810496FC0120813181428153818C81F7
:102F30009D81AE81BF81281739074A075B0711F5CC
:102F40008A819B810896FC012081318142815381D5
:102F50008C819D81AE81BF81281739074A075B07A5
:102F600089F48A819B810C96FC0120813181428108
:102F700053818C819D81AE81BF81281739074A0713
:102F80005B0771F080915A2C90915B2C9C01235E21
:102F90003F4F80915A2C90915B2CB9010E945504AF
:102FA0008091BD2C898303C0898181508983898167
:102FB000282F30E04BE0429FC001439F900D112429
:102FC000845A934DFC018081882371F38981282FD5
:102FD00030E04BE0429FC001439F900D1124845A82
:102FE000934D8887998788859985FC018181928195
:102FF000FC012481358188859985FC0121833283F8
:1030000088859985FC01218132818885998503967F
:103010002817390769F488859985FC018181928197
:10302000FC012481358188859985FC0121833283C7
:1030300088859985FC0181819281FC01808591853B
:1030400080935A2C90935B2C89818093BD2C000037
:103050002996CDBFDEBFDF91CF910895CF93DF9347
:1030600000D000D0CDB7DEB789839A834B835C83D1
:103070006D837E8380915A2C90915B2C9C01225F02
:103080003F4F89819A81B9010E94C6088B819C813A
:10309000AD81BE8141E0BC01CD010E940A1D00004E
:1030A0002696CDBFDEBFDF91CF9108950F931F937A
:1030B000CF93DF93CDB7DEB72A97CDBFDEBF89832D
:1030C0009A834B835C836D837E830F831887298764
:1030D0003A8720915A2C30915B2C8B819C81AD8159
:1030E000BE81B068F90186879787A08BB18B8091EC
:1030F0005A2C90915B2C9C01225F3F4F89819A81D1
:10310000B9010E947B088F819885A985BA8541E025
:10311000BC01CD010E940A1D00002A96CDBFDEBF72
:10312000DF91CF911F910F910895CF93DF93CDB78A
:10313000DEB72797CDBFDEBF89839A834B835C833D
:103140006D837E832F8380915A2C90915B2C9C0100
:10315000225F3F4F89819A81B9010E947B088F814C
:10316000882339F08FEF9FEFDC018B839C83AD8345
:10317000BE838B819C81AD81BE814F81BC01CD011D
:103180000E940A1D00002796CDBFDEBFDF91CF91C0
:103190000895CF93DF93CDB7DEB72597CDBFDEBFC0
:1031A0008C839D838C819D81FC0187819085FC01AE
:1031B000808591858A839B838A819B810E960E945C
:1031C00047098091C92C882351F58A819B810296F9
:1031D0000E9447098A819B81FC01928D8091BD2CC0
:1031E000891730F48A819B81FC01828D8093BD2CEC
:1031F0008A819B81AC014E5F5F4F8A819B81FC017C
:10320000828D282F30E06BE0629FC001639F900D9C
:103210001124845A934DBA010E947B0808C08A8108
:103220009B810E96BC0182EA9CE20E947B088A8107
:103230009B81FC01228D80915A2C90915B2CFC018A
:10324000828D821730F481E0898381E08093C02CE5
:1032500001C0198289812596CDBFDEBFDF91CF9154
:103260000895CF93DF93CDB7DEB72897CDBFDEBFEC
:103270008B839C834D835E836F8378878D819E8152
:10328000AF81B885B0682B813C81F901808391833F
:10329000A283B3838B819C81FC0180859185898386
:1032A0009A838B819C810E94470989819A81029629
:1032B0000E94470989819A81FC01928D8091BD2CE1
:1032C000891730F489819A81FC01828D8093BD2C0D
:1032D00089819A81AC014E5F5F4F89819A81FC019F
:1032E000828D282F30E06BE0629FC001639F900DBC
:1032F0001124845A934DBA010E947B0889819A81D6
:10330000FC01228D80915A2C90915B2CFC01828DC6
:10331000821718F481E08093C02C00002896CDBF5E
:10332000DEBFDF91CF910895CF93DF931F921F925D
:10333000CDB7DEB789839A832091C12C89819A8188
:10334000FC0120838091B92C9091BA2CA091BB2CC8
:10335000B091BC2C29813A81F90181839283A383A6
:10336000B48300000F900F90DF91CF910895EF92FA
:10337000FF920F931F93CF93DF93CDB7DEB72D97B7
:10338000CDBFDEBF8A879B876C877D87F091A200C7
:10339000FF93F87FF093A2008091B92C9091BA2C02
:1033A000A091BB2CB091BC2C8A839B83AC83BD8342
:1033B0008A859B85FC0181819281A381B4812A81C8
:1033C0003B814C815D8179018A01E81AF90A0A0B77
:1033D0001B0BD801C7018E839F83A887B9878C8573
:1033E0009D85FC0180819181A281B3818F3F9F4F98
:1033F000AF4FBF4F11F4198254C08A859B85FC01E1
:1034000090818091C12C981799F08A859B85FC0149
:1034100021813281438154818A819B81AC81BD812C
:1034200082179307A407B50718F081E0898339C094
:103430008C859D85FC0120813181428153818E8163
:103440009F81A885B98582179307A407B50700F562
:103450008C859D85FC0120813181428153818E8143
:103460009F81A885B98579018A01E81AF90A0A0BB2
:103470001B0BD801C7012C853D85F9018083918301
:10348000A283B3838A859B850E949419198209C0FF
:103490008C859D85FC01108211821282138281E04D
:1034A0008983FF91F093A20089812D96CDBFDEBF65
:1034B000DF91CF911F910F91FF90EF900895CF93DF
:1034C000DF93CDB7DEB781E08093C02C0000DF91A1
:1034D000CF910895CF93DF931F921F92CDB7DEB7A0
:1034E00089839A830E94B81A80915C2C823010F0F4
:1034F0000E94C50B0E940923F5CFCF93DF931F9243
:10350000CDB7DEB7198210C08981282F30E04BE09B
:10351000429FC001439F900D1124845A934D0E94F5
:103520002E0889818F5F89838981843068F388E8D8
:103530009CE20E942E0883E99CE20E942E0882EA07
:103540009CE20E942E088DEA9CE20E942E0888E8E8
:103550009CE280939E2C90939F2C83E99CE2809325
:10356000A02C9093A12C00000F90DF91CF91089593
:10357000CF93DF93CDB7DEB70000DF91CF910895F1
:10358000CF93DF931F921F92CDB7DEB780919E2C11
:1035900090919F2CFC018081882361F48FEF9FEF35
:1035A000DC018093C32C9093C42CA093C52CB093C2
:1035B000C62C1BC080919E2C90919F2CFC01878172
:1035C0009085FC018085918589839A8389819A8180
:1035D000FC0182819381A481B5818093C32C909357
:1035E000C42CA093C52CB093C62C00000F900F9054
:1035F000DF91CF910895CF93DF931F92CDB7DEB7C0
:103600008091BE2C882319F481E0898308C08091C1
:10361000C92C882319F482E0898301C01982898129
:103620000F90DF91CF910895EF92FF920F931F9328
:10363000CF93DF9300D01F92CDB7DEB780915A2C85
:1036400090915B2CFC0186859785A089B18989833F
:103650009A83AB83BC8360915A2C70915B2C8091D0
:103660005A2C90915B2CFC01828D882F90E0A0E079
:10367000B0E024E030E040E050E079018A01E81A4F
:10368000F90A0A0B1B0BD801C701FB018687978734
:10369000A08BB18B89819A81AB81BC81BC01CD01AA
:1036A0002496CDBFDEBFDF91CF911F910F91FF9088
:1036B000EF900895CF92DF92EF92FF920F931F93B6
:1036C000CF93DF93CDB7DEB72F97CDBFDEBF6A8331
:1036D0007B838C839D832E833F83488759870A870A
:1036E0001B87CC86DD86EE86FF86F091A200FF93D5
:1036F000F87FF093A20080915A2C90915B2CFC01F2
:1037000083A58230A1F160915A2C70915B2CFB0152
:1037100027A130A541A552A58A819B81AC81BD819D
:1037200080959095A095B09582239323A423B523EB
:10373000FB0187A390A7A1A7B2A780915A2C9091D3
:103740005B2C21E0FC0123A78C859D85AE85BF8580
:10375000892B8A2B8B2B59F08C859D85AE85BF8557
:1037600041E0BC01CD010E940A1D0E94C50BFF91E2
:10377000F093A200F091A200FF93F87FF093A200D3
:103780008A859B85892B81F080915A2C90915B2CA6
:10379000FC0187A190A5A1A5B2A52A853B85F901C9
:1037A00080839183A283B38380915A2C90915B2C68
:1037B000FC0183A5823011F019821CC060915A2C43
:1037C00070915B2CFB0127A130A541A552A58E81EC
:1037D0009F81A885B98580959095A095B095822305
:1037E0009323A423B523FB0187A390A7A1A7B2A786
:1037F00081E0898380915A2C90915B2CFC0113A667
:10380000FF91F093A20089812F96CDBFDEBFDF919B
:10381000CF911F910F91FF90EF90DF90CF9008957F
:10382000EF92FF920F931F93CF93DF93CDB7DEB745
:103830006097CDBFDEBF8E839F83488759876A8795
:103840007B872C870D871E87EF86F88A81E0898326
:103850008E819F818A839B830E949D098C838D85A5
:103860009E85892B71F08A819B81FC0187A190A59F
:10387000A1A5B2A52D853E85F90180839183A28300
:10388000B3838A819B81FC0183A58D838A819B817F
:1038900022E0FC0123A78C85882F90E082309105DF
:1038A00031F18330910534F4009709F44FC001974A
:1038B00039F04DC08330910561F10497B1F147C0F3
:1038C0008A819B81FC0127A130A541A552A588854D
:1038D0009985AA85BB85822B932BA42BB52B2A8196
:1038E0003B81F90187A390A7A1A7B2A730C08A8125
:1038F0009B81FC0187A190A5A1A5B2A50196A11D60
:10390000B11D2A813B81F90187A390A7A1A7B2A786
:103910001EC02A813B8188859985AA85BB85F901CE
:1039200087A390A7A1A7B2A712C08D81823061F0B2
:103930002A813B8188859985AA85BB85F90187A362
:1039400090A7A1A7B2A703C0198201C000008D8172
:10395000813009F04FC08091C92C882351F58A81AC
:103960009B8102960E9447098A819B81FC01928D6E
:103970008091BD2C891730F48A819B81FC01828D56
:103980008093BD2C8A819B81AC014E5F5F4F8A8101
:103990009B81FC01828D282F30E06BE0629FC0018B
:1039A000639F900D1124845A934DBA010E947B08A5
:1039B00008C08A819B810E96BC0182EA9CE20E942B
:1039C0007B088A819B81FC01228D80915A2C9091E9
:1039D0005B2CFC01828D821768F48F859889892B76
:1039E00031F08F85988921E0FC01208303C081E0BC
:1039F0008093C02C80EA90E02C81FC012283898195
:103A00006096CDBFDEBFDF91CF911F910F91FF90E8
:103A1000EF900895CF93DF93CDB7DEB72D97CDBF4D
:103A2000DEBF69877A878B879C874D878091B92C09
:103A30009091BA2CA091BB2CB091BC2C89839A8315
:103A4000AB83BC8380915A2C90915B2C02960E9490
:103A5000470989859A85AB85BC858F3F9F4FAF4FBE
:103A6000BF4F71F48D85882359F080915A2C909125
:103A70005B2C0296BC018DEA9CE20E947B0864C02C
:103A800029813A814B815C8189859A85AB85BC858A
:103A9000820F931FA41FB51F8D839E83AF83B887AA
:103AA00020915A2C30915B2C8D819E81AF81B885FD
:103AB000F90182839383A483B5832D813E814F8155
:103AC000588589819A81AB81BC81281739074A07BB
:103AD0005B0778F480915A2C90915B2C9C012E5FAF
:103AE0003F4F8091A02C9091A12CB9010E94C60853
:103AF0002BC080915A2C90915B2C9C012E5F3F4FE4
:103B000080919E2C90919F2CB9010E94C6088091B3
:103B1000C32C9091C42CA091C52CB091C62C2D81A2
:103B20003E814F815885281739074A075B0760F4A3
:103B30008D819E81AF81B8858093C32C9093C42CD6
:103B4000A093C52CB093C62C00002D96CDBFDEBF30
:103B5000DF91CF910895EF92FF920F93CF93DF9370
:103B60001F92CDB7DEB719820E943C228091E42CCF
:103B70009091E52C892B91F00F2EF6EEEF2EFCE2C2
:103B8000FF2EF02D03E020E030E048EC50E065E04F
:103B900070E281EC9EE10E942C12898389810F9052
:103BA000DF91CF910F91FF90EF900895CF92DF9228
:103BB000EF92FF920F931F93CF93DF93CDB7DEB7B2
:103BC0006797CDBFDEBF8B879C876D872E873F872A
:103BD000488B598B0A8B1B8BCC8ADD8AEE8AFF8A35
:103BE00019828091E42C9091E52C892B09F444C032
:103BF0008D858A838E859F85A889B9898B839C83CF
:103C0000AD83BE838B859C858F8398878D85863019
:103C100034F50E94FB1A823099F4E091E42CF09183
:103C2000E52C8C899D89AE89BF89BE016E5F7F4F6F
:103C300000E09C01AD01CF010E94300E89831CC0C1
:103C40008091E42C9091E52CBE016E5F7F4F00E0E7
:103C500020E030E0A9010E94300E89830DC08091E0
:103C6000E42C9091E52C4A895B89BE016E5F7F4F01
:103C700020E00E94F20E898389816796CDBFDEBF66
:103C8000DF91CF911F910F91FF90EF90DF90CF9038
:103C90000895CF92DF92EF92FF920F931F93CF93ED
:103CA000DF93CDB7DEB72B97CDBFDEBF6C837D83AF
:103CB0008E839F83288739874A875B878091E02C92
:103CC0009091E12CFC0187819085FC018085918594
:103CD00089839A8389819A8102960E944709898102
:103CE0009A81FC0182898130B1F589819A81FC0138
:103CF00026853785408951898C819D81AE81BF8120
:103D0000820F931FA41FB51FEC80FD800E811F81C1
:103D1000288539854A855B85E981FA8167017801C3
:103D200089019A01AC01BD01CF010E94DF1F8823E8
:103D300091F08C819D81AE81BF81E981FA81C12C96
:103D4000D12C760100E010E09C01AD0160E0CF01D4
:103D50000E94D61D8B8389819A81FC012589368931
:103D600089819A81F901199500002B96CDBFDEBF9C
:103D7000DF91CF911F910F91FF90EF90DF90CF9047
:103D80000895CF93DF93CDB7DEB72797CDBFDEBFC2
:103D90008E839F83CE0105960E945C1FDC01CB01C0
:103DA00089839A83AB83BC832D8189819A81AB817E
:103DB000BC81422FBC01CD010E94E11E0E947820EF
:103DC000E9CFEF92FF920F931F93CF93DF93CDB77D
:103DD000DEB72A97CDBFDEBF6E837F838887998742
:103DE0004A870E948315CE0105960E949A1FDC0126
:103DF000CB0189839A83AB83BC838D81882309F0AF
:103E00004EC08A858823E1F42E813F8148855985FB
:103E100089819A81AB81BC8182179307A407B5077A
:103E200078F00E94901529813A814B815C818E81C6
:103E30009F81A885B985BC01CD010E94491E31C072
:103E40008A85882359F08091E22C9091E32CFC0123
:103E5000908181E0992309F080E08A872E813F815B
:103E60004885598589819A81AB81BC8179018A0114
:103E7000E81AF90A0A0B1B0BD801C701E091E42CE0
:103E8000F091E52C2A85AC01BD01CF010E94DE1125
:103E90000E949015882329F40E94C50B02C00E943D
:103EA000901500002A96CDBFDEBFDF91CF911F9104
:103EB0000F91FF90EF900895CF93DF9300D000D043
:103EC000CDB7DEB78D839E838091E02C9091E12C5D
:103ED000FC01908181E0992309F080E0282F8D81F9
:103EE0009E81FC0120838D819E81FC01808188233D
:103EF00089F48091E02C9091E12CFC0187819085E0
:103F0000FC0180819181A281B38189839A83AB83F3
:103F1000BC8304C019821A821B821C8289819A8107
:103F2000AB81BC81BC01CD012696CDBFDEBFDF9148
:103F3000CF910895CF93DF9300D000D0CDB7DEB7F7
:103F40008D839E830E942716DC01CB0189839A838F
:103F5000AB83BC838091E82C9091E92CA091EA2C52
:103F6000B091EB2C29813A814B815C81281739076C
:103F70004A075B0740F40E9482218D819E8121E0E7
:103F8000FC01208304C08D819E81FC011082898107
:103F90009A81AB81BC818093E82C9093E92CA0930B
:103FA000EA2CB093EB2C89819A81AB81BC81BC0156
:103FB000CD012696CDBFDEBFDF91CF910895CF9280
:103FC000DF92EF92FF920F931F93CF93DF93CDB7C2
:103FD000DEB72F97CDBFDEBF8A839B834C835D8383
:103FE0006E837F83088719872A873B87CC86DD8687
:103FF000EE86FF8619822A813B818C819D81AE816C
:10400000BF81F90182839383A483B5838A819B81D5
:104010002A813B81FC01228733872C813D814E819F
:104020005F8188859985AA85BB8582179307A40738
:10403000B50740F1288539854A855B858C859D8546
:10404000AE85BF85281B390B4A0B5B0B8A819B8190
:10405000FC0186859785A089B189281739074A0709
:104060005B0718F081E0898336C08A819B819C01BF
:104070002E5F3F4F8091E22C9091E32CB9010E947A
:10408000C60829C0288539854A855B858C859D852C
:10409000AE85BF85281739074A075B0780F42C8156
:1040A0003D814E815F818C859D85AE85BF852817BA
:1040B00039074A075B0718F081E089830CC08A81C1
:1040C0009B819C012E5F3F4F8091E02C9091E12CD1
:1040D000B9010E94C60889812F96CDBFDEBFDF914E
:1040E000CF911F910F91FF90EF90DF90CF900895A7
:1040F000CF92DF92EF92FF920F931F93CF93DF93B4
:10410000CDB7DEB76597CDBFDEBFE0C08A85882317
:10411000FCF4CE010A96019689839A8389819A815B
:10412000FC012081318189819A81FC018481958102
:10413000A681B78149815A81FA010280F381E02D7D
:10414000EC8BFD8BAC01BD018C899D89F901199522
:104150008A8588230CF4BAC08F8598898B839C83C9
:104160008B819C81FC0184859585892B29F08B812D
:104170009C8102960E944709CE0143960E949A1F95
:10418000DC01CB018D839E83AF83B8878A85082E9F
:10419000000C990B092E000CAA0BBB0B40E050E061
:1041A00029E030E0841B950B2817390708F48DC0EF
:1041B000FC018827E250FF4F8F4F0C94ED3AEB84BF
:1041C000FC840D851E852B853C854D855E858B8108
:1041D0009C81FC0186859785A089B189820F931FF8
:1041E000A41FB51F2D813E814F815885EB81FC8135
:1041F0006701780189019A01AC01BD01CF010E94DC
:10420000DF1F882309F462C08B819C81FC01258912
:1042100036898B819C81F90119958B819C81FC01E8
:104220008289813009F052C02B853C854D855E85A1
:104230008B819C81FC0186859785A089B189820F3D
:10424000931FA41FB51FEB81FC81C12CD12C7601DB
:1042500000E010E09C01AD0160E0CF010E94D61D9E
:10426000898734C08B859C85AD85BE852B813C813B
:10427000F90186879787A08BB18B8B819C81FC018C
:1042800026853785408951898D819E81AF81B8858A
:10429000820F931FA41FB51FED80FE800F8118852C
:1042A0002D813E814F815885EB81FC81670178012A
:1042B00089019A01AC01BD01CF010E94DF1F06C038
:1042C0008B819C810E94200801C000008091E42C19
:1042D0009091E52CBE01665F7F4F20E030E0A901A0
:1042E0000E94520F882309F011CF00006596CDBFC0
:1042F000DEBFDF91CF911F910F91FF90EF90DF9084
:10430000CF900895CF92DF92EF92FF920F931F9379
:10431000CF93DF93CDB7DEB72D97CDBFDEBF82C081
:104320008091E02C9091E12CFC0187819085FC012B
:1043300080819181A281B38189839A83AB83BC837D
:104340008091E02C9091E12CFC0187819085FC010B
:10435000808591858D839E838D819E8102960E94AA
:1043600047098D819E81FC01258936898D819E8139
:10437000F90119958D819E81FC018289813009F0B6
:1043800051C08D819E81FC012685378540895189E8
:1043900089819A81AB81BC81820F931FA41FB51FB5
:1043A0008F839887A987BA872F81388549855A8551
:1043B00089819A81AB81BC8182179307A407B507D5
:1043C000F8F42D813E818F819885A985BA85F90100
:1043D00082839383A483B5838D819E812D813E81C9
:1043E000FC01228733878D819E819C012E5F3F4F88
:1043F0008091E02C9091E12CB9010E94C60812C076
:1044000089819A81AB81BC81ED81FE81C12CD12C47
:10441000760100E010E09C01AD0160E0CF010E9458
:10442000D61D8B878091E02C9091E12CFC0180813E
:10443000882309F075CF8091E02C9091E12C8C8736
:104440009D878091E22C9091E32C8093E02C9093B7
:10445000E12C8C859D858093E22C9093E32C0000C9
:104460002D96CDBFDEBFDF91CF911F910F91FF90B1
:10447000EF90DF90CF900895CF93DF93CDB7DEB765
:10448000F091A200FF93F87FF093A2008091E42CBA
:104490009091E52C892BE9F48AEC9CE20E942E088D
:1044A00085ED9CE20E942E088AEC9CE28093E02C31
:1044B0009093E12C85ED9CE28093E22C9093E32C89
:1044C00040E069E085E00E94AB0D8093E42C90937E
:1044D000E52CFF91F093A2000000DF91CF910895A9
:1044E0000F931F93CF93DF93CDB7DEB76497CDBF04
:1044F000DEBF8B879C876D877E872F87388B498BA4
:104500005A8B0B8B1C8B8EEF8A838B859C858B83C0
:104510009C838D859E858D839E838F859889A989AF
:10452000BA898F839887A987BA878091E42C909164
:10453000E52C4B895C89BE016E5F7F4F20E00E94B5
:10454000F20E898389816496CDBFDEBFDF91CF9162
:104550001F910F910895CF93DF93CDB7DEB780E51C
:1045600090E020E530E0F90120812160FC0120830A
:1045700080E590E0FC018181882F90E0817099278F
:10458000892BB1F380E00E94DF038EE10E94A80333
:1045900060E080E00E94C80343E060E080E40E94A5
:1045A000730380E590E020E530E0F9012081286088
:1045B000FC01208380E590E0FC018181882F90E060
:1045C00088709927892BB1F364E080EC0E949003F6
:1045D00080E590E020E530E0F90120812061FC01D8
:1045E000208360E080E00E94C80380E590E0FC0149
:1045F0008181882F90E080719927892BB1F384E025
:104600000E94DF0387E00E94A8030000DF91CF91A2
:104610000895CF93DF93CDB7DEB70000DF91CF9140
:104620000895EF92FF920F93CF93DF93CDB7DEB74C
:104630000E94AB220E94D42B0E9468240E949F04F7
:104640008093272D9093282D0F2EFFE2EF2EFDE271
:10465000FF2EF02D01E020E030E04CE251E06DE073
:1046600070E286EC98E20E942C120F2EF9E2EF2EF7
:10467000FDE2FF2EF02D01E020E030E04CE251E0C1
:104680006FE170E287E697E20E942C120F2EFDE2A6
:10469000EF2EFDE2FF2EF02D02E020E030E048ECAE
:1046A00050E06BE270E283E893E20E942C120F2E3E
:1046B000FBE2EF2EFDE2FF2EF02D03E020E030E0E4
:1046C00048EC50E066E370E282E994E20E942C122A
:1046D0000F2EF5E2EF2EFDE2FF2EF02D02E020E09E
:1046E00030E04CE251E060E470E284E295E20E9446
:1046F0002C120E94371580E090E0DF91CF910F914E
:10470000FF90EF900895CF93DF9300D000D0CDB706
:10471000DEB78D839E830E94100219821A821B824B
:104720001C8268EB7BE080E090E00E94FF130E9417
:104730002C028091272D9091282D40E050E0BA0165
:104740000E94FA05DC01CB0189839A83AB83BC8389
:1047500080E00E941E038130A1F48091272D90916A
:10476000282D42E050E060E070E00E944506809114
:10477000272D9091282D40E150E060E070E00E94EC
:10478000450681E00E941E03813051F48091272D5F
:104790009091282D40E250E060E070E00E944506D4
:1047A00082E00E941E038130A1F48091272D909118
:1047B000282D40E450E060E070E00E9445068091C2
:1047C000272D9091282D40E150E060E070E00E949C
:1047D000450683E00E941E03813051F48091272D0D
:1047E0009091282D40E850E060E070E00E9445067E
:1047F00080E00E941E038823A1F48091272D9091D0
:10480000282D40E150E060E070E00E944506809174
:10481000272D9091282D42E050E060E070E00E944A
:10482000450681E00E941E038823A1F48091272D74
:104830009091282D41E050E060E070E00E94450634
:104840008091272D9091282D40E250E060E070E0AB
:104850000E94450682E00E941E038823A1F48091F5
:10486000272D9091282D40E450E060E070E00E94F8
:1048700045068091272D9091282D40E150E060E081
:1048800070E00E94450683E00E941E03882351F4D5
:104890008091272D9091282D40E850E060E070E055
:1048A0000E9445068091272D9091282D40E050E0F0
:1048B000BA010E94FA05DC01CB0189839A83AB839C
:1048C000BC836AE070E080E090E00E94FF132FCF8D
:1048D000CF93DF93CDB7DEB780E498E020E438E0F3
:1048E000F90120812560FC01208380E498E020E428
:1048F00038E0F90126812160FC01268380E498E0FC
:1049000023EF31E0FC0126A337A380EA90E020EA00
:1049100030E0F90122812160FC0122830000DF9157
:10492000CF910895CF92DF92EF92FF920F931F9352
:10493000CF93DF931F921F92CDB7DEB71A821982F1
:1049400089818130D9F419828A81282F30E040E0B2
:1049500050E08091F42C9091F52CA091F62CB09120
:10496000F72C820F931FA41FB51F8093F42C9093F4
:10497000F52CA093F62CB093F72C1A82CE01029658
:104980000F2EF2E3CF2ED12CE12CF12CF02D8C0147
:104990002FEF3FEFA90160E070E0CB010E945A1BAE
:1049A0008983CECF1F920F9200903F000F92112467
:1049B00000903B000F92EF92FF920F931F932F9363
:1049C0003F934F935F936F937F938F939F93AF9397
:1049D000BF93EF93FF93CF93DF931F92CDB7DEB7D3
:1049E00019828091312D882F90E0A0E0B0E0E09115
:1049F0002B2DF0912C2D9E012F5F3F4F790100E070
:104A000010E022E0AC01BD01CF010E94101C0000AB
:104A10000F90DF91CF91FF91EF91BF91AF919F9157
:104A20008F917F916F915F914F913F912F911F9146
:104A30000F91FF90EF900F9000923B000F9000922B
:104A40003F000F901F901895CF92DF92EF92FF9248
:104A50000F93CF93DF93CDB7DEB76697CDBFDEBFA1
:104A60001A821B821C821D821E821F821886198652
:104A70001A8681E089831B8680912F2D9091302D9D
:104A80000E942D148091272D9091282D40E250E016
:104A900060E070E00E9445068091272D9091282DBE
:104AA00040E050E0BA010E94FA05DC01CB018F839F
:104AB0009887A987BA878091272D9091282D41E06A
:104AC00050E060E070E00E9445068091272D9091B3
:104AD000282D0F2EF0E4CF2EF2E4DF2EFFE0EF2E94
:104AE000F12CF02D00E020E042E050E060E070E0CA
:104AF0000E94C2048091272D9091282D40E050E023
:104B0000BA010E94FA05DC01CB018F839887A9873F
:104B1000BA870E941F2E8EE490E2892F8F938EE435
:104B200090E28F931F921F921F921F920E94312E2C
:104B30000F900F900F900F900F900F908981882306
:104B4000A9F08CE590E2892F8F938CE590E28F930A
:104B50001F9282E18F931F921F920E94312E0F901D
:104B60000F900F900F900F900F9014C08FE590E270
:104B7000892F8F938FE590E28F931F9281E18F931E
:104B80001F921F920E94312E0F900F900F900F9046
:104B90000F900F908091EC2C9091ED2CA091EE2C29
:104BA000B091EF2C2B2F2F932A2F2F93292F2F9358
:104BB0008F9383E690E2892F8F9383E690E28F9321
:104BC000CE010C96292F2F938F930E94683C8DB7AE
:104BD0009EB70896CDBFDEBFCE010C96292F2F932E
:104BE0008F9388E690E2892F8F9388E690E28F93E7
:104BF0001F921F921F9281E08F930E94312E8DB7DA
:104C00009EB70896CDBFDEBF8091F02C9091F12C1D
:104C1000A091F22CB091F32C2B2F2F932A2F2F93AE
:104C2000292F2F938F9380E790E2892F8F9380E72E
:104C300090E28F93CE010C96292F2F938F930E9491
:104C4000683C8DB79EB70896CDBFDEBFCE010C96EF
:104C5000292F2F938F9384E790E2892F8F9384E7F6
:104C600090E28F931F921F921F9282E08F930E9477
:104C7000312E8DB79EB70896CDBFDEBF8091F42C44
:104C80009091F52CA091F62CB091F72C2B2F2F930F
:104C90002A2F2F93292F2F938F9380E790E2892F2C
:104CA0008F9380E790E28F93CE010C96292F2F935C
:104CB0008F930E94683C8DB79EB70896CDBFDEBF2C
:104CC000CE010C96292F2F938F938EE790E2892F98
:104CD0008F938EE790E28F931F921F921F9283E033
:104CE0008F930E94312E8DB79EB70896CDBFDEBF41
:104CF0008091272D9091282D40E050E0BA010E942C
:104D0000FA05DC01CB018F839887A987BA878F8149
:104D10009885A985BA8580729927AA27BB27892BF0
:104D20008A2B8B2BA9F58F819885A985BA858870E8
:104D30009927AA27BB27892B8A2B8B2B49F5809192
:104D4000272D9091282D41E050E060E070E00E9416
:104D5000FA058091272D9091282D40E150E060E0E8
:104D600070E00E94FA058091272D9091282D42E055
:104D700050E060E070E00E94FA058091272D90914C
:104D8000282D44E050E060E070E00E94450606C037
:104D900080912B2D90912C2D0E942D148F81988520
:104DA000A985BA8580719927AA27BB27892B8A2BC9
:104DB0008B2B21F180912B2D90912C2D0E94CF14C3
:104DC0008091272D9091282D40E250E060E070E026
:104DD0000E94FA058091272D9091282D40E150E006
:104DE00060E070E00E94FA058091272D9091282DB7
:104DF00044E050E060E070E00E9445068091272D7D
:104E00009091282D40E050E0BA010E94FA05DC01A3
:104E1000CB018F839887A987BA878F819885A985C9
:104E2000BA8580789927AA27BB27892B8A2B8B2BB9
:104E300009F446C08091272D9091282D40E850E03C
:104E400060E070E00E94FA058091272D9091282D56
:104E500040E450E060E070E00E9445068091272D1C
:104E60009091282D40E250E060E070E00E944506FD
:104E700080912B2D90912C2D0E94CF148981882315
:104E800081F08091292D90912A2D0E942D148091DE
:104E90002F2D9091302D0E94CF1481E08B871982A5
:104EA0000FC080912F2D9091302D0E942D14809154
:104EB000292D90912A2D0E94CF141B8681E0898391
:104EC00068EC70E080E090E00E94FF13E5CDCF92A7
:104ED000DF92EF92FF920F93CF93DF93CDB7DEB7C0
:104EE0002E97CDBFDEBF8D879E8780E090E0A0E843
:104EF000BFE389839A83AB83BC8383E090E0A0E027
:104F0000B0E08D839E83AF83B8871092F02C10920F
:104F1000F12C1092F22C1092F32C19861A868091A3
:104F2000272D9091282D40E050E0BA010E94FA050B
:104F3000DC01CB018B879C878B859C8580749927AE
:104F4000892BF1F18091272D9091282D48E050E098
:104F500060E070E00E94FA0580E090E0A0E8BFE326
:104F600089839A83AB83BC8319861A861092F42CAA
:104F70001092F52C1092F62C1092F72C83E090E012
:104F8000A0E0B0E08D839E83AF83B8871092F02CB1
:104F90001092F12C1092F22C1092F32C1092EC2C17
:104FA0001092ED2C1092EE2C1092EF2C8091272D68
:104FB0009091282D40E450E060E070E00E94FA05F6
:104FC0008B859C8581709927892B01F18091272DF4
:104FD0009091282D42E050E060E070E00E9445068C
:104FE0008091272D9091282D0F2EF0EACF2EF6E8F4
:104FF000DF2EEE24E394F12CF02D00E021E044E0DC
:1050000050E060E070E00E94C2047DC06D817E814E
:105010008F8198850E94A434DC01CB019C01AD01F5
:1050200060E070E080E89FE30E94FC33DC01CB018C
:105030009C01AD0169817A818B819C810E948A33B8
:10504000DC01CB0189839A83AB83BC838D819E81F4
:10505000AF81B8850296A11DB11D8D839E83AF835C
:10506000B8876D817E818F8198850E94A434DC0190
:10507000CB019C01AD0160E070E080E89FE30E94FD
:10508000FC33DC01CB019C01AD0169817A818B810C
:105090009C810E948B33DC01CB0189839A83AB8393
:1050A000BC838D819E81AF81B8850296A11DB11D03
:1050B0008D839E83AF83B88720E030E040E850E4E2
:1050C00069817A818B819C810E945B35DC01CB01F7
:1050D0008093EC2C9093ED2CA093EE2CB093EF2CBE
:1050E0008091F02C9091F12CA091F22CB091F32CA6
:1050F0000196A11DB11D8093F02C9093F12CA093EB
:10510000F22CB093F32C8091EC2C9091ED2CA0918B
:10511000EE2CB091EF2C20E030E543EC57E4BC01DD
:10512000CD010E945B35DC01CB01BC01CD010E94A9
:105130007534DC01CB018F329B4CA440B10509F0E2
:10514000EECE89859A850197D9F48091272D90918B
:10515000282D48E050E060E070E00E944506809114
:10516000272D9091282D41E050E060E070E00E94F2
:10517000450680912B2D90912C2D0E942D14CFCE81
:1051800089859A85019689879A87C9CECF92DF92C1
:10519000EF92FF920F93CF93DF93CDB7DEB72A97AD
:1051A000CDBFDEBF89879A8780E090E0A0E4B0E4BD
:1051B00089839A83AB83BC8383E090E08D839E8355
:1051C0001092F02C1092F12C1092F22C1092F32CE1
:1051D0008091272D9091282D40E050E0BA010E9447
:1051E000FA05DC01CB018F8398878F8198858074C5
:1051F0009927892BC1F18091272D9091282D48E086
:1052000050E060E070E00E94FA0580E090E0A0E4E9
:10521000B0E489839A83AB83BC8383E090E08D8381
:105220009E831092F02C1092F12C1092F22C10927E
:10523000F32C1092F42C1092F52C1092F62C109264
:10524000F72C1092EC2C1092ED2C1092EE2C109268
:10525000EF2C8091272D9091282D40E450E060E0C4
:1052600070E00E94FA058F81988581709927892BBB
:1052700001F18091272D9091282D42E050E060E0CF
:1052800070E00E9445068091272D9091282D0F2EC9
:10529000F0EACF2EF6E8DF2EEE24E394F12CF02D89
:1052A00000E021E044E050E060E070E00E94C204D1
:1052B0008FCF8D819E81092E000CAA0BBB0BBC01E8
:1052C000CD010E94A634DC01CB0120E030E040E4B7
:1052D00050E4BC01CD010E94C8356B017C018D8179
:1052E0009E81092E000CAA0BBB0BBC01CD010E94B4
:1052F000A634DC01CB019C01AD01C701B6010E94BF
:105300008A33DC01CB019C01AD0160E070E080E8F4
:1053100090E40E94FC33DC01CB019C01AD0169816A
:105320007A818B819C810E948B33DC01CB01898344
:105330009A83AB83BC838D819E8102968D839E83ED
:105340008D819E81092E000CAA0BBB0BBC01CD01E7
:105350000E94A634DC01CB0120E030E040E450E4C0
:10536000BC01CD010E94C8356B017C018D819E81FD
:10537000092E000CAA0BBB0BBC01CD010E94A63468
:10538000DC01CB019C01AD01C701B6010E948A334B
:10539000DC01CB019C01AD0160E070E080E890E4AD
:1053A0000E94FC33DC01CB019C01AD0169817A8153
:1053B0008B819C810E948A33DC01CB0189839A8393
:1053C000AB83BC838D819E8102968D839E83898170
:1053D0009A81AB81BC818093EC2C9093ED2CA093AF
:1053E000EE2CB093EF2C8091F02C9091F12CA091A9
:1053F000F22CB091F32C0196A11DB11D8093F02CDD
:105400009093F12CA093F22CB093F32C8091EC2C80
:105410009091ED2CA091EE2CB091EF2C20E030E596
:1054200043EC57E4BC01CD010E945B35DC01CB01AC
:10543000BC01CD010E947534DC01CB018F329B4C45
:10544000A440B10509F0C4CE8091272D9091282D5C
:1054500048E050E060E070E00E9445068091272D12
:105460009091282D41E050E060E070E00E944506F8
:1054700080912B2D90912C2D0E942D14A9CE1F923E
:105480000F9200903F000F92112400903B000F926A
:105490002F933F934F935F936F937F938F939F933C
:1054A000AF93BF93EF93FF93CF93DF931F92CDB74B
:1054B000DEB719828091342D9091352D9E012F5F9A
:1054C0003F4F41E050E060E070E00E94B20760E0D2
:1054D00080E09BE00E94010480E09BE0FC011682DA
:1054E00000000F90DF91CF91FF91EF91BF91AF91AD
:1054F0009F918F917F916F915F914F913F912F91EC
:105500000F9000923B000F9000923F000F901F9071
:105510001895CF92DF92EF92FF920F93CF93DF9384
:1055200000D01F92CDB7DEB769837A838B839C83CB
:1055300089819A81AB81BC810297A105B10540F4B4
:1055400082E090E0A0E0B0E089839A83AB83BC83E3
:1055500080E09BE021E0FC01268380E09BE0FC01F1
:1055600010A211A260E080E09BE00E941D048981EE
:105570009A81AB81BC818E3F9F4FA105B10598F404
:1055800020E03BE089819A81AB81BC81B695A795EB
:1055900097958795F90186A397A365E080E09BE046
:1055A0000E9401041FC089819A81AB81BC81803433
:1055B0009244AF40B105B0F420E03BE089819A818C
:1055C000AB81BC81689414F8B695A795979587959B
:1055D0001694D1F7F90186A397A367E080E09BE0DA
:1055E0000E9401048091342D9091352D0F2EF4EFFF
:1055F000CF2EDD24D394E12CF12CF02D00E021E01E
:1056000041E050E060E070E00E94C2040000249697
:10561000CDBFDEBFDF91CF910F91FF90EF90DF9074
:10562000CF900895CF93DF931F92CDB7DEB78983D4
:1056300089818F70898389818295807F898380E0C9
:1056400096E020E036E0F901348129812F602323A0
:10565000FC01248380E096E020E036E0F90134810B
:105660002981232BFC01248300000F90DF91CF912F
:105670000895CF93DF931F92CDB7DEB789838981D9
:10568000882331F080E696E021E0FC01258305C007
:1056900080E696E021E0FC01268300000F90DF9178
:1056A000CF910895CF93DF931F92CDB7DEB7898353
:1056B0008981882331F080E696E022E0FC01258391
:1056C00005C080E696E022E0FC01268300000F90F2
:1056D000DF91CF910895CF93DF931F92CDB7DEB7BF
:1056E00089838981882331F080E696E024E0FC01FB
:1056F000258305C080E696E024E0FC0126830000B7
:105700000F90DF91CF910895CF93DF93CDB7DEB7A0
:1057100081E00E946B2B61E070E080E090E00E94ED
:10572000892A80E00E946B2B0000DF91CF910895C1
:10573000CF93DF931F92CDB7DEB78983898182959E
:105740008F700E94122B80E00E94392B80E00E9413
:10575000522B0E94842B89818F700E94122B0E94F1
:10576000842B00000F90DF91CF910895CF93DF93AA
:105770001F92CDB7DEB78983898182958F700E9491
:10578000122B81E00E94392B80E00E94522B0E9454
:10579000842B89818F700E94122B0E94842B000021
:1057A0000F90DF91CF910895EF92FF920F93CF93D7
:1057B000DF93CDB7DEB780E096E020E1FC012183E6
:1057C00080E096E020E2FC01218380E096E020E486
:1057D000FC01218380E096E020E8FC01218380E643
:1057E00096E021E0FC01218380E696E022E0FC01C6
:1057F000218380E696E024E0FC01218380E096E0AE
:1058000020E036E0F90124812F70FC01248380E63A
:1058100096E020E636E0F9012481287FFC0124830C
:1058200040E066E188E00E94AB0D8093322D9093BA
:10583000332D0E949F048093342D9093352DE12CBD
:10584000F12C01E020E030E04EE551E068E870E244
:1058500082ED9CE20E942C120000DF91CF910F910B
:10586000FF90EF900895CF93DF9300D01F92CDB7B4
:10587000DEB789839A836B837C8389819A818130A7
:10588000910589F0823091051CF4892B39F01AC0FA
:105890008230910569F0039781F014C08B818058A4
:1058A0000E94982B0FC08B8180540E94982B0AC0B5
:1058B0008B818C560E94982B05C08B818C520E9444
:1058C000982B000067E270E080E090E00E94892A57
:1058D00000002496CDBFDEBFDF91CF910895CF9316
:1058E000DF931F92CDB7DEB7898389810E94B62BE3
:1058F0006BE270E080E090E00E94892A00000F9047
:10590000DF91CF910895CF93DF9300D01F92CDB751
:10591000DEB78B839C8319821A8219C089819A8190
:105920002B813C81820F931FFC0180818823A1F091
:1059300089819A812B813C81820F931FFC01808198
:105940000E946F2C89819A81019689839A8389812B
:105950009A8144971CF301C0000000002496CDBF3B
:10596000DEBFDF91CF910895CF93DF9300D000D0B9
:10597000CDB7DEB789839A836B837C834D835E8347
:105980002B813C8189819A81B9010E94332C8D81C0
:105990009E810E94832C00002696CDBFDEBFDF9142
:1059A000CF910895CF93DF93CDB7DEB7C057D1091C
:1059B000CDBFDEBF9E0121593F4FF9018083918306
:1059C00019821A821B821C821D821E8226C01F829F
:1059D00018861AC02D813E8144E1429FC001439F39
:1059E000900D11249E012F5F3F4F280F391F8F818B
:1059F0009885820F931F089620E2FC0120838F81F7
:105A0000988501968F8398878F819885449714F3A2
:105A10008D819E8101968D839E838D819E810497C9
:105A2000B4F260E47CE980E090E00E94892A83E09F
:105A30000E94122B68E873E180E090E00E94892ABE
:105A40000E94842B60EA70E080E090E00E94892A46
:105A50000E94842B60EA70E080E090E00E94892A36
:105A60000E94842B60EA70E080E090E00E94892A26
:105A700082E00E94122B0E94842B88E20E94982BC5
:105A800080E10E94982B8CE00E94982B86E00E9477
:105A9000982B68EC70E080E090E00E94FF1380910A
:105AA000342D9091352D40E050E0BA010E94FA0566
:105AB000DC01CB01892B8A2B8B2B09F496C08091BA
:105AC000342D9091352D42E050E060E070E00E946E
:105AD000FA0519821A8226C01B821C821AC02981EB
