S00E0000506943616C632E73726563EA
S11300000C9422010C944B010C944B010C944B0165
S11300100C944B010C944B010C944B010C944B012C
S11300200C944B010C944B010C944B010C944B011C
S11300300C944B010C944B010C941A060C944B0138
S11300400C944B010C944B010C944B010C944B01FC
S11300500C9449160C944B010C944B010C944B01D9
S11300600C944B010C944B010C944B010C944B01DC
S11300700C944B010C944B010C944B010C944B01CC
S11300800C944B010C944B010C944B010C944B01BC
S11300900C944B010C944B010C944B010C944B01AC
S11300A00C944B010C944B010C944B010C944B019C
S11300B00C944B010C944B010C944B010C944B018C
S11300C00C944B010C944B010C944B010C944B017C
S11300D00C944B010C944B010C944B010C944B016C
S11300E00C944B010C944B010C944B010C944B015C
S11300F00C944B010C944B010C944B010C944B014C
S11301000C944B010C944B010C944B010C944B013B
S11301100C944B010C944B010C944B010C944B012B
S11301200C944B010C944B010C944B010C944B011B
S11301300C944B010C944B010C944B010C944B010B
S11301400C944B010C944B010C944B010C944B01FB
S11301500C944B010C944B010C944B010C944B01EB
S11301600C944B010C944B010C944B010C944B01DB
S11301700C944B010C944B010C944B010C944B01CB
S11301800C944B010C944B010C944B010C944B01BB
S11301900C944B010C944B010C944B010C944B01AB
S11301A00C944B010C944B010C944B010C944B019B
S11301B00C9491160C944B010C944B010C944B0130
S11301C00C944B010C944B010C944B010C944B017B
S11301D00C944B010C944B010C944B010C944B016B
S11301E00C944B010C944B010C944B010C944B015B
S11301F00C944B010C944B010C944B012C132C13B9
S11302002C137913611376132C132C1379136113A4
S11302100C9479140C9479130C94FD130C94050428
S11302200C9430180C9470120C941A150C946113DD
S11302300C9476130C946C150C942C130C943714A6
S11302400C942F0A11241FBECFEFCDBFDFE3DEBF16
S113025000E00CBFE4E0FDE28AEA90E48193E03040
S1130260F907E0F310E2A0E0B0E2ECE9F4E400E026
S11302700BBF02C007900D92AE36B107D9F72DE23D
S1130280AEE6B0E201C01D92A430B207E1F70E94CD
S1130290E3150C944C220C940000E0EAF6E080E1B3
S11302A0828380E2828380E4828380E8828308956B
S11302B08091A80684FD0EC08091742090917520D1
S11302C080362AEE9207E8F4019680937420909386
S11302D0752017C080917420909175208B30910502
S11302E048F0C39718F01092F02C07C081E0809377
S11302F0F02C03C082E08093F02C109274201092B2
S113030075208091A80685FD0EC080917220909181
S1130310732080362AEE9207E8F4019680937220C7
S11303209093732017C080917220909173208B302A
S1130330910548F0C39718F01092F12C07C081E0A2
S11303408093F12C03C082E08093F12C10927220F0
S1130350109273208091A80686FD0EC080917020B3
S11303609091712080362AEE9207E8F401968093EA
S113037070209093712017C080917020909171200B
S11303808B30910548F0C39718F01092F22C07C0F7
S113039081E08093F22C03C082E08093F22C1092CF
S11303A07020109271208091A806882374F08091A7
S11303B06E2090916F2080362AEE9207E8F4019621
S11303C080936E2090936F20089580916E20909179
S11303D06F208B30910548F0C39718F01092F32CDE
S11303E007C081E08093F32C03C082E08093F32C58
S11303F010926E2010926F200895813049F028F0F9
S1130400823049F0833051F00CC08091F02C089573
S11304108091F12C08958091F22C08958091F32C11
S1130420089582E008950F93CF93DF931F92CDB781
S1130430DEB72FB72983F8941BBEFC0108ED04BF77
S1130440608389818FBF0F90DF91CF910F910895C1
S1130450611102C090E001C090E2842B892B80934B
S1130460520008956F71862B809355000895E0E53E
S1130470F0E09081282F2095922390839081892306
S11304800895682B81E490E00E94130208950F936D
S11304901F93CF93C82F00E410E0F8016081687FB8
S11304A0682B80E490E00E941302F80180818C2381
S11304B0CF911F910F910895FC019081907F692B3A
S11304C060830895FC019181987F692B618308956D
S11304D0FC0196819C7F692B66830895000088ED5A
S11304E084BF81E08093790008950E946E0208958C
S11304F0CF93DF9380E190E00E941504EC01009714
S113050041F0FC011192119211921192CF010E94BB
S11305103C04CE01DF91CF9108952F923F924F92E8
S11305205F926F927F928F929F92AF92BF92CF927F
S1130530DF92EF92FF920F931F93CF93DF93EC011F
S11305404A015B01622E702E0E94890B288039803B
S11305504A805B8001110DC081E0B201A1014821F4
S113056059216A217B21452B462B472B79F480E0C6
S11305700DC081E0B201A101482159216A217B21EA
S1130580481559056A057B0509F080E0882381F048
S1130590662009F470C080949094A094B094822052
S11305A09320A420B52088829982AA82BB8263C04A
S11305B0C114D104E104F10409F45DC0662029F0FA
S11305C040E050E060E071E003C040E050E0BA0178
S11305D071107460482959296A297B299701860179
S11305E0CE0104960E94B80D0E94740C811102C0C1
S11305F00E949A050E94F50E91FD39C0F091A20067
S1130600FF93F87FF093A200688179818A819B81AE
S113061071100DC021E075016401C622D722E822C1
S1130620F922CD28CE28CF2879F420E00DC021E08E
S113063075016401C622D722E822F922C814D9041C
S1130640EA04FB0409F020E0222371F0662061F043
S113065080949094A094B09486229722A822B922E0
S113066088829982AA82BB82FF91F093A2001B0127
S11306702C01552402C00E94740CC201B101DF9107
S1130680CF911F910F91FF90EF90DF90CF90BF908B
S1130690AF909F908F907F906F905F904F903F901E
S11306A02F9008950F931F93F091A200FF93F87F6A
S11306B0F093A200FC0100811181228133814095D5
S11306C05095609570954023512362237323408392
S11306D0518362837383FF91F093A200C901B8012F
S11306E01F910F9108954F925F926F927F92AF92F4
S11306F0BF92CF92DF92EF92FF920F931F93CF930B
S1130700DF93EC016A017B018C01095F1F4F0E949A
S1130710890BEB85FC8588819981AA81BB81C82AD4
S1130720D92AEA2AFB2AC882D982EA82FB820E17D6
S11307301F0709F442C0C12CD12C7601A480B580D6
S113074080819181A281B381AC01BD017727B2FD83
S11307500FC0488059806A807B80442255226622DB
S1130760772221E045284628472889F420E00FC055
S1130770488059806A807B804422552266227722F1
S113078021E0441655066606770609F020E0222388
S113079071F0B0FF04C0C42AD52AE62AF72A48819A
S11307A059816A817B817260CF010E94400EEA2DDB
S11307B0FB2D0E171F0711F603C0C12CD12C760197
S11307C0C094D094E094F09488819981AA81BB81EB
S11307D0C822D922EA22FB22C882D982EA82FB8279
S11307E00E94740C688179818A819B81DF91CF9109
S11307F01F910F91FF90EF90DF90CF90BF90AF903B
S11308007F906F905F904F9008950E9473030895B6
S11308100F931F9389019A01AB01BC0185E094E019
S11308200E949F131F910F910895CF93DF93EC01C2
S11308300E94890B2091762030917720C9018C0F7A
S11308409D1F883B4BE0940758F42817390758F448
S1130850E901C858DF4D809376209093772005C036
S1130860C0E0D0E002C0C0E0D0E00E94740CCE0131
S1130870DF91CF9108950895FC01039681839283BB
S11308804FEF5FEFBA014383548365837683878395
S113089090878187928710820895FC0112861386BF
S11308A00895CF93DF939C01FB01DC011196CD9158
S11308B0DC911297C483D5838E819F81868397832D
S11308C08E819F81DC0114966D937C9315976E83C2
S11308D07F8322873387F90180818F5F8083DF9153
S11308E0CF9108950F931F93CF93DF93EB0108816A
S11308F019812A813B810F3F4FEF140724073407E6
S113090021F4FC01A185B28511C0DC01139601C05C
S1130910DF011496ED91FC9115974081518162811C
S11309207381041715072607370790F71496ED917E
S1130930FC911597EC83FD83C683D783AE83BF8375
S11309401496CD93DC9315978A879B87FC012081AD
S11309502F5F2083DF91CF911F910F910895CF9343
S1130960DF93FC01A285B385C481D58186819781FB
S11309708E839F83C681D781848195818C839D8357
S113098011968D919C911297E817F90731F486819D
S1130990978111968D939C931297128613868C914E
S11309A081508C938C91DF91CF910895E0EAF0E02F
S11309B082819281987F92830895CF92DF92EF9201
S11309C0FF9231E1FC013083319722E22083319799
S11309D0A3E3A0836B01E12CF12C31976083319761
S11309E0D0823197E082319761E36083319760E888
S11309F06083319767E86083319710823197108262
S1130A00319762E06083319763E06083319764E0FB
S1130A106083319765E06083319766E06083319746
S1130A2067E06083319768E06083319769E06083B1
S1130A30319760E1608331973083319732E13083BD
S1130A40319733E13083319734E13083319735E1A5
S1130A503083319736E13083319737E130833197F2
S1130A6038E13083319739E13083319730E2308394
S1130A70319731E2308331972083319723E2208309
S1130A806A01319740833197D082319726E22083DF
S1130A90319727E22083319728E22083319729E296
S1130AA02083319720E320838897FF90EF90DF9095
S1130AB0CF90089583EF91E08093260890932708C0
S1130AC065E080E098E00E945C0261E080E098E0EC
S1130AD00E946802A0919E2CB0919F2C0D900DBE97
S1130AE00D900EBEEF91DF91CF91BF91AF919F9189
S1130AF08F917F916F915F914F913F912F911F91B2
S1130B000F91FF90EF90DF90CF90BF90AF909F90A8
S1130B108F907F906F905F904F903F902F901F9099
S1130B200F90FF91F093A200FF91FFBFFF910895F2
S1130B3081E00895FF93FFB7FF93F091A200FF9324
S1130B40F87FF093A2000F921F9211242F923F92EC
S1130B504F925F926F927F928F929F92AF92BF92C9
S1130B60CF92DF92EF92FF920F931F932F933F93B5
S1130B704F935F936F937F938F939F93AF93BF93A1
S1130B80CF93DF93EF93A0919E2CB0919F2C0DB641
S1130B900D920EB60D920E94120DA0919E2CB09152
S1130BA09F2C0D900DBE0D900EBEEF91DF91CF9155
S1130BB0BF91AF919F918F917F916F915F914F9171
S1130BC03F912F911F910F91FF90EF90DF90CF9065
S1130BD0BF90AF909F908F907F906F905F904F9059
S1130BE03F902F901F900F90FF91F093A200FF91E0
S1130BF0FFBFFF910895CF939091F42C892B80939C
S1130C00F42C9091A000913041F09091A00092308A
S1130C1021F09091A000943059F4882349F00E9467
S1130C20D604C82F1092F42C0E94120DC093A20077
S1130C30CF910895FF93FFB7FF93F091A200FF9324
S1130C40F87FF093A2000F921F9211242F923F92EB
S1130C504F925F926F927F928F929F92AF92BF92C8
S1130C60CF92DF92EF92FF920F931F932F933F93B4
S1130C704F935F936F937F938F939F93AF93BF93A0
S1130C80CF93DF93EF93A0919E2CB0919F2C0DB640
S1130C900D920EB60D920E94D604C82F0E94A10B8D
S1130CA0C093A20081E00E94FB05A0919E2CB0910C
S1130CB09F2C0D900DBE0D900EBEEF91DF91CF9144
S1130CC0BF91AF919F918F917F916F915F914F9160
S1130CD03F912F911F910F91FF90EF90DF90CF9054
S1130CE0BF90AF909F908F907F906F905F904F9048
S1130CF03F902F901F900F90FF91F093A200FF91CF
S1130D00FFBFFF911895F091A200FF93F87FF09335
S1130D10A200FC01968DFF91F093A20081E0911155
S1130D2080E00895DC01F091A200FF93F87FF09336
S1130D30A2005E969C915E97FF91F093A20081E0E1
S1130D405F962C91291380E008950F931F93CF93FE
S1130D50DF93EC01042F1E8D48A14423B9F1011146
S1130D6016C050E08C819D810E942A1F28A18C818D
S1130D709D81820F911D8C839D832A813B818217E3
S1130D80930720F1888199818C839D831FC050E053
S1130D908E819F810E942A1F88A190E09195819560
S1130DA091092E813F81280F391F2E833F8348816B
S1130DB059812417350730F42A813B81820F931F10
S1130DC08E839F83023011F4111111501F5F1E8F07
S1130DD080E0DF91CF911F910F910895FC0140A114
S1130DE04423A9F050E026813781240F351F268340
S1130DF03783828193812817390720F0808191817C
S1130E0086839783CB01668177810E942A1F089588
S1130E10EF92FF920F931F93CF938C01F091A20056
S1130E20FF93F87FF093A200FC01C2A11C16ACF45E
S1130E308389811106C011C0F8018389811105C01D
S1130E400CC07801F3E1EF0EF11CC7010E94FE0D06
S1130E5081110E94E30EC15079F78FEFF80182A34C
S1130E60FF91F093A200F091A200FF93F87FF0931A
S1130E70A200F801C1A11C16ACF48085811106C042
S1130E8011C0F8018085811105C00CC07801F8E01B
S1130E90EF0EF11CC7010E94FE0D81110E94E30EAA
S1130EA0C15079F78FEFF80181A3FF91F093A2006D
S1130EB0CF911F910F91FF90EF900895CF93DF93FF
S1130EC0EC01F091A200FF93F87FF093A200488117
S1130ED0598128A130E07F8D729FC001739F900DCE
S1130EE01124FA01E80FF91FEA83FB831E8E4C8359
S1130EF05D83821B930B840F951F8E839F838FEFDB
S1130F0089A38AA361110CC08885882389F0CE0146
S1130F1008960E94FE0D882359F00E949A0508C085
S1130F20CE0108960E943C04CE0143960E943C04E4
S1130F30FF91F093A20081E0DF91CF910895FF9299
S1130F400F931F93CF93DF93082F162FF42E66234E
S1130F50C9F0869FC001112485960E941504EC01F6
S1130F60009749F416C00F8F18A361E0CE010E94C8
S1130F705E07FCA20EC0859688839983F4CFC8834C
S1130F80D983F1CF85E290E00E941504EC01892B0E
S1130F90B1F7CE01DF91CF911F910F91FF9008958A
S1130FA0AF92BF92CF92DF92EF92FF920F931F9373
S1130FB0CF93DF93CDB7DEB72997CDBFDEBF7C01DA
S1130FC05B012E833F834887598710E06C0188E0DA
S1130FD0C80ED11CF091A200FF93F87FF093A200F9
S1130FE0F701968D878D981710F00230D1F4402FB9
S1130FF0B501C7010E94A506F7019389992349F019
S1131000C70143960E94FE0D882331F00E949A0581
S113101003C081110E949A05FF91F093A20081E020
S113102057C08E819F81A885B985892B8A2B8B2BEC
S113103029F4FF91F093A20080E04AC0111105C089
S1131040CE0101960E94740E11E0FF91F093A2006C
S11310500E94890BF091A200FF93F87FF093A20005
S1131060F70181A18F3F09F411A2F70182A18F3FFB
S113107009F412A2FF91F093A200BE016A5F7F4FB0
S1131080CE0101960E94850E81111CC0C7010E94E9
S11310909206882389F04E815F8168857985C6012F
S11310A00E94A00DC7010E9408070E94740C8111C0
S11310B091CF0E949A058ECFC7010E9408070E9413
S11310C0740C88CFC7010E9408070E94740C80E04A
S11310D02996CDBFDEBFDF91CF911F910F91FF9075
S11310E0EF90DF90CF90BF90AF900895AF92BF92F2
S11310F0CF92DF92FF920F931F93CF93DF93EC0174
S11311006B015A01022F0E94D604F82E9E8D8F8DFA
S1131110981710F00230E1F41AA1402FB601CE0165
S11311200E94A5061F3F81F48B89882399F0CE0184
S113113043960E94FE0D882379F0A114B10471F046
S113114081E0F50180830BC01F5F1AA381E007C013
S113115080E005C081E003C081E001C081E0F0923D
S1131160A200DF91CF911F910F91FF90DF90CF905C
S1131170BF90AF900895AF92BF92CF92DF92EF925B
S1131180FF920F931F93CF93DF93CDB7DEB72997C9
S1131190CDBFDEBF8C015B012E833F834887598717
S11311A0E12C6C0183E1C80ED11CF091A200FF93E5
S11311B0F87FF093A200F801F68CFF20B1F0B5019E
S11311C0C8010E94EE06FA94F801F68E8085882301
S11311D039F0C80108960E94FE0D81110E949A05FB
S11311E0FF91F093A20081E05EC08E819F81A8856B
S11311F0B985892B8A2B8B2B29F4FF91F093A200BC
S113120080E051C0E11006C0CE0101960E94740E28
S1131210EE24E394FF91F093A2000E94890BF091D5
S1131220A200FF93F87FF093A200F80181A18F3F01
S113123009F411A2F80182A18F3F09F412A2FF91CF
S1131240F093A200BE016A5F7F4FCE0101960E9417
S1131250850E81111CC0C8010E948306882389F071
S11312604E815F8168857985C6010E94A00DC80101
S11312700E9408070E94740C811197CF0E949A055E
S113128094CFC8010E9408070E94740C8ECFC80135
S11312900E9408070E94740CC8010E9483068823D8
S11312A009F483CF80E02996CDBFDEBFDF91CF91D3
S11312B01F910F91FF90EF90DF90CF90BF90AF9070
S11312C00895F091A200FF93F87FF093A200FC012F
S11312D0868DFF91F093A2000895CF93DF93EC01E4
S11312E0F091A200FF93F87FF093A20089A18F3FB1
S11312F009F419A28AA18F3F09F41AA2FF91F0936D
S1131300A2008E8D811104C0CE0143960E94DD0D92
S1131310CE010E940807DF91CF910895E0915A2CE5
S1131320F0915B2C808181110CC08FEF9FEFDC0169
S11313308093332C9093342CA093352CB093362C7B
S11313400895E0915A2CF0915B2C0780F085E02DF4
S11313500084F185E02D82819381A481B5818093FD
S1131360332C9093342CA093352CB093362C0895C1
S11313708F929F92AF92BF92CF92DF92EF92FF92A1
S1131380CF936B017C01C42F80903D2C90903E2C18
S1131390A0903F2CB090402C80919E2C90919F2C3B
S11313A002960E94AF048FEFC816D806E806F80626
S11313B069F4CC2359F060919E2C70919F2C6E5F40
S11313C07F4F82E49CE20E9451043FC0C80CD91CA8
S11313D0EA1CFB1CE0919E2CF0919F2CC282D382CC
S11313E0E482F582C814D904EA04FB0468F4609129
S11313F09E2C70919F2C8091582C9091592C6E5F4B
S11314007F4F0E94720421C060919E2C70919F2C8A
S113141080915A2C90915B2C6E5F7F4F0E947204D6
S11314208091332C9091342CA091352CB091362C92
S1131430C816D906EA06FB0640F4C092332CD092B3
S1131440342CE092352CF092362CCF91FF90EF9013
S1131450DF90CF90BF90AF909F908F900895C2E798
S1131460DCE28881823010F00E949A050E94D01537
S1131470F8CF4F925F926F927F928F929F92AF922A
S1131480BF92CF92DF92EF92FF920F93CF93DF93AD
S11314904C016B015A012901CA010E9415043C0147
S11314A0892B09F4EAC08CE290E00E941504EC0157
S11314B0892BB1F06B8E7C8EA50165EA70E0C301C7
S11314C00E94331F21E0A21AB1088B8D9C8DA80EB7
S11314D0B91ED6018C918D8F8C91811105C018C0D5
S11314E0C3010E943B04C9C0AE01425E5F4FF601D6
S11314F03196B8E0CB0ED11CCF012191DA012D93A6
S1131500AD01DC018C91882319F0EC15FD05A1F7E0
S11315101CA2043008F003E00A8F6E01B2E0CB0E87
S1131520D11CC6010E944D04CE010E960E944D04AA
S1131530CA87DB8784E090E0A0E0B0E0801B9109DB
S1131540A109B1098E879F87A88BB98BCE8BDF8BBE
S11315501FA218A619A61AA61BA6A201B401C501AA
S11315600E94DD0488839983E114F10419F0F701E2
S1131570C083D183F091A200FF93F87FF093A2007F
S11315808091412C8F5F8093412C80919E2C90916F
S11315909F2C892BA9F5C0939E2CD0939F2C8091CE
S11315A0412C8130E9F582E79CE20E943C048DE7FE
S11315B09CE20E943C0488E89CE20E943C0483E98B
S11315C09CE20E943C0487E69CE20E943C048CE579
S11315D09CE20E943C048DE49CE20E943C0482E470
S11315E09CE20E943C0487E69CE280935A2C9093F0
S11315F05B2C8CE59CE28093582C9093592C10C062
S113160080913B2C81110CC0E0919E2CF0919F2C79
S1131610928D8A8D891720F0C0939E2CD0939F2C95
S11316208091372C8F5F8093372C8DA38A8D909176
S11316303C2C981710F480933C2CFBE08F9FC00146
S11316401124B6018E58934D0E945104FF91F093DA
S1131650A20080913B2C882361F0E0919E2CF091B4
S11316609F2C928D8A8D981730F40E949A0581E000
S113167005C081E003C081E001C08FEFDF91CF910D
S11316800F91FF90EF90DF90CF90BF90AF909F901D
S11316908F907F906F905F904F900895EF92FF929C
S11316A00F930F2EF1E3EF2EFCE2FF2EF02D00E05E
S11316B020E030E048EC50E060E070E28FE29AE035
S11316C00E94390A813009F50E945D118130E9F4E4
S11316D0E0EAF0E08281887F82838FEF9FEFDC0174
S11316E08093332C9093342CA093352CB093362CC8
S11316F081E080933B2C10923D2C10923E2C109252
S11317003F2C1092402C0E945A050F91FF90EF90AD
S113171008958091302C8F5F8093302C0895F09140
S1131720A200FF93F87FF093A20060913D2C70918A
S11317303E2C80913F2C9091402CFF91F093A2007D
S11317400895AF92BF92CF92DF92EF92FF920F93E0
S11317501F93CF93DF938091302C8111ADC0C09043
S11317603D2CD0903E2CE0903F2CF090402C8FEFFD
S1131770C81AD80AE80AF80AC0923D2CD0923E2C26
S1131780E0923F2CF092402CC114D104E104F10406
S1131790B9F480915A2C90915B2C2091582C309163
S11317A0592C20935A2C30935B2C8093582C909373
S11317B0592C8091382C8F5F8093382C0E948E098D
S11317C08091332C9091342CA091352CB091362CEF
S11317D0C816D906EA06FB0610F4B12C5CC0B12C7D
S11317E00F2EFBE0AF2EF02DE0915A2CF0915B2CE4
S11317F0808181110CC08FEF9FEFDC018093332C2B
S11318009093342CA093352CB093362C44C0E091A3
S11318105A2CF0915B2C0780F085E02DC085D18592
S11318208A819B81AC81BD81C816D906EA06FB0674
S113183048F48093332C9093342CA093352CB0939C
S1131840362C29C08E010E5F1F4FC8010E94AF04C1
S1131850888D998D892B21F0CE010E960E94AF04BC
S11318608A8D90913C2C981710F480933C2CA89E60
S1131870C0011124B8018E58934D0E945104E09187
S11318809E2CF0919F2C9A8D828D981708F4ACCFE2
S1131890BB24B394A9CFE0919E2CF0919F2CE28DB0
S11318A08BE0E89FF0011124EE58F34D80818230E3
S11318B048F0BB24B39406C080913A2C8F5F809388
S11318C03A2CB12C8091392C882311F0BB24B39489
S11318D08B2DDF91CF911F910F91FF90EF90DF90AF
S11318E0CF90BF90AF900895CF92DF92EF92FF9286
S11318F00F931F93CF93DF93F091A200FF93F87F90
S1131900F093A2008091302C81508093302C8091F0
S1131910302C81115CC08091412C81112CC05AC0A3
S1131920D7011796ED91FC911897C085D185CE010A
S11319300E960E94AF048E010E5F1F4FC8010E94D5
S1131940AF048A8D90913C2C981710F480933C2C12
S1131950D89EC0011124B8018E58934D0E945104A1
S1131960E0919E2CF0919F2C9A8D828D981788F08F
S1131970C092392C0EC0C0E0D0E00F2EFDE4EF2E53
S1131980FCE2FF2EF02D0F2EFBE0DF2EF02DCC24F9
S1131990C394F70180818111C3CFCD2B11F00E9434
S11319A08E09C0913A2CCC2351F0D1E00E94A10BB6
S11319B08111D093392CC150C9F710923A2C8091DF
S11319C0392C882331F00E949A0581E003C080E01D
S11319D001C080E0FF91F093A200DF91CF911F91AD
S11319E00F91FF90EF90DF90CF900895CF92DF9208
S11319F0EF92FF926B017C01672B682B692B59F0E6
S1131A000E94890B40E0C701B6010E94B8090E94F8
S1131A10740C811102C00E949A05FF90EF90DF9030
S1131A20CF9008958091302C882321F081E0809319
S1131A30392C08951092392CE0919E2CF0919F2C12
S1131A40038CF48DE02D80819181A281B381853A4C
S1131A50954AA54AB54AD9F484819581A681B7816E
S1131A60853A954AA54AB54A91F480859185A2851F
S1131A70B385853A954AA54AB54A49F4848595853E
S1131A80A685B785853A954AA54AB54A61F060911D
S1131A909E2C70919F2C80919E2C90919F2C635E24
S1131AA07F4F0E94750280913C2C282F30E09BE0F0
S1131AB0899FF0011124EE58F34D908191110EC0CD
S1131AC04BE08150282F30E0429FF001439FF00DFE
S1131AD01124EE58F34D9081992399F39BE0929F42
S1131AE0A001939F500D1124DA01AE58B34D119605
S1131AF0ED91FC9112970480F581E02D1196ED9300
S1131B00FC9312974B58534DE417F50729F444817D
S1131B105581FD01418352839BE0929FF001939F85
S1131B20F00D1124EE58F34D0180F281E02D208553
S1131B30318520939E2C30939F2C80933C2C0895C8
S1131B40CF92DF92EF92FF926A017B0160919E2C0B
S1131B5070919F2C625F7F4F0E94720441E0C70125
S1131B60B6010E94B809FF90EF90DF90CF900895DE
S1131B70CF92DF92EF92FF920F931F936801790146
S1131B80E0919E2CF0919F2C706846875787608B5C
S1131B90718B60919E2C70919F2C625F7F4F0E948D
S1131BA0510441E0C701B6010E94B8091F910F9189
S1131BB0FF90EF90DF90CF900895CF92DF92EF9255
S1131BC0FF92CF936A017B01C22F60919E2C70918A
S1131BD09F2C625F7F4F0E945104CC2321F0CC24C0
S1131BE0CA94DC2C76014C2FC701B6010E94B809B7
S1131BF0CF91FF90EF90DF90CF9008950F931F93B4
S1131C00CF93DF93DC011796ED91FC911897C08573
S1131C10D1858E01025F1F4FC8010E94AF048091DD
S1131C20302C811116C00C501109C8010E94AF0458
S1131C308A8D90913C2C981710F480933C2CBBE037
S1131C408B9FC0011124B8018E58934D0E945104FA
S1131C5005C0B8018DE49CE20E945104E0919E2CE1
S1131C60F0919F2C9A8D828D891720F481E08093C6
S1131C70392C01C080E0DF91CF911F910F9108951D
S1131C800F931F93CF93DF937068FC0140835183BC
S1131C9062837383C085D1850E94AF048E010E5F79
S1131CA01F4FC8010E94AF048A8D90913C2C981755
S1131CB010F480933C2CFBE08F9FC0011124B801E9
S1131CC08E58934D0E945104E0919E2CF0919F2CCC
S1131CD09A8D828D891718F481E08093392CDF91D5
S1131CE0CF911F910F9108952091382CFC012083EE
S1131CF040913D2C50913E2C60913F2C7091402C92
S1131D0041835283638374830895CF92DF92EF9269
S1131D10FF920F931F93CF93DF93DB01F091A20007
S1131D20FF93F87FF093A20040913D2C50913E2CFC
S1131D3060913F2C7091402C0D911D912D913C91FF
S1131D4013970F3FCFEF1C072C073C0769F1FC01E9
S1131D50C180D280E380F480E091382CEC01F881DA
S1131D60FE1729F04C155D056E057F05F8F44C1936
S1131D705D096E097F09401751076207730768F40C
S1131D80FD01041B150B260B370B008311832283E3
S1131D9033830E94740E80E00AC01D921D921D922E
S1131DA01C92139781E003C080E001C081E0FF91A1
S1131DB0F093A200DF91CF911F910F91FF90EF90CC
S1131DC0DF90CF90089581E08093392C089580911D
S1131DD03B2C882331F08091302C882321F080E043
S1131DE0089581E0089582E00895CF92DF92EF9202
S1131DF0FF92E0919E2CF0919F2C668577858089D7
S1131E009189E0919E2CF0919F2CA0919E2CB091F1
S1131E109F2C5A962C91C12CD12C76016894C2F82F
S1131E20C21AD108E108F108C686D786E08AF18A89
S1131E30FF90EF90DF90CF9008954F925F926F9252
S1131E407F928F929F92AF92BF92CF92DF92EF9246
S1131E50FF920F931F9349015A01F091A200FF933F
S1131E60F87FF093A200E0919E2CF0919F2C23A583
S1131E70223041F1E0919E2CF0919F2C47A050A478
S1131E8061A472A4DC01CB0180959095A095B095D6
S1131E9084219521A621B72187A390A7A1A7B2A742
S1131EA0E0919E2CF0919F2C81E083A7C114D10472
S1131EB0E104F10439F041E0C701B6010E94B80918
S1131EC00E949A05FF91F093A200F091A200FF9363
S1131ED0F87FF093A2000115110569F0E0919E2CA2
S1131EE0F0919F2C87A190A5A1A5B2A5F8018083AC
S1131EF09183A283B383E0919E2CF0919F2C83A5C0
S1131F008230B1F4E0919E2CF0919F2C87A190A592
S1131F10A1A5B2A580949094A094B094882299220B
S1131F20AA22BB2287A290A6A1A6B2A681E001C0E4
S1131F3080E0E0919E2CF0919F2C13A6FF91F093EA
S1131F40A2001F910F91FF90EF90DF90CF90BF9070
S1131F50AF909F908F907F906F905F904F90089577
S1131F60CF92DF92EF92FF920F931F93CF93DF9361
S1131F70DC01F091A200FF93F87FF093A200011519
S1131F80110559F09796CD90DD90ED90FC909A97BD
S1131F90F801C082D182E282F3829B968C919B9756
S1131FA092E09B969C939B972230D1F018F42130B9
S1131FB031F036C0233029F1243051F131C09796E5
S1131FC00D911D912D913C919A97402B512B622B91
S1131FD0732B97964D935D936D937C939A9720C042
S1131FE097964D915D916D917C919A974F5F5F4F5C
S1131FF06F4F7F4F97964D935D936D937C939A9714
S11320000FC097964D935D936D937C939A9708C0F8
S1132010823059F197964D935D936D937C939A9783
S1132020813029F5ED018D010E5F1F4FC8010E941B
S1132030AF048A8D90913C2C981710F480933C2C1B
S1132040FBE08F9FC0011124B8018E58934D0E946C
S11320505104E0919E2CF0919F2C9A8D828D8917CA
S113206040F40E949A0581E005C080E003C081E04D
S113207001C081E0FF91F093A200DF91CF911F9105
S11320800F91FF90EF90DF90CF9008958F929F92E1
S1132090AF92BF92CF92DF92EF92FF920F931F9372
S11320A0CF93DF93EC014A015B01D22E0E94D60448
S11320B0C82E0115110549F08FA198A5A9A5BAA5A7
S11320C0F80180839183A283B3838BA592E09BA7BD
S11320D0D916D1F09D1520F0F1E0DF1641F02CC0A7
S11320E023E0D216F1F094E0D91601F125C04FA1F6
S11320F058A569A57AA5842A952AA62AB72A8FA263
S113210098A6A9A6BAA618C04FA158A569A57AA5EC
S11321104F5F5F4F6F4F7F4F4FA358A769A77AA7B1
S11321200BC08FA298A6A9A6BAA606C08230D9F180
S11321308FA298A6A9A6BAA68130B9F58091302CB1
S1132140811117C08E010E5F1F4FC8010E94AF049A
S11321508A8D90913C2C981710F480933C2CEBE0E2
S11321608E9FC0011124B8018E58934D0E945104D2
S113217007C0BE01625F7F4F8DE49CE20E94510460
S1132180E0919E2CF0919F2C9A8D828D891778F482
S1132190E114F10421F081E0F701808309C081E0BA
S11321A08093392C05C080E003C081E001C081E048
S11321B0C092A200DF91CF911F910F91FF90EF90F9
S11321C0DF90CF90BF90AF909F908F900895CF9263
S11321D0DF92EF92FF920F931F93FC01428353838C
S11321E06483758382879387041715072607370747
S11321F0C0F00C191D092E093F0986859785A08911
S1132200B189081719072A073B0700F5BF016E5F5C
S11322107F4F8091A82C9091A92C0E94720480E099
S113222018C00C151D052E053F0528F44C155D0539
S11322306E057F0568F4BF016E5F7F4F8091AA2C05
S11322409091AB2C0E94720480E003C081E001C035
S113225081E01F910F91FF90EF90DF90CF90089550
S1132260F091A200FF93F87FF093A2008091A62C36
S11322709091A72C892BE9F487EB9CE20E943C0403
S11322808CEA9CE20E943C0487EB9CE28093AA2C9B
S11322909093AB2C8CEA9CE28093A82C9093A92C6D
S11322A040E069E085E00E949F078093A62C90930C
S11322B0A72CFF91F093A2000895EF92FF920F9341
S11322C00E9430118091A62C9091A72C892B91F01B
S11322D00F2EF4EAEF2EFCE2FF2EF02D03E020E0B7
S11322E030E048EC50E065E070E280E792E10E9463
S11322F0390A01C080E00F91FF90EF9008958F920A
S11323009F92AF92BF92CF92DF92EF92FF920F9380
S11323101F93CF93DF93CDB7DEB72997CDBFDEBF31
S1132320E091A62CF091A72C309789F169832A8338
S11323303B834C835D838E839F836630FCF40E94D1
S1132340E70E823069F400E0A7019601BE016F5FD9
S11323507F4F8091A62C9091A72C0E94D00718C083
S113236000E020E030E0A901BE016F5F7F4F809163
S1132370A62C9091A72C0E94D0070AC020E0A801A7
S1132380BE016F5F7F4FCF010E94760801C080E0DD
S11323902996CDBFDEBFDF91CF911F910F91FF90A2
S11323A0EF90DF90CF90BF90AF909F908F90089563
S11323B02F923F924F925F926F927F928F929F9251
S11323C0AF92BF92CF92DF92EF92FF920F931F933F
S11323D0CF93DF931C010E948F0B2B013C01809152
S11323E0A02C9091A12CA091A22CB091A32C4816C2
S11323F059066A067B0608F054C03CC00780F08585
S1132400E02D80809180A280B380C085D1858E012B
S11324100E5F1F4FC8010E94AF04ED89FE89CE01F3
S113242019958A89813031F58E859F85A889B98966
S1132430880D991DAA1DBB1D88169906AA06BB0600
S113244070F48A839B83AC83BD83CA87DB87B8011E
S11324508091AA2C9091AB2C0E9472040BC0C12CC9
S1132460D12C760100E010E0A501940160E0CE01DA
S11324700E947F11E091AA2CF091AB2C80818111F4
S1132480BDCF8091A82C9091A92C8093AA2C9093D5
S1132490AB2CE093A82CF093A92C81E0F10180836C
S11324A002C0F10110824092A02C5092A12C6092A3
S11324B0A22C7092A32CC301B201DF91CF911F9182
S11324C00F91FF90EF90DF90CF90BF90AF909F90CF
S11324D08F907F906F905F904F903F902F900895D2
S11324E0CF93DF93CDB7DEB72E97CDBFDEBFCE013E
S11324F001961C01A82EB32CE091AA2CF091AB2CD0
S11325008081882309F403C10780F085E02D408091
S11325105180628073800E94890BC1010E94D8118E
S11325206B877C878D879E87898181115EC08B85AF
S11325309C85AD85BE8584159505A605B705E8F18E
S11325400E94740CE091AA2CF091AB2C0780F085CA
S1132550E02D80849184C40102960E94AF04D401CA
S113256052968C915297813001F51E964D915D9152
S11325706D917C915197440D551D661D771D730116
S113258062010B851C852D853E85C4010E94E710E0
S1132590882359F0C12CD12C760100E010E0A3016E
S11325A0920160E0C4010E947F11D4015596ED911F
S11325B0FC915697C40119959CC020E0B301A20177
S11325C08B859C85AD85BE85481B590B6A0B7B0B9F
S11325D08091A62C9091A72C0E946D090E94740CE6
S11325E0811187C00E949A0584C00E94740C81C026
S11325F0898188236CF44E815F8168857985EA81BD
S1132600FB818C819D811995898188230CF471C08B
S11326108E809F80D4011C968D919C911D97892B4F
S113262021F0C40102960E94AF04CE010A960E94D2
S1132630D8118B019C018981082E000C990BAA0BDF
S1132640BB0B8A30910508F054C0FC018827E25086
S1132650FF4F8F4F0C940E1FCA80DB80EC80FD80EF
S1132660F40146855785608971894C0D5D1D6E1D89
S11326707F1DC4010E94E7108823D9F1D401559627
S1132680ED91FC915697C4011995F401828981302A
S113269081F54A815B816C817D8186859785A089DE
S11326A0B1899A01AB01280F391F4A1F5B1FC12C46
S11326B0D12C760100E010E060E0C4010E947F119B
S11326C018C04A815B816C817D81D4011E964D9333
S11326D05D936D937C935197400F511F621F731F3D
S11326E068017901C4010E94E71003C0C4010E947B
S11326F03B0420E030E0A9016A2D7B2D8091A62CBB
S11327009091A72C0E94BB08811172CFF5CE0E9434
S1132710890BC1010E94D8116B877C878D879E87A6
S11327208981811162CFE091A82CF091A92C80813C
S113273021E0811120E0412C512C32013FCF0F9335
S11327401F93CF93DF93CDB7DEB72997CDBFDEBFFD
S1132750EEEFE9838A839B836C837D832E833F839F
S11327604887598720E0A801BE016F5F7F4F8091A1
S1132770A62C9091A72C0E9476082996CDBFDEBF87
S1132780DF91CF911F910F910895E0E5F0E08081F2
S113279081608083818180FFFDCF80E00E944702B9
S11327A08EE10E94370260E080E00E94410243E033
S11327B060E080E40E942802E0E5F0E08081886027
S11327C08083818183FFFDCF64E080EC0E9432022C
S11327D0E0E5F0E080818061808360E080E00E9439
S11327E04102E0E5F0E0818184FFFDCF84E00E94B6
S11327F0470287E00E9437020895CF93DF931F9228
S1132800CDB7DEB71982B12C1DC08981B80E83E61D
S11328108B15B8F48091C72C8F5F8C3320F4809390
S1132820C72CB12C0EC01092C72C8091C62C8F5F80
S11328308C3320F48093C62CB12C03C01092C62C88
S1132840B12C19820F2EF2E3CF2ED12CE12CF12CD6
S1132850F02D8E010F5F1F4F2FEF3FEFA90160E0B6
S113286070E0CB010E941D0F813061F7CECFCF9372
S1132870DF9300D01F92CDB7DEB7E0EAF6E081E047
S11328808183848319821A821B821C820F2EF0EAB0
S1132890AF2EF6E0BF2EF02D992493940F2EF5E081
S11328A0CF2ED12CE12CF12CF02D8E010F5F1F4F78
S11328B02FEF3FEFA90160E070E0CB010E941D0FF4
S11328C089819A81AB81BC81892B8A2B8B2B31F333
S11328D0F501968264E670E080E090E00E94F60CD8
S11328E0F501958264E670E080E090E00E94F60CC9
S11328F0D5CF0E944D0168EB7BE080E090E00E9420
S1132900F60C0E94580180E00E94FD01813069F4B8
S113291000E010E021E041E050E060E070E08091F0
S1132920F52C9091F62C0E94B00F81E00E94FD01DD
S1132930813069F400E010E021E042E050E060E022
S113294070E08091F52C9091F62C0E94B00F82E0FB
S11329500E94FD01813069F400E010E021E044E0D0
S113296050E060E070E08091F52C9091F62C0E948C
S1132970B00F83E00E94FD01813069F400E010E0B3
S113298021E048E050E060E070E08091F52C909107
S1132990F62C0E94B00F80E00E94FD0181110DC051
S11329A000E010E021E040E150E060E070E0809160
S11329B0F52C9091F62C0E94B00F81E00E94FD014D
S11329C081110DC000E010E021E040E250E060E041
S11329D070E08091F52C9091F62C0E94B00F82E06B
S11329E00E94FD0181110DC000E010E021E040E4EF
S11329F050E060E070E08091F52C9091F62C0E94FC
S1132A00B00F83E00E94FD0181110DC000E010E0D1
S1132A1021E040E850E060E070E08091F52C909176
S1132A20F62C0E94B00F6AE070E080E090E00E9413
S1132A30F60C67CFC3E0D0E00F2E812C912CF0E888
S1132A40AF2EFFE3BF2EF02DEE24E394F12CC7014B
S1132A50BE010E94FA1E072E000C880B990B0E94DF
S1132A60D81D9B01AC01C501B4010E94BC1C4B01E3
S1132A705C012296C701BE010E94FA1E072E000CBB
S1132A80880B990B0E94D81DA50194010E94BD1CBE
S1132A904B015C0120E030E040E850E40E948D1ED0
S1132AA06093C22C7093C32C8093C42C9093C52C38
S1132AB000E010E021E041E050E060E070E080914F
S1132AC0F52C9091F62C0E94B00F68EC70E080E039
S1132AD090E00E94F60CBBCFCF93DF93CDB7DEB767
S1132AE02F97CDBFDEBF19821A821B821C820F2E44
S1132AF0FDE06F2EF0E27F2EF02D0F2EFBE18F2EE6
S1132B00F0E29F2EF02D5E0185E0A80EB11C0F2E81
S1132B10F0E24F2EF0E25F2EF02D332433940F2E8B
S1132B20F5E0CF2ED12CE12CF12CF02D8E010F5F8E
S1132B301F4F2FEF3FEFA90160E070E0CB010E942F
S1132B401D0F0E940E197F926F921F921F921F9267
S1132B501F920E9419198091C52C8F938091C42CC7
S1132B608F938091C32C8F938091C22C8F939F92CB
S1132B708F92BF92AF920E945F1FBF92AF925F92FB
S1132B804F921F921F921F923F920E94191968EC54
S1132B9070E080E090E00E94F60CCDBFDEBFBFCFB6
S1132BA00895E0E4F8E08081856080838681816017
S1132BB0868387E893E186A397A3E0EAF0E0828125
S1132BC0816082830895EF92FF920F930E94C51350
S1132BD00E9492170E94D1150F2EFDEFEF2EFCE2FA
S1132BE0FF2EF02D02E020E030E042ED50E06AE2FA
S1132BF070E287E394E10E94390A0F2EF7EFEF2E7B
S1132C00FCE2FF2EF02D01E020E030E04CE251E048
S1132C1063E370E28AE195E10E94390A0F2EFBEF2B
S1132C20EF2EFCE2FF2EF02D02E020E030E048EC35
S1132C3050E06FE370E289E794E10E94390A0F2EB5
S1132C40F9EFEF2EFCE2FF2EF02D03E020E030E060
S1132C5048EC50E06AE470E28DEF93E10E94390A97
S1132C600F2EF5EFEF2EFCE2FF2EF02D02E020E018
S1132C7030E048EC50E064E570E28CE695E10E94B7
S1132C80390A0E944E0B80E090E00F91FF90EF9084
S1132C9008951F920F920FB60F9211240BB60F9244
S1132CA0EF92FF920F931F932F933F934F935F9352
S1132CB06F937F938F939F93AF93BF93EF93FF9300
S1132CC0CF93DF931F92CDB7DEB719824091FF2CCB
S1132CD050E060E070E0CE0101967C0100E010E07D
S1132CE022E08091F92C9091FA2C0E9446100F90CA
S1132CF0DF91CF91FF91EF91BF91AF919F918F9110
S1132D007F916F915F914F913F912F911F910F91FF
S1132D10FF90EF900F900BBE0F900FBE0F901F907F
S1132D2018951F920F920FB60F9211240BB60F92A3
S1132D302F933F934F935F936F937F938F939F93BF
S1132D40AF93BF93EF93FF93CF93DF931F92CDB7CE
S1132D50DEB719829E012F5F3F4F41E050E060E0F3
S1132D6070E08091022D9091032D0E94080460E090
S1132D7080E09BE00E945C021092060B0F90DF91B2
S1132D80CF91FF91EF91BF91AF919F918F917F91DF
S1132D906F915F914F913F912F910F900BBE0F90C8
S1132DA00FBE0F901F901895CF92DF92EF92FF9273
S1132DB00F936B017C0182E0C816D104E104F10495
S1132DC008F44EC0E0E0FBE081E0868310A211A28B
S1132DD060E080E09BE00E9462028EEFC8168FEFF5
S1132DE0D806E104F10470F4F694E794D794C794F8
S1132DF0C092260BD092270B65E080E09BE00E94F6
S1132E005C0219C080E4C81682E4D8068FE0E806A4
S1132E10F10488F4689414F8F694E794D794C7946A
S1132E201694D1F7C092260BD092270B67E080E06E
S1132E309BE00E945C020F2EF4EFCF2EDD24D3948E
S1132E40E12CF12CF02D00E021E041E050E060E0C5
S1132E5070E08091022D9091032D0E948D0211C08B
S1132E60E0E0FBE081E0868310A211A260E080E054
S1132E709BE00E946202C12CD12C76016894C1F8B7
S1132E80B3CF0F91FF90EF90DF90CF90089582958C
S1132E90807FE0E0F6E09481282F2F6092239483D2
S1132EA09481892B848308951F93CF93DF93C0E685
S1132EB0D6E014E01D8361E070E080E090E00E94C1
S1132EC0D4161E83DF91CF911F910895CF93C82FFD
S1132ED082958F700E944717E0E6F6E081E08683D2
S1132EE082E086830E9454178C2F8F700E944717AC
S1132EF00E945417CF910895CF93C82F82958F7055
S1132F000E944717E0E6F6E081E0858382E086834D
S1132F100E9454178C2F8F700E9447170E945417D9
S1132F20CF910895EF92FF920F93E0E0F6E080E1F5
S1132F30818380E2818380E4818380E88183A0E6C9
S1132F40B6E081E011968C93119782E011968C93F0
S1132F50119784E011968C93119784818F708483E8
S1132F6014968C911497887F14968C9340E066E1B4
S1132F7088E00E949F078093002D9093012D0E946A
S1132F8078028093022D9093032DE12CF12C01E023
S1132F9020E030E04EE551E062E670E280E398E143
S1132FA00E94390A0F91FF90EF90089581309105A6
S1132FB079F01CF4892B39F019C08230910569F03D
S1132FC0039781F013C080E8860F0E9466170EC035
S1132FD080EC860F0E94661709C084E9860F0E9460
S1132FE0661704C084ED860F0E94661767E270E0DE
S1132FF080E090E00E94D41608950E947C176BE252
S113300070E080E090E00E94D41608950F931F931F
S1133010CF93DF93FC01808181110AC011C0899193
S1133020882371F00E94FD170C171D07C1F708C013
S11330308F010E94FD17E80121960C5E1F4FEFCF10
S1133040DF91CF911F910F910895CF93DF93EA0100
S11330500E94D617CE010E940618DF91CF910895E1
S1133060CF93DF93CDB7DEB7C656D109CDBFDEBF50
S11330705E0141E5A40EB11CFE01319620E208C0B8
S11330802193E817F907E1F7FC01A816B90619F02E
S1133090CF014496F5CF60E47CE980E090E00E94A3
S11330A0D41683E00E94471768E873E180E090E05B
S11330B00E94D4160E94541760EA70E080E090E009
S11330C00E94D4160E94541760EA70E080E090E0F9
S11330D00E94D4160E94541760EA70E080E090E0E9
S11330E00E94D41682E00E9447170E94541788E277
S11330F00E94661780E10E9466178CE00E946617A2
S113310086E00E94661710E26E0151E5C50ED11CDF
S11331100F2EF4E14F2EF02D0F2EF6E18F2E912C71
S1133120F02D5C2C0D2D68EC70E080E090E00E94A6
S1133130F60C40E050E0BA018091022D9091032DED
S11331400E945203672B682B692B09F449C042E0A3
S113315050E060E070E08091022D9091032D0E9478
S11331605203FE01319608C01193E817F907E1F7FD
S1133170FC018A159B05A1F1CF014496F5CF2FEFF1
S11331803FEFA901652D702F8091002D9091012DA5
S11331900E94BB08882321F1F6012181822F90E04F
S11331A04497F4F482818823D9F0908130E0D901E6
S11331B0499EA00DB11D112441E050E04C0F5D1F4C
S11331C0A40FB51F3396A401421B530B9A012C0D77
S11331D03D1D8D93E217F30719F081918111F9CF09
S11331E08091002D9091012D0E9461098111C7CF1A
S11331F0CE0101967C01612C712CA70160E070E086
S1133200C3010E9425189FEF691A790AE4E1EE0EC2
S1133210F11CF4E06F16710481F785CF42E050E0B1
S113322060E070E08091022D9091032D0E94730361
S113323008952F923F924F925F926F927F928F9256
S11332409F92AF92BF92CF92DF92EF92FF920F9331
S11332501F93CF93DF93CDB7DEB76D97CDBFDEBF9E
S11332602BA92B8FAFA9B8AD7E0139E3E30EF11C76
S113327020EF3CE2ECEDFCE21192E217F307E1F7F8
S11332800F2EF8ECAF2EFCE2BF2EF02D2CED3CE21D
S1133290F5011192E217F307E1F7812C912C0F2E1F
S11332A0FCEDCF2EFCE2DF2EF02DFCC2853209F0BE
S11332B0E8C22D0182E0480E511C11968C9185368E
S11332C009F4DBC138F48336C1F008F048C0853214
S11332D051F0E7C28337F9F0883709F468C08636BD
S11332E009F0DFC28CC0F401E853F34D95E29083FA
S11332F0AFEF8A1A9A0AD201D5C2F401E853F34D0A
S1133300D7018C918083BFEF8B1A9B0AF701329609
S11333107F01D201C7C2A7014E5F5F4FD7018D91D4
S11333209C919C01B401F401E853F34D00E010E0DA
S113333006C0D901FD909D01F1920F5F1F4FDC0182
S11333400D900020E9F71197A81BB90B0A171B076A
S113335080F34D01860E971E7A01D201A3C2870124
S11333600E5F1F4F4AE0B601F701808191810E94F0
S11333703A1F9401D401A853B34D4CED5CE280E0B4
S113338090E005C0FA016191AF016D930196F601D9
S113339001900020E9F73197EC5DFC428E179F07FE
S11333A088F34F01820E931E7801D2017BC28701FC
S11333B00E5F1F4F40E1B601D7018D919C910E9491
S11333C03A1F9401F401E853F34D4CED5CE280E0C4
S11333D090E005C0DA016D91AD0161930196D601CB
S11333E00D900020E9F71197AC5DBC428A179B074A
S11333F088F34D01820E931E7801D20153C2170146
S1133400B4E02B0E311CD7018D919D910D90BC9190
S1133410A02D8F8B988FA98FBA8F20E030E0A9015F
S1133420BC01CD010E94291D811105C020E3F601D4
S11334302083118204C120E030E0A9016F89788DD6
S1133440898D9A8D0E94291D88239CF4EDE2D60172
S1133450EC938F89988DA98DBA8DB0588F8B988FE6
S1133460A98FBA8F0F2EFDED6F2EFCE27F2EF02D6B
S113347001C0360120E030E040E85FE36F89788DD9
S1133480898D9A8D0E94881E88230CF444C200E022
S113349010E020E030E040E251E46F89788D898DBE
S11334A09A8D0E942E1D6F8B788F898F9A8F0F5F54
S11334B01F4F20E030E040E85FE30E94881E88232D
S11334C044F72DEC3CEC4CEC5DE36F89788D898DF1
S11334D09A8D0E94291D88231CF01AC000E010E078
S11334E020E030E040E251E46F89788D898D9A8D37
S11334F00E948D1E6F8B788F898F9A8F01501109CE
S11335002DEC3CEC4CEC5DE30E94291D882344F334
S113351010161106ACF57301D301A00FB11FAC8FC7
S1133520BD8F3D016F89788D898D9A8D20E030E0C3
S113353040E251E40E948D1E6F8B788F898F9A8FA1
S11335400E94A01D20E3260FF70121937F01072E7F
S1133550000C880B990B0E94D81D9B01AC016F894C
S1133560788D898D9A8D0E94BC1CE614F704F1F6BF
S11335706F8B788F898F9A8F0115110589F4DBC1C0
S1133580C801E0E3D301EC937301F2E0EF0EF11C08
S11335902EE211962C9399236CF000E010E01FC0EA
S11335A0EC8CFD8C3FEFE31AF30AEEE2AC8DBD8D9B
S11335B0EC9312C000E010E0FFEFEF1AFF0AF701EE
S11335C0319720E3208301970F5F1F4F992324F441
S11335D0043011058CF331C00430110574F5370142
S11335E084E090E0801B910BE80EF91E87016F893F
S11335F0788D898D9A8D20E030E040E251E40E947C
S11336008D1E6F8B788F898F9A8F0E94A01D20E367
S1133610260FD3012D933D01072E000C880B990B27
S11336200E94D81D9B01AC016F89788D898D9A8D7C
S11336300E94BC1C60167106F1F6F7011082940119
S1133640F401E853F34D4CED5CE280E090E005C0FA
S1133650DA016D91AD0161930196D6010D900020C0
S1133660E9F71197AC5DBC428A179B0788F34D01BB
S1133670820E931E7101D20115C11701B4E02B0E05
S1133680311CD7018D919D910D90BC91A02D8F8BF4
S1133690988FA98FBA8F20E030E0A901BC01CD0139
S11336A00E94291D811105C020E3F60120831182A7
S11336B0CAC020E030E0A9016F89788D898D9A8D88
S11336C00E94291D88239CF4EDE2D601EC938F8996
S11336D0988DA98DBA8DB0588F8B988FA98FBA8F7A
S11336E00F2EFDED6F2EFCE27F2EF02D01C0360172
S11336F020E030E040E85FE36F89788D898D9A8D12
S11337000E94881E8823DCF000E010E020E030E016
S113371040E251E46F89788D898D9A8D0E942E1D27
S11337206F8B788F898F9A8F0F5F1F4F20E030E067
S113373040E85FE30E94881E882344F702C000E04B
S113374010E02DEC3CEC4CEC5DE36F89788D898DB9
S11337509A8D0E94291D8823C4F420E030E040E2C1
S113376051E46F89788D898D9A8D0E948D1E6F8B9F
S1133770788F898F9A8F015011092DEC3CEC4CEC19
S11337805DE30E94291D882344F320E030E040E2F9
S113379051E46F89788D898D9A8D0E948D1E6F8B6F
S11337A0788F898F9A8F0E94A01D20E3260FD30162
S11337B02C93072E000C880B990B0E94D81D9B019B
S11337C0AC016F89788D898D9A8D0E94BC1CF8019B
S11337D03197EC8FFD8FEEE2D3011196EC938301C8
S11337E00E5F1F4F7301F6E0EF0EF11C20E030E096
S11337F040E251E40E948D1E6F8B788F898F9A8FDF
S11338000E94A01D20E3260FD8012D938D01072EC1
S1133810000C880B990B0E94D81D9B01AC016F8989
S1133820788D898D9A8D0E94BC1C0E151F05F1F6AA
S113383025E6F3012683B301695F7F4F4AE08C8D4F
S11338409D8D0E943A1F9401F401E853F34D4CED11
S11338505CE280E090E005C0DA016D91AD01619316
S11338600196D6010D900020E9F71197AC5DBC429A
S11338708A179B0788F34D01820E931E7101D201B2
S113388011C08A3029F0F401E853F34D808304C059
S1133890F401E853F34D10821196EFEF8E1A9E0A4D
S11338A001C0D2018C91811101CD8DA99EA9880DF1
S11338B0991D44973CF084E190E04C012DA93EA968
S11338C0821A930AFE013396CE014796DF011D92B8
S11338D0A817B907E1F73B8D39838DA98A8318149A
S11338E019045CF4CE01880D991D0396D5012D9120
S11338F05D0121938E179F07C9F700E02FEF3FEF7B
S1133900A901BE016F5F7F4F8091002D9091012D21
S11339100E94D0071BC02DEC3CEC4CEC5DE36F899E
S1133920788D898D9A8D0E94291D88230CF4D6CD1B
S113393080E090E026CE20E3EC8DFD8D20837F0196
S113394032E0E30EF11C8EE2818346CE6D96CDBF4C
S1133950DEBFDF91CF911F910F91FF90EF90DF9029
S1133960CF90BF90AF909F908F907F906F905F901B
S11339704F903F902F9008955058BB27AA270E943C
S1133980D41C0C944E1E0E94401E38F00E94471E08
S113399020F039F49F3F19F426F40C943D1E0EF4E4
S11339A0E095E7FB0C94371EE92F0E945F1E58F345
S11339B0BA17620773078407950720F079F4A6F510
S11339C00C94811E0EF4E0950B2EBA2FA02D0B0142
S11339D0B90190010C01CA01A0011124FF27591B50
S11339E099F0593F50F4503E68F11A16F040A22F56
S11339F0232F342F4427585FF3CF469537952795C7
S1133A00A795F0405395C9F77EF41F16BA0B620BC5
S1133A10730B840BBAF09150A1F0FF0FBB1F661F0C
S1133A20771F881FC2F70EC0BA0F621F731F841F4F
S1133A3048F4879577956795B795F7959E3F08F075
S1133A40B0CF9395880F08F09927EE0F9795879537
S1133A5008950E94131E08F481E008950E94421DF7
S1133A600C944E1E0E94471E58F00E94401E40F0C7
S1133A7029F45F3F29F00C94371E51110C94821ED7
S1133A800C943D1E0E945F1E68F39923B1F35523E5
S1133A9091F3951B550BBB27AA276217730784075D
S1133AA038F09F5F5F4F220F331F441FAA1FA9F3F3
S1133AB035D00E2E3AF0E0E832D091505040E695E1
S1133AC0001CCAF72BD0FE2F29D0660F771F881F42
S1133AD0BB1F261737074807AB07B0E809F0BB0B35
S1133AE0802DBF01FF2793585F4F3AF09E3F510549
S1133AF078F00C94371E0C94821E5F3FE4F3983EDA
S1133B00D4F3869577956795B795F7959F5FC9F731
S1133B10880F911D9695879597F90895E1E0660FB2
S1133B20771F881FBB1F621773078407BA0720F02B
S1133B30621B730B840BBA0BEE1F88F7E095089594
S1133B400E94A71D6894B1110C94821E08950E94CE
S1133B50671E88F09F5798F0B92F9927B751B0F096
S1133B60E1F0660F771F881F991F1AF0BA95C9F7FD
S1133B7014C0B13091F00E94811EB1E008950C94FC
S1133B80811E672F782F8827B85F39F0B93FCCF3AF
S1133B90869577956795B395D9F73EF4909580957A
S1133BA0709561957F4F8F4F9F4F0895E89409C09A
S1133BB097FB3EF490958095709561957F4F8F4F5C
S1133BC09F4F9923A9F0F92F96E9BB279395F69572
S1133BD0879577956795B795F111F8CFFAF4BB0FF0
S1133BE011F460FF1BC06F5F7F4F8F4F9F4F16C054
S1133BF0882311F096E911C0772321F09EE8872FDE
S1133C00762F05C0662371F096E8862F70E060E099
S1133C102AF09A95660F771F881FDAF7880F969512
S1133C20879597F90895990F0008550FAA0BE0E8B6
S1133C30FEEF16161706E807F907C0F0121613066A
S1133C40E407F50798F0621B730B840B950B39F4AA
S1133C500A2661F0232B242B252B21F408950A2610
S1133C6009F4A140A6958FEF811D811D089597F950
S1133C709F6780E870E060E008959FEF80EC08950E
S1133C8000240A9416161706180609060895002437
S1133C900A9412161306140605060895092E0394B1
S1133CA0000C11F4882352F0BB0F40F4BF2B11F425
S1133CB060FF04C06F5F7F4F8F4F9F4F089557FD84
S1133CC09058440F551F59F05F3F71F04795880F86
S1133CD097FB991F61F09F3F79F08795089512161D
S1133CE013061406551FF2CF4695F1DF08C01616C9
S1133CF017061806991FF1CF86957105610508947A
S1133D000895E894BB2766277727CB0197F9089590
S1133D100E94131E08F48FEF08950E94A01E0C94B5
S1133D204E1E0E94401E38F00E94471E20F095232C
S1133D3011F00C94371E0C943D1E11240C94821E19
S1133D400E945F1E70F3959FC1F3950F50E0551FBD
S1133D50629FF001729FBB27F00DB11D639FAA27DC
S1133D60F00DB11DAA1F649F6627B00DA11D661F2B
S1133D70829F2227B00DA11D621F739FB00DA11D4C
S1133D80621F839FA00D611D221F749F3327A00D06
S1133D90611D231F849F600D211D822F762F6A2FA2
S1133DA011249F5750409AF0F1F088234AF0EE0F07
S1133DB0FF1FBB1F661F771F881F91505040A9F734
S1133DC09E3F510580F00C94371E0C94821E5F3F79
S1133DD0E4F3983ED4F3869577956795B795F79570
S1133DE0E7959F5FC1F7FE2B880F911D96958795E8
S1133DF097F9089597FB072E16F4009407D077FDE2
S1133E0009D00E94161F07FC05D03EF490958195B9
S1133E109F4F0895709561957F4F0895EE0FFF1F92
S1133E20881F8BBF0790F691E02D1994AA1BBB1B2A
S1133E3051E107C0AA1FBB1FA617B70710F0A61BA6
S1133E40B70B881F991F5A95A9F780959095BC01C7
S1133E50CD010895FB01DC0102C001900D92415097
S1133E605040D8F70895DC0101C06D934150504093
S1133E70E0F70895BB274A3031F4992322F4BDE2D8
S1133E80909581959F4F0C94461FBB27FB015527A6
S1133E90AA27880F991FAA1FA41710F0A41B8395A3
S1133EA05051B9F7A05DAA3308F0A95DA19300971A
S1133EB079F7B111B1931192CB010C94A2210F9314
S1133EC01F93CF93DF93CDB7DEB72E97CDBFDEBF61
S1133ED00E891F8986E08C8309831A838FEF9FE7FD
S1133EE08D839E83AE01465E5F4F688D798DCE01D2
S1133EF001960E94881FEF81F885E00FF11F108260
S1133F002E96CDBFDEBFDF91CF911F910F91089503
S1133F102F923F924F925F926F927F928F929F92D5
S1133F20AF92BF92CF92DF92EF92FF920F931F93C3
S1133F30CF93DF93CDB7DEB72B97CDBFDEBF6C0138
S1133F407B018A01FC0116821782838181FFCCC127
S1133F50CE0101963C01F6019381F70193FD859111
S1133F6093FF81917F01882309F4BAC1853239F422
S1133F7093FD859193FF81917F01853229F4B601E8
S1133F8090E00E94B221E7CF912C212C312CFFE14B
S1133F90F315D8F08B3279F038F4803279F083322B
S1133FA0A1F4232D20611DC08D3261F0803369F4AA
S1133FB0232D216016C0832D8260382EE32DE4600A
S1133FC03E2E2AC0F32DF8601DC037FC2DC020ED15
S1133FD0280F2A3040F08E32B9F436FC81C1232DEB
S1133FE02064322E19C036FE06C08AE0989E200D49
S1133FF01124922E11C0EAE02E9E200D1124222EAF
S1134000F32DF0623F2E08C08C3621F4832D806896
S1134010382E02C0883641F4F70193FD859193FF51
S113402081917F018111B3CF982F9F7D9554933057
S113403028F40C5F1F4F9FE399830DC0833631F042
S1134040833771F0833509F059C021C0F8018081AC
S113405089830E5F1F4F88248394912C530113C0CE
S11340602801F2E04F0E511CF801A080B18036FE09
S113407003C0692D70E002C06FEF7FEFC5010E949D
S113408097214C018201F32DFF773F2E16C02801A2
S113409022E0420E511CF801A080B18036FE03C01C
S11340A0692D70E002C06FEF7FEFC5010E948C2183
S11340B04C01F32DF0683F2E820133FC1BC0822D8E
S11340C090E088169906B0F4B60180E290E00E9470
S11340D0B2212A94F4CFF50137FC859137FE819102
S11340E05F01B60190E00E94B22121102A9421E0E0
S11340F0821A91088114910471F7E8C0843611F092
S1134100893641F5F80137FE07C0608171818281EB
S113411093810C5F1F4F08C060817181072E000CD2
S1134120880B990B0E5F1F4FF32DFF763F2E97FFE1
S113413009C090958095709561957F4F8F4F9F4FE3
S1134140F0683F2E2AE030E0A3010E94EE21882E81
S1134150861845C0853731F4232D2F7EB22E2AE0F0
S113416030E025C0932D997FB92E8F36C1F018F415
S1134170883579F0B5C0803719F0883721F0B0C0A0
S1134180E92FE061BE2EB4FE0DC0FB2DF460BF2EFE
S113419009C034FE0AC0292F2660B22E06C028E0CA
S11341A030E005C020E130E002C020E132E0F80157
S11341B0B7FE07C060817181828193810C5F1F4FBC
S11341C006C06081718180E090E00E5F1F4FA30103
S11341D00E94EE21882E8618FB2DFF773F2E36FE97
S11341E00DC0232D2E7FA22E891458F434FE0BC04B
S11341F032FC09C0832D8E7EA82E05C0B82CA32CBA
S113420003C0B82C01C0B92CA4FE0FC0FE01E80DF8
S1134210F11D8081803321F49A2D997EA92E09C045
S1134220A2FE06C0B394B39404C08A2D867809F024
S1134230B394A3FC11C0A0FE06C0B21488F4280CE9
S1134240922C9B180EC0B21460F4B60180E290E088
S11342500E94B221B394F7CFB21418F42B1802C001
S1134260982C212CA4FE10C0B60180E390E00E949B
S1134270B221A2FE17C0A1FC03C088E790E002C0EF
S113428088E590E0B6010CC08A2D867859F0A1FE2D
S113429002C08BE201C080E2A7FC8DE2B60190E08F
S11342A00E94B221891438F4B60180E390E00E94A0
S11342B0B2219A94F7CF8A94F301E80DF11D80811D
S11342C0B60190E00E94B2218110F5CF222009F4BA
S11342D042CEB60180E290E00E94B2212A94F6CF49
S11342E0F6018681978102C08FEF9FEF2B96CDBF99
S11342F0DEBFDF91CF911F910F91FF90EF90DF9080
S1134300CF90BF90AF909F908F907F906F905F9071
S11343104F903F902F900895FC010590615070409C
S11343200110D8F7809590958E0F9F1F0895FC017A
S11343306150704001900110D8F7809590958E0FD0
S11343409F1F0895DC01FC01672F71917723E1F72A
S1134350329704C07C916D9370836291AE17BF074E
S1134360C8F308950F931F93CF93DF93FB01238129
S113437021FD03C08FEF9FEF2CC022FF16C04681A2
S11343805781248135814217530744F4A081B181B8
S11343909D012F5F3F4F208331838C93268137818A
S11343A02F5F3F4F2683378314C08B01EC01FB0141
S11343B00084F185E02D1995892BE1F6D801169634
S11343C08D919C911797019616968D939C931797B0
S11343D0CE01DF91CF911F910F910895FA01AA2781
S11343E0283051F1203181F1E8946F936E7F6E5F34
S11343F07F4F8F4F9F4FAF4FB1E03ED0B4E03CD0E2
S1134400670F781F891F9A1FA11D680F791F8A1FC4
S1134410911DA11D6A0F711D811D911DA11D20D02B
S113442009F468943F912AE0269F11243019305DE5
S11344303193DEF6CF010895462F4770405D4193D6
S1134440B3E00FD0C9F7F6CF462F4F70405D4A3323
S113445018F0495D31FD4052419302D0A9F7EACFEB
S1134460B4E0A6959795879577956795BA95C9F71A
S113447000976105710508959B01AC010A2E06940D
S11344805795479537952795BA95C9F7620F731FC6
S10F4490841F951FA01D0895F894FFCF11
S113449C49444C4500546D72205376630050692096
S11344AC43616C63756C61746F7200253032660005
S11344BC202050493A20202573006C6564426C69B5
S11344CC6E6B004C6569626E697A416C676F004271
S11344DC7574746F6E5461736B00486561727462A9
S11344EC6561740055736572496E746572666163B7
S11144FC650064697370557064617465000036
S9030000FC
